S0160000414645435F4558414D504C4531312E7372656332
S214400000202F402021404000D1404000D1404000B9
S214400010D1404000D1404000D140400000000000A8
S214400020000000000000000000000000D14040003A
S214400030D140400000000000D1404000D140400088
S214400040D1404000D1404000D1404000D140400027
S214400050D1404000D1404000D1404000D140400017
S214400060D140400000000000A9344000C1344000A8
S214400070D9344000D1404000D1404000D1404000FB
S214400080F134400009354000D1404000D1404000A6
S214400090D1404000D1404000D1404000D1404000D7
S2144000A0D1404000D1404000D1404000D1404000C7
S2144000B0D1404000092E4000D1404000D140400091
S2144000C0D1404000D1404000D1404000D1404000A7
S2144000D000000000D140400000000000D140400039
S2144000E0212E4000D1404000D1404000D140400049
S2144000F0D1404000D1404000D1404000D140400077
S214400100D1404000D1404000D1404000D140400066
S214400110D140400000000000000000000000000049
S214400120D1404000D1404000D1404000D140400046
S214400130D140400000000000D1404000D140400087
S21440014010B5054C237833B9044B13B10448AFF3CC
S21440015000800123237010BDC0094020000000002D
S214400160248042000C4B43B10C480D4910B5AFF308
S21440017000800C48036823B910BD0A48036833B9A9
S2144001807047094B002BF7D0BDE810401847064B88
S214400190002BF5D0184700BF000000002480420026
S2144001A0C4094020248042000000000080B483B090
S2144001B000AF78600B467B8000BF0C37BD465DF8CD
S2144001C0047B704780B485B000AF78600B46FB7008
S2144001D07B685B68FB60FB78FF2B04D1FB6843F0D1
S2144001E08003FB6007E0FB6823F08F03FB60FB782F
S2144001F0FA681343FB607B68FA685A6000BF14379E
S214400200BD465DF8047B704780B483B000AF78602D
S2144002107B6802221A6000BF0C37BD465DF8047B3F
S2144002207047000080B582B000AF78600B467B8098
S2144002307B8840F6FF72934204D07B8819467868E4
S2144002400A4B98477B8840F6FF72934205D07B88DE
S214400250012202FA03F31A4601E040F6FF727B6879
S2144002605A6100BF0837BD4680BD00BFAD014000A3
S21440027080B582B000AF78600B467B807B8819469D
S2144002807868054B98477A887B685A667B689B6E89
S21440029018460837BD4680BDAD01400080B582B0E7
S2144002A000AF78600B467B8013463B807B881946C0
S2144002B07868074B98477A887B685A663B88C3F3CA
S2144002C00B027B68DA6600BF0837BD4680BD00BFBC
S2144002D0AD01400080B483B000AF78607B68072BE8
S2144002E025D801A252F823F0090340000F0340002E
S2144002F0150340001B0340001F034000230340003B
S214400300270340002B0340004FF4FA4310E04FF41D
S21440031000430DE04FF400430AE0084B08E0084B6A
S21440032006E0084B04E0074B02E0064B00E00023E3
S21440033018460C37BD465DF8047B704700093D0003
S21440034000127A00001BB70080B500AF0620054BB0
S2144003509847024613469B0013449A001344184697
S21440036080BD00BFD502400080B500AF024B984725
S2144003700346184680BD00BF4903400080B500AF25
S214400380024B984703465B08184680BD4903400029
S21440039080B582B000AF78607868034B984700BF5E
S2144003A00837BD4680BD00BFE537400080B58CB0FD
S2144003B000AF786039604F4B984703467B623B6896
S2144003C01B68BB623B689B68FB623B681B68FB60C4
S2144003D03B685B683B613B689B687B613B68DB686E
S2144003E0BB610023FB617B68434A934208D10720E8
S2144003F0424B984707F1240319467868404B984784
S2144004007B68404A934208D108203C4B984707F106
S2144004102403194678683A4B98477B683A4A934291
S21440042008D12C20354B984707F1240319467868A5
S214400430334B98477B68354A934208D12D202F4B43
S214400440984707F12403194678682D4B98477B68F0
S2144004502F4A934208D12E20284B984707F1240371
S21440046019467868264B98477B682A4A934211D1AA
S2144004700D20224B98471F4B9847024607F10C0326
S21440048019467868244B98477868244B984778688C
S214400490234B98477B68234A934211D10E20174B33
S2144004A09847144B9847024607F10C03194678685C
S2144004B0194B98477868194B98477868184B98476F
S2144004C07B68194A934211D10F200C4B9847094B31
S2144004D09847024607F10C03194678680E4B984732
S2144004E078680E4B984778680D4B984700BF303772
S2144004F0BD4680BD7D03400000080E40910340008D
S214400500553C4000000A0E40001A0E40001C0E40AB
S214400510001E0E4000400240ED3D4000713E40004F
S214400520A53E40000080024000C0024080B582B038
S21440053000AF78600B46FB707B68364A93420AD120
S21440054000BFFB7819467868334B98470346002B24
S214400550F7D101235AE07B68304A93420AD100BF64
S214400560FB78194678682C4B98470346002BF7D102
S21440057001234BE07B682A4A93420AD100BFFB78AE
S21440058019467868244B98470346002BF7D1012339
S2144005903CE07B68234A93420AD100BFFB78194669
S2144005A078681D4B98470346002BF7D101232DE072
S2144005B07B681D4A93420AD100BFFB78194678688B
S2144005C01A4B98470346002BF7D101231EE07B6861
S2144005D0174A93420AD100BFFB7819467868134BF6
S2144005E098470346002BF7D101230FE07B68114A5A
S2144005F093420AD100BFFB78194678680B4B984760
S2144006000346002BF7D1012300E0002318460837A5
S214400610BD4680BD00080E40AD3C4000000A0E407E
S214400620001A0E40001C0E4000400240113F4000A1
S2144006300080024000C0024080B584B000AF7860C1
S21440064039600023FB607B68344A934207D100BF81
S21440065039687868324B98470346002BF8D17B6858
S214400660304A934207D100BF396878682C4B984788
S2144006700346002BF8D17B682B4A934207D100BF34
S21440068039687868264B98470346002BF8D17B6834
S214400690264A934207D100BF39687868204B98476E
S2144006A00346002BF8D17B68214A93420DD100BF08
S2144006B007F10C03194678681E4B98470346002BF3
S2144006C0F6D1FB68DAB23B681A707B681A4A9342E6
S2144006D00DD100BF07F10C0319467868154B9847B3
S2144006E00346002BF6D1FB68DAB23B681A707B688B
S2144006F0124A93420DD100BF07F10C0319467868A1
S2144007000C4B98470346002BF6D1FB68DAB23B68A1
S2144007101A7000BF1037BD4680BD00BF00080E40AF
S214400720DD3C4000000A0E40001A0E40001C0E4001
S21440073000400240433F40000080024000C002406C
S21440074080B582B000AF786039600F4A7B6813602E
S2144007500E4B0F4A1A600F4B0F4A1A60396878687A
S2144007600E4B98470E4B1B689B68002118460D4B56
S21440077098470B4B1B685B6800211846094B984707
S21440078000BF0837BD4680BD740E4020700E402026
S2144007902D0540006C0E402039064000AD03400059
S2144007A0100040209947400080B500AF1D20024B06
S2144007B0984700BF80BD00BFE537400080B485B095
S2144007C000AF78607B6840F6E44202FB03F31A46CB
S2144007D00E4BA3FB0213D21A52081344DB0AFB60EB
S2144007E0FB68A3F53473642202FB03F3084A82FBDA
S2144007F003121A44D211DB17D31A1B33BB60BB68F3
S21440080018461437BD465DF8047B7047010110005A
S214400810059CA28C80B500AF0B210548054B984738
S2144008200246054B1A60054B01221A7000BF80BD78
S21440083000C0034071024000E4094020DD0940202A
S21440084080B500AF05210548054B98470246054B45
S2144008501A60054B01221A7000BF80BD00C00340DD
S21440086071024000E0094020DC09402090B583B08A
S21440087002AF1C4B4FF4A0721A601A4B4FF4F07242
S2144008805A60184B184A9A60164B174ADA60154851
S214400890164B984740F2DF1340F23F1200210020EB
S2144008A0134CA0471348144B9847772340F23F1207
S2144008B0002100200E4CA04740F2DF1340F23F12CA
S2144008C04FF4B47100200A4CA0470C4B0093812390
S2144008D040F23F1232210020094CA04700BF0437A7
S2144008E0BD4690BD540E4020FCFCFC0071214000EB
S2144008F0112440004460FC00E52240008C934000F8
S2144009002126400090B589B000AF1B481B4B984746
S21440091007F1080318461A4B984707F1080319468B
S2144009201548184B984700211348174B9847012302
S214400930164A05211048164CA0473B1D1846154B35
S214400940984700237B713B1D1A4605210A48124BE7
S21440095098474FF4007205210748104B98470521E9
S21440096005480F4B9847052103480E4B984700BF54
S2144009702437BD4690BD00BF00C00340392E40001E
S214400980F92A4000792B4000C5014000410840004C
S214400990112C4000592B4000652A40009D02400023
S2144009A025024000992C400090B589B000AF1B4806
S2144009B01B4B984707F1080318461A4B984707F110
S2144009C0080319461548184B984700211348174BFB
S2144009D098470123164A0B211048164CA0473B1D4A
S2144009E01846154B984700237B713B1D1A460B2132
S2144009F00A48124B98474FF400720B210748104B99
S214400A0098470B2105480F4B98470B2103480E4B40
S214400A10984700BF2437BD4690BD00BF00C0034086
S214400A20392E4000F92A4000792B4000C50140008D
S214400A3015084000112C4000592B4000652A400004
S214400A409D02400025024000992C400090B585B09C
S214400A5000AF0B20154B98470A20144B984710229E
S214400A604FF000511248134B98474FF400124FF086
S214400A70006111480F4B9847104A104BD3F8143179
S214400A8043F01003C2F814310D4B3C460FCB84E8BC
S214400A900F000E20054B98473B46194609480A4B1F
S214400AA0984700BF1437BD4690BD00BF9103400035
S214400AB000100E40B12E4000000E0E400080084050
S214400AC0CC75420000800240410740002DE9F04FBF
S214400AD09FB000AFAE4B9847AE4B9847AE4B98474B
S214400AE0AE4B9847AE4B9847AE4B9847A84B984767
S214400AF0AD4A4FF400435360AC48AD4B9847AD48C1
S214400B00AD4B984740F23B1340F23F124FF496717C
S214400B100020AA4CA0470020A74B9847A84B1B781C
S214400B20DBB2002B75D0A74B1A684FF47A7303FBE1
S214400B3002F1A54BA3FB01328B1A5B081344DB0A78
S214400B407B677B6F3B6707F15C033A6F9F491846AC
S214400B509F4B984707F15C031A464FF496710A205C
S214400B609C4B98479148924B9847954A0023137060
S214400B70994B9847034619464FF000020B461446D9
S214400B80A000F864F86C40EA9370F8649B00BB647D
S214400B90D7E912345B1844EB0204E0007864786CC2
S214400BA040EA53707864DB003B64D7E910345B1A44
S214400BB064EB02042001F863F86B40EA1370F863B4
S214400BC01B01BB63D7E90E345B1844EB0204A2005A
S214400BD07A637A6B42EA93727A639B003B63D7E907
S214400BE00C341946224641F22B734FF00004CD18C0
S214400BF042EB040628463146784C41F22C724FF0C0
S214400C000003A04703460C461846754B9847754B5D
S214400C109847754B1B78DBB2002B6BD0734B1B6829
S214400C201846734B9847F866FB6EBB6607F1500351
S214400C30BA6E70491846664B984707F150031A46F5
S214400C404FF4A5710A20634B98475848584B98472D
S214400C50654A00231370604B9847034619464FF089
S214400C6000020B461446A000F862F86A40EA937009
S214400C70F8629B00BB62D7E90A345B1844EB020477
S214400C80E0007862786A40EA53707862DB003B6244
S214400C90D7E908345B1A64EB02042001F861F8696E
S214400CA040EA1370F8611B01BB61D7E906345B1854
S214400CB044EB02044FEA840949EA93794FEA8308F1
S214400CC043464C461946224641F22B734FF00004E9
S214400CD0CD1842EB040628463146404C41F22C7271
S214400CE04FF00003A04703460C4618463C4B984737
S214400CF02A4B98472D482E4B9847374B98470346E4
S214400D0019464FF000020B461446A00078617869F9
S214400D1040EA937078619B003B61D7E904345B18E6
S214400D2044EB0204E000F860F86840EA5370F8606C
S214400D30DB00BB60D7E902345B1A64EB0204200197
S214400D407860786840EA137078601B013B60D7E9AA
S214400D5000345B1844EB02044FEA840B4BEA937B67
S214400D604FEA830A53465C461946224641F22B73A5
S214400D704FF00004CD1842EB040628463146174C87
S214400D8041F22C724FF00003A047034634E000BF08
S214400D9011114000D91B4000A9074000050940003A
S214400DA06D0840004D0A400050180E4000C00340F9
S214400DB009024000FCFCFC00E522400011244000F3
S214400DC0DC094020E009402001011000DC754200AB
S214400DD039494000C1254000690340009D4340001A
S214400DE001004020A9094000DD094020E4094020D8
S214400DF0BD074000E47542000C461846024B984733
S214400E00024B98478AE600BF010040206D0840002C
S214400E1080B582B000AF78607B68072B31D801A2DE
S214400E2052F823F0810E4000450E40004D0E400023
S214400E30550E40005D0E4000650E40006D0E4000B1
S214400E40770E40000020114B98471AE001200F4BC8
S214400E50984716E000200E4B984712E010200C4BA7
S214400E6098470EE020200A4B98470AE03E21002093
S214400E70084B984705E03E210120064B984700E086
S214400E8000BF00BF0837BD4680BD00BF21364000CA
S214400E908D364000FD36400080B582B000AF7860A9
S214400EA07B68072B26D801A252F823F0CD0E4000CF
S214400EB0D10E4000D10E4000E30E4000E30E40004D
S214400EC0E30E4000E30E4000E30E4000012312E034
S214400ED00B4B98470346002B14BF01230023DBB27D
S214400EE009E0084B98470346002B14BF0123002314
S214400EF0DBB200E0002318460837BD4680BD00BF81
S214400F00593640007537400080B483B000AF7860F3
S214400F107B68072B25D801A252F823F03D0F4000EE
S214400F20430F4000490F40004F0F4000530F400012
S214400F30570F40005B0F40005F0F40004FF4FA43EE
S214400F4010E04FF400430DE04FF400430AE0084B36
S214400F5008E0084B06E0084B04E0074B02E0064B6F
S214400F6000E0002318460C37BD465DF8047B70470A
S214400F7000093D0000127A00001BB70080B582B021
S214400F8000AF0346FB7100BFFB791846054B9847F8
S214400F90034683F00103DBB2002BF5D100BF0837D0
S214400FA0BD4680BD990E400080B586B000AFF86063
S214400FB07A603B600B46FB727B68002B07D13B6830
S214400FC0002B04D1FB684FF470021A6019E0FB7ADC
S214400FD018460E4B984702467B68B2FBF3F37B619C
S214400FE07B693A6802FB03F37B613B68013B1A046A
S214400FF0074B13407A68D2B2134343F47C52FB68E3
S2144010001A6000BF1837BD4680BD00BF090F4000BC
S2144010100000FF0780B582B000AF786039603B685B
S214401020002B08D1094B9847094A7B681B6843F058
S2144010300053936205E0064A7B681B6843F480339E
S214401040D36100BF0837BD4680BD00BF9137400022
S21440105000060E4080B582B000AF78607B68002BFB
S21440106003D1054B9847034602E0044B9847034696
S21440107018460837BD4680BDAD374000C9374000EA
S21440108080B582B000AF0346FB71FB79033B042B6F
S21440109008D8FB791846064B9847FB791846054B07
S2144010A0984700E000BF00BF0837BD4680BD00BF80
S2144010B0110E40007D0F400080B582B000AF7860D2
S2144010C000BF7868044B98470346002BF9D00023AE
S2144010D018460837BD4680BD5510400080B500AF65
S2144010E00620054B9847024613469B0013449A0039
S2144010F01344184680BD00BF090F400080B500AFBE
S214401100024B98470346184680BD00BFDD1040009E
S21440111090B583B000AF1348134B98470620134B47
S2144011209847381D192301220621114CA0473B1D24
S214401130002118460F4B984700200F4B9847022037
S2144011400E4B984700200E4B98470E4B98470E4B39
S214401150984703461846044B984700BF0C37BD4691
S21440116090BD00BF00A3E111414240008110400005
S214401170A90F400015104000B9104000213540002E
S2144011809D354000D9404000FD10400080B483B0FB
S21440119000AF78607B68072B25D801A252F823F071
S2144011A0C1114000C7114000CD114000D31140008E
S2144011B0D7114000DB114000DF114000E311400032
S2144011C04FF4FA4310E04FF400430DE04FF4004371
S2144011D00AE0084B08E0084B06E0084B04E0074BE3
S2144011E002E0064B00E0002318460C37BD465DF88B
S2144011F0047B704700093D0000127A00001BB700D0
S21440120080B500AF0620054B9847024613469B0024
S21440121013449A001344184680BD00BF8D11400009
S21440122080B500AF024B984703465B08184680BD22
S2144012300112400080B483B000AF78607B688022A3
S2144012401A6000BF0C37BD465DF8047B704780B41B
S21440125083B000AF78607B685B6843F001027B68D0
S2144012605A6000BF0C37BD465DF8047B704780B4BB
S21440127083B000AF78607B685B6823F002027B68CF
S2144012805A6000BF0C37BD465DF8047B704780B49B
S21440129083B000AF78607B685B6823F004027B68AD
S2144012A05A6000BF0C37BD465DF8047B704780B47B
S2144012B083B000AF78607B685B6803F00403002B64
S2144012C001D0012300E0002318460C37BD465DF8E8
S2144012D0047B704780B483B000AF78607B685B68FF
S2144012E043F010027B685A6000BF0C37BD465DF87D
S2144012F0047B704780B483B000AF78607B685B68DF
S21440130023F080027B685A6000BF0C37BD465DF80C
S214401310047B704780B483B000AF78600B467B8018
S2144013207A887B68DA6000BF0C37BD465DF8047B80
S214401330704780B483B000AF78607B689B689BB290
S21440134018460C37BD465DF8047B704780B483B0C2
S21440135000AF78607B681B6903F00203002B01D066
S214401360012300E0002318460C37BD465DF8047B99
S214401370704780B483B000AF78607B681A6940F2EB
S2144013800123134040F20122934201D1012300E0A1
S214401390002318460C37BD465DF8047B70470000B6
S2144013A080B582B000AF78600B46FB70FB789BB28E
S2144013B019467868024B984700BF0837BD4680BD3F
S2144013C01513400080B582B000AF78603960786809
S2144013D0044B98470346DAB23B681A7000BF08379A
S2144013E0BD4680BD3313400080B582B000AF786004
S2144013F07868104B984778680F4B984778680F4B3B
S214401400984778680E4B984778680E4B9847002167
S21440141078680D4B984778680C4B984778680C4B23
S2144014209847002178680B4B984700BF0837BD4661
S21440143080BD00BFAD384000351240004F1240001E
S214401440D5124000F5124000E93840006F124000C7
S2144014508F1240001D39400090B587B000AFF8604D
S214401460B9603B601346FB71204B984703461946CC
S21440147038681F4B98470346FB82BB6819680023B1
S2144014800022F8681B4CA047BB681B680822194618
S214401490F868194B9847BB681B68FA8AD2B2194657
S2144014A0F868164B9847BB681B6808221946F868C8
S2144014B0134B9847BB681968FB795B08DBB21A4642
S2144014C0F868104B9847BB681968FB7903F001032E
S2144014D0002B0CBF01230023DBB21A46F8680A4BE8
S2144014E0984700BF1C37BD4690BD00BF2112400044
S2144014F05D3B4000F73B4000133B4000993B4000BB
S2144015006D3A4000CD3940001D3A400080B582B06B
S21440151000AF786039607868104B98470346002BD8
S2144015200AD03B681B680F2B14D83B681B681946CB
S21440153078680B4B98470DE03B681B68032B09D82F
S2144015403B681B68012202FA03F3DB4319467868BE
S214401550034B984700BF0837BD4680BDAF124000DA
S214401560E938400080B588B000AFF860B9607A606E
S21440157043F69823FB610023BB6121E043F69823A2
S214401580FB6107E0FB695A1EFA61002B02D16FF03F
S214401590020319E0F8680E4B98470346002BF1D03B
S2144015A0BA68BB6913441B78FB75FB7D1946F8681F
S2144015B0084B9847BB690133BB617B68013B7B6046
S2144015C07B68002BDAD1002318462037BD4680BD05
S2144015D04D134000A113400080B588B000AFF860BE
S2144015E0B9607A6043F69823FB610023BB6138E01C
S2144015F043F69823FB6107E0FB695A1EFA61002B0D
S21440160002D16FF0020330E0F8681A4B9847034661
S214401610002BF1D0FF21F868174B984743F69823E4
S214401620FB6107E0FB695A1EFA61002B02D16FF09E
S21440163002031AE0F868114B98470346002BF1D096
S21440164007F117031946F8680D4B9847BA68BB6907
S2144016501344FA7D1A70BB690133BB617B68013B5A
S2144016607B607B68002BC3D1002318462037BD46DD
S21440167080BD00BF4D134000A113400073134000CF
S214401680C513400080B586B000AFF860B9607A6098
S21440169000237B61FB68002B12D04FF0FF3313E032
S2144016A00B4B1B680B4A1268B96810469847BB68D4
S2144016B00133BB607B6901337B617B68013B7B60A8
S2144016C07B68002BECDC7B6918461837BD4680BD2E
S2144016D06C0E4020740E402080B586B000AFF86097
S2144016E0B9607A6000237B61FB68012B1ED0FB68E3
S2144016F0022B1BD0FB68032B18D04FF0FF3319E0AA
S2144017000E4B1A680E4B1868BB68591CB9601B789C
S214401710194690470346002B02DA4FF0FF3309E0A4
S2144017207B6901337B617B68013B7B607B68002B78
S214401730E6D17B6918461837BD4680BD700E4020FE
S214401740740E402080B400AFBFF34F8FBFF36F8F4F
S214401750094B0022C3F85022074A074B5B6943F403
S21440176000335361BFF34F8FBFF36F8F00BFBD464B
S2144017705DF8047B704700BF00ED00E080B48BB09E
S21440178000AF264BD3F88030FB61FB695B0BC3F39D
S2144017900E037B62FB6903F007030433BB61FB69FE
S2144017A0DB08C3F309037B617B69BB60BB68B3FAA4
S2144017B083F37B607B68DBB203F01F033B61BFF3C0
S2144017C04F8F7B693B623A6A3B6902FA03F31946DC
S2144017D07A6ABB6902FA03F30B43FB600F4AFB6865
S2144017E0C2F860323B6A5A1E3A62002BEBD17B6AE3
S2144017F05A1E7A62002BE4D1BFF34F8F074A074B3D
S2144018005B6943F480335361BFF34F8FBFF36F8FF1
S21440181000BF2C37BD465DF8047B704700ED00E006
S21440182080B582B000AF78607868034B984700BFB9
S2144018300837BD4680BD00BFE537400080B500AFE5
S2144018400A20084B98470B20064B98470C20054B20
S21440185098471020034B98471120024B984700BFEB
S21440186080BD00BF2118400080B489B000AF7860CA
S2144018707B68FB61FB69BB61BB695A09FB697B619D
S2144018807B6903F01F03012101FA03F33A61FB6011
S2144018903B69BB60BA68064B13445B021A46FB685A
S2144018A0536000BF2437BD465DF8047B704700BFD9
S2144018B00707200080B48DB000AF786039607B6841
S2144018C0FB623B68BB62FB6A7B627B6A5A09FB6AC7
S2144018D03B623B6A03F01F03012101FA03F3FA61FE
S2144018E0BB61BB6A7B61FB693B613A69374B13441A
S2144018F05B02FB607B6903F00803002B03D0FB68A8
S214401900BA695A6602E0FB68BA691A667B6903F0F0
S2144019101003002B04D0FB68BA69C3F8942003E098
S214401920FB68BA69C3F890207B6903F02003002B5C
S21440193003D0FB68BA691A6502E0FB68BA695A6563
S2144019407B6903F0C003002B03D0FB68BA691A62B8
S21440195002E0FB68BA695A627B6903F08003002B99
S21440196004D0FB68BA69C3F8842003E0FB68BA6910
S214401970C3F880207B6903F00103002B06D0FB6888
S2144019801A6FBB691A43FB681A6706E0FB681A6F52
S214401990BB69DB431A40FB681A677B6903F00203A6
S2144019A0002B06D0FB685A6FBB691A43FB685A6720
S2144019B006E0FB685A6FBB69DB431A40FB685A6710
S2144019C000BF3437BD465DF8047B704707072000EC
S2144019D080B48DB000AF78600B46FB707B68FB62CE
S2144019E0FB7887F82B30FB6A7B627B6A3B623B6AFC
S2144019F05B09FB61FA69174B13445B02BB6197F8BE
S214401A002B30012B09D1FB6A7B617B6903F01F03F6
S214401A1001229A40BB691A610CE097F82B30002BE4
S214401A2008D1FB6A3B613B6903F01F0301229A40E1
S214401A30BB695A61FB6AFB60FB6803F01F03012227
S214401A409A40BB69C3F8A02000BF3437BD465DF856
S214401A50047B70470707200080B48BB000AF7860E7
S214401A600B46FB707B687B62FB7887F823307B6A8B
S214401A70FB61FB69BB61BB695B097B617A69104BA3
S214401A8013445B023B6197F82330002B09D07B6AF6
S214401A90FB60FB6803F01F0301229A403B691A6310
S214401AA008E07B6ABB60BB6803F01F0301229A40D4
S214401AB03B695A6300BF2C37BD465DF8047B7047D0
S214401AC00707200080B48DB000AF78600B46FB70EF
S214401AD07B68FB62FB7887F82B30FB6A7B627B6A0D
S214401AE05A09FB6A3B623B6A03F01F03012101FA75
S214401AF003F3FA61BB6197F82B30FB75FB693B61DA
S214401B003A69234B13445B02FB60FB7D013B032B8E
S214401B102ED801A252F823F04D1B40005F1B400018
S214401B20291B40003B1B4000FB68BA69C3F8C42031
S214401B30FB68BA69C3F8D0201FE0FB68BA69C3F8EF
S214401B40C420FB68BA69C3F8D42016E0FB68BA69BB
S214401B50C3F8C020FB68BA69C3F8D0200DE0FB6824
S214401B60BA69C3F8C020FB68BA69C3F8D42004E059
S214401B70FB68BA69C3F8B42003E0FB68BA69C3F8E7
S214401B80B02000BF3437BD465DF8047B704700BFC9
S214401B900707200080B400AFBFF34F8FBFF36F8FAF
S214401BA00C4A0C4BD3F8903223F00103C2F8903223
S214401BB0084A084BD3F8943223F00103C2F8943213
S214401BC0BFF34F8FBFF36F8F00BFBD465DF8047BFA
S214401BD0704700BF00ED00E098B500AF574B4FF49C
S214401BE000425A60564B9847564B9847564B574A72
S214401BF05A60554B564A5A60564B9847564B9847EC
S214401C0001214820554B984701214820544B98477E
S214401C1000210B20514B984788210B20514B984769
S214401C2002210B20504B9847002115204D4B9847DA
S214401C3015204E4B98474E4A4D4BD3F8143143F03F
S214401C401003C2F8143103212420464B9847242021
S214401C50464B984700234FF400524FF0605145489A
S214401C60454CA04700234FF080424FF0605141481A
S214401C70414CA0470123FF224FF000613D483E4CB7
S214401C80A04701233F224FF000613C483A4CA04712
S214401C9001234FF4C0324FF000613948364CA0471C
S214401CA001234FF480724FF000613248324CA04717
S214401CB001234FF400624FF000612E482E4CA0479F
S214401CC001234FF400224FF000612E482A4CA047D3
S214401CD000234FF400724FF080512648264CA04710
S214401CE04FF400712348284B98474FF0805174209A
S214401CF0264B98474FF080517520244B98474FF01D
S214401D0080517620214B98474FF080517B201F4BC7
S214401D1098474FF0605118201C4B98474FF0605141
S214401D2006201A4B98474FF060515320174B984760
S214401D305320174B984700BF98BD00BF50180E4021
S214401D40451740007D174000000C0E400C08005A16
S214401D500C07005A951B40003D184000D119400022
S214401D60591A4000B5184000C51A4000691840008E
S214401D700080084000120E40A530400000160E407D
S214401D80000E0E4000140E40952E40001D324000BE
S214401D90BD31400080B483B000AF78607B680122DC
S214401DA01A6000BF0C37BD465DF8047B704780B4B0
S214401DB083B000AF786039607B683A685A6100BF8C
S214401DC00C37BD465DF8047B7047000090B583B085
S214401DD000AF06200A4B9847002303222C210948CF
S214401DE0094CA04700237B6002E07B6801337B60A0
S214401DF07B68FE2BF9D900BF0C37BD4690BD00BFAF
S214401E00ED314000008000404D39400080B584B040
S214401E1000AF786039600620094B98473A68796881
S214401E200848094B98470023FB6002E0FB680133F3
S214401E30FB60FB68FE2BF9D900BF1037BD4680BD5E
S214401E40BD314000008000406515400090B587B029
S214401E5000AF0346B9607A60FB730620144B984780
S214401E60FB7B99B2002303221248134CA047002361
S214401E707B6102E07B6901337B617B69FE2BF9D98C
S214401E807B68002B10D006200C4B98477A68B968C0
S214401E9008480B4B984700237B6102E07B6901337F
S214401EA07B617B695E2BF9D900BF1C37BD4690BD70
S214401EB0ED314000008000404D394000BD314000CB
S214401EC06515400080B584B000AF0023BB60812319
S214401ED0BB7000237B700323FB6048E0BB1C0122E1
S214401EE01946FB20264B9847BB780133DBB2BB70C4
S214401EF000237B6002E07B6801337B607B68FE2BBF
S214401F00F9D900220021D3201D4B984706201D4BAF
S214401F109847FB1C012219461B481C4B9847002338
S214401F207B6002E07B6801337B607B68FE2BF9D9DF
S214401F30FB781A46FB68013BDB0002FA03F31A46BD
S214401F40BB681343BB607B1C01221946FB200C4B2D
S214401F50984700237B6002E07B6801337B607B68A8
S214401F6040F6FE729342F7D9FB68013BFB60FB6884
S214401F70002BB3D1BB6818461037BD4680BD00BFA6
S214401F804D1E4000BD31400000800040D915400045
S214401F9080B485B000AF78600023FB600CE000237F
S214401FA0FB6002E0FB680133FB60FB68074A934234
S214401FB0F8D9FB680133FB60FA687B689A42EED337
S214401FC000BF1437BD465DF8047B70479F8601000E
S214401FD080B487B000AFF860B9607A603B60FB6859
S214401FE01B68B3F5A07F03D3FB6840F23F121A602C
S214401FF07B681B68B3F5A07F03D37B6840F23F1233
S2144020001A60BB681B68B3F5F07F03D3BB6840F229
S214402010DF121A603B681B68B3F5F07F03D33B685A
S21440202040F2DF121A60FB681A687B681B689A42A7
S21440203009D9FB681B687B617B681A68FB681A6075
S2144020407B687A691A60BB681A683B681B689A4264
S21440205009D9BB681B687B613B681A68BB681A6015
S2144020603B687A691A6000BF1C37BD465DF8047B42
S2144020707047000080B584B000AF0346FB71FB7923
S214402080002B02D0E823FB7301E04823FB7307F1E3
S2144020900F03012219463620024B984700BF1037DF
S2144020A0BD4680BD4D1E400090B587B000AF04468B
S2144020B0084611461A462346FB800346BB800B461D
S2144020C07B8013463B8000237B6104237B61FB8837
S2144020D07B827A88FB8813449BB2013B9BB23B824F
S2144020E0BB88FB813A88BB8813449BB2013B9BB2BA
S2144020F0BB8107F112035B783B7207F112031B7832
S2144021007B7207F110035B78BB7207F110031B78F4
S214402110FB7207F108037A6919462A20134B984741
S214402120002200210020114B984707F10E035B78F0
S2144021303B7207F10E031B787B7207F10C035B784A
S214402140BB7207F10C031B78FB7207F108037A6930
S21440215019462B20054B9847002200210020034BB0
S214402160984700BF1C37BD4690BD00BF4D1E40007F
S21440217090B589B002AF78600323FB604348444B78
S214402180984707F10C0100230093424B03223F4837
S214402190414CA047002203213C48404B984707F15A
S2144021A00C03194639483E4B984738483D4B9847AC
S2144021B0012136483C4B98470022002101203B4BEA
S2144021C09847C8203A4B9847002200211120374BA9
S2144021D09847C820364B9847364B984778617B6976
S2144021E049F28842934201D001234AE04823FB74D7
S2144021F007F113030122194636202C4B98476420DA
S2144022002B4B98470423FB7407F11303012219460E
S214402210CF20264B98476420254B98470623FB74CF
S21440222007F11303012219463A20204B98476420B1
S2144022301F4B98470022002113201C4B98476420D0
S2144022401B4B98471C4B98476420194B98470020D7
S2144022501A4B98476420164B98477B681B689AB27F
S2144022607B685B689BB200210020154CA0477B68CA
S2144022709B681846134B984700210020124B9847FE
S214402280002318461C37BD4690BD00BF0080004066
S214402290E9134000002D3101591440006D3A4000CA
S2144022A00D154000951D4000AF1D40004D1E4000DE
S2144022B0911F4000C51E4000CD22400075204000C2
S2144022C0A9204000E52240003923400080B500AFF9
S2144022D0002200212920024B984700BF80BD00BF46
S2144022E04D1E400080B485B000AF78600023FB6090
S2144022F016E0FB685A1CFA607A68120CD1B20D4A96
S214402300D154FB685A1CFA607A68120AD1B2094A5C
S214402310D154FB685A1CFA607A68D1B2054AD15447
S214402320FB68B3F5707FE4D300BF1437BD465DF855
S214402330047B7047E809402080B584B000AF034670
S2144023400A46FB801346BB800023FB600423FB60E9
S214402350BB1D5B783B72BB1D1B787B72BB1D5B78DD
S214402360BB72BB1D1B78FB7207F10803FA6819465F
S2144023702A20114B98470022002100200E4B9847F8
S2144023803B1D5B783B723B1D1B787B723B1D5B782D
S214402390BB723B1D1B78FB7207F10803FA681946AF
S2144023A02B20054B9847002200210020024B9847DF
S2144023B000BF1037BD4680BD4D1E400080B582B080
S2144023C000AF786039607B68B3F5A07F03D23B6886
S2144023D0B3F5F07F01D301230EE07B689BB23A68E9
S2144023E092B211461846064B9847064B984703212B
S2144023F00548064B9847002318460837BD4680BD1B
S21440240039234000CD1D4000E80940200D1E400005
S21440241090B587B000AFF860B9607A603B603B46E5
S2144024203A1D07F1080107F10C002A4CA047FB684B
S21440243098B2BB6899B27B689AB2FB689BB2D31AD3
S2144024409BB201339CB23B689AB2BB689BB2D31A2C
S2144024509BB201339BB222461F4CA0471F4B984766
S2144024607A68FB68D31A01333968BA688A1A013227
S21440247002FB03F33B613B69194AA2FB03231B0A99
S2144024807B6104E04FF470711648174B98477B69A0
S2144024905A1E7A61002BF5D13969114BA3FB0123F3
S2144024A01A0A13469B0013449B01CA1A13465B0044
S2144024B0134419460B480C4B98474FF4F0734FF4AF
S2144024C0A07200210020044CA04700BF1C37BD4628
S2144024D090BD00BFD11F4000A9204000CD1D400048
S2144024E0CDCCCCCCE80940200D1E400080B58AB04B
S2144024F000AFF860B9601346FB71FA7913469B004B
S21440250013449B00A3F52073FB6100233B624BE022
S2144025103B6A5A00FB691344BB61BB6901337B616C
S21440252000237B6219E0244ABB6913441B781A4691
S2144025307B6AC3F1070342FA03F303F00103002B5F
S21440254008D0FA683B6AD018BA687B6A13441946C2
S2144025501A4B98477B6A01337B627B6A072BE2D92A
S21440256000237B621AE0144A7B6913441B781A46A0
S2144025707B6AC3F1070342FA03F303F00103002B1F
S21440258009D0FA683B6AD018BA687B6A13440833A5
S21440259019460A4B98477B6A01337B627B6A052B58
S2144025A0E1D93B6A01333B623B6A092BB0D900BF95
S2144025B02837BD4680BD00BFEC754200BD234000B5
S2144025C080B586B000AFF860B9607A60FB687B6122
S2144025D01CE07B681B780A2B08D10E231A46BB6882
S2144025E013440233BB607B69FB600CE07B681B785E
S2144025F01A46B968F868094B98470A231A46FB6892
S21440260013440233FB607B6801337B607B681B7836
S214402610002BDED100BF1837BD4680BDED244000FC
S21440262090B58BB000AFF860B9607A603B60FB68ED
S2144026303B62BB68FB61FA687B681344013BBB6145
S214402640BA683B681344013B7B6107F1140307F10A
S214402650180207F11C0107F120001B4CA0473B6AFB
S21440266098B2FB6999B2BB699AB23B6A9BB2D31ADD
S2144026709BB201339CB27B699AB2FB699BB2D31A78
S2144026809BB201339BB22246104CA047BA693B6AC4
S214402690D31A7969FA698A1A02FB03F37B627A6A6B
S2144026A013465B0013441A46B96B2C20084B9847D8
S2144026B04FF4F0734FF4A07200210020034CA04763
S2144026C000BF2C37BD4690BDD11F4000A92040001A
S2144026D04D1E400080B483B000AF0346FB710949ED
S2144026E097F907305B09FA7902F01F02012000FAD9
S2144026F002F241F8232000BF0C37BD465DF8047B4C
S214402700704700BF00E100E080B483B000AF0346EE
S214402710FB71094997F907305B09FA7902F01F0205
S214402720012000FA02F2603341F8232000BF0C3744
S214402730BD465DF8047B704700E100E080B483B09E
S21440274000AF03463960FB7197F90730002B0BDA70
S2144027500D49FB7903F00F03043B3A68D2B25201AD
S214402760D2B20B441A7609E0084997F907303A681E
S214402770D2B25201D2B20B4483F8002300BF0C37CA
S214402780BD465DF8047B704700ED00E000E100E0E8
S21440279080B483B000AFEFF310837B607B68002B80
S2144027A00CBF01230023DBB23B6072B6BFF35F8FE2
S2144027B0044B00221A703B6818460C37BD465DF83D
S2144027C0047B70470A00402080B483B000AF786036
S2144027D07B68002B14BF01230023DBB218460C375E
S2144027E0BD465DF8047B704780B582B000AF786028
S2144027F07868074B98470346002B05D0054B0122C7
S2144028001A70BFF35F8F62B600BF0837BD4680BD03
S214402810C92740000A00402080B483B000AF7860EB
S2144028200B467B8000BF0C37BD465DF8047B704787
S21440283080B483B000AF78607B681B6B18460C375B
S214402840BD465DF8047B704780B483B000AF7860C7
S2144028507B68DB6A18460C37BD465DF8047B7047DC
S21440286080B584B000AF0346FB71FB790A4AD35C5F
S214402870FF2B00D1FEE7094B9847F860FB79064AE4
S214402880D25C0132D1B2044AD154F868044B98471E
S21440289000BF1037BD4680BD640E402091274000E3
S2144028A0E927400080B483B000AF78607B68072B90
S2144028B025D801A252F823F0D9284000DF2840004E
S2144028C0E5284000EB284000EF284000F328400071
S2144028D0F7284000FB2840004FF4FA4310E04FF43E
S2144028E000430DE04FF400430AE0084B08E0084B75
S2144028F006E0084B04E0074B02E0064B00E00023EE
S21440290018460C37BD465DF8047B704700093D000D
S21440291000127A00001BB70080B500AF0620054BBA
S2144029209847024613469B0013449A0013441846A1
S21440293080BD00BFA528400080B500AF024B984739
S2144029400346184680BD00BF1929400080B483B0B6
S21440295000AF78607B68094A934201D1012306E0C4
S2144029607B68074A934201D1002300E000231846C3
S2144029700C37BD465DF8047B704700BF00400640FC
S21440298000C0034080B483B000AF78607B68094ADB
S214402990934201D1282306E07B68074A934201D13F
S2144029A01D2300E01D2318460C37BD465DF8047B0A
S2144029B0704700BF0040064000C0034080B485B06A
S2144029C000AF786039600023FB603B68DB7C002BFF
S2144029D002D04FF0004200E000223B6859683B6856
S2144029E09B68B1FBF3F3013B1B029BB21A433B6867
S2144029F01B7C1B0603F070631A433B685B7C1B071B
S214402A0003F040531A433B68DB68134343F4000328
S214402A10FB607B68FA685A603B681B7D002B02D0DF
S214402A204FF0807200E000223B681B681A433B6808
S214402A305B7D002B02D04FF0007300E000231A436A
S214402A407B689A603B689B7D1B0203F4407343F0AF
S214402A500C027B68C3F8942000BF1437BD465DF86F
S214402A60047B704780B586B000AFF8600B467A604E
S214402A707B817B891946F8681E4B984700237B610B
S214402A80FB681B6E7B617B89012202FA03F3DB4302
S214402A907A6913407B617B681B78002B04D07B8966
S214402AA0012202FA03F300E000237A6913437B61B4
S214402AB0FB687A691A66FB685B6D7B617B895B00A5
S214402AC0032202FA03F3DB437A6913407B617B6897
S214402AD05B781A467B895B0002FA03F31A467B69E9
S214402AE013437B61FB687A695A6500BF1837BD4659
S214402AF080BD00BF1928400080B582B000AF786026
S214402B007B6800221A60124B984702467B685A60E0
S214402B107B68104A9A607B684FF48022DA607B6854
S214402B2002221A747B6801225A747B6801229A74C6
S214402B307B680022DA747B6801221A757B68012262
S214402B405A757B6801229A7500BF0837BD4680BD1E
S214402B5039294000808D5B0080B483B000AF786038
S214402B607B6800221A707B6801225A7000BF0C37BF
S214402B70BD465DF8047B704780B584B000AF786092
S214402B80396078681D4B9847034603F08073B3F16D
S214402B90807F01D119232CE07B6801221A603968B6
S214402BA07868174B98477B68164A93420DD10023A6
S214402BB0FB6007E0144AFB68002142F82310FB68DC
S214402BC00133FB60FB680F2BF4D97B680F4A9342B6
S214402BD00ED10023FB6008E00B4AFB68103300214F
S214402BE042F82310FB680133FB60FB680F2BF3D9D8
S214402BF0002318461037BD4680BD00BF3128400030
S214402C00BD29400000C00340780E402000400640EA
S214402C1080B586B000AFF860B9607A60FB70F8683F
S214402C20174B9847786117497B691A01BB6813446C
S214402C307A6841F823207B69002B0BD11D20124B6C
S214402C409847FB7819461D20104B98471D20104B7F
S214402C5098470DE07B69012B0AD128200A4B9847FC
S214402C60FB7819462820094B98472820084B984758
S214402C70B968F868074B984700BF1837BD4680BD0F
S214402C804D294000780E4020092740003D2740004F
S214402C90D5264000992C400080B483B000AF7860C1
S214402CA039603B68194A934203D17B68174A5A6297
S214402CB026E03B680B2B0FD83B680B2B04D17B6878
S214402CC04FF400625A621BE001223B6802FA03F3AB
S214402CD01A467B685A6213E03B680E2B08D83B685E
S214402CE00C33012202FA03F31A467B685A6207E065
S214402CF03B680F33012202FA03F31A467B685A6296
S214402D000C37BD465DF8047B704700BFFF0F004799
S214402D1080B582B000AF03463960FB71FB790A4943
S214402D201A013B68134451F82330002B07D0FB7937
S214402D3005491A013B68134451F82330984700BFB1
S214402D400837BD4680BD00BF780E402090B587B09E
S214402D5000AF78607868284B984704467868274BD9
S214402D60984703462340FB607868254B9847386170
S214402D7000237B6139E07B690B2B0FD801227B69EE
S214402D8002FA03F31A46FB681340002B2AD03B692D
S214402D90DBB2796918461B4B984723E07B690E2BBC
S214402DA010D87B690C33012202FA03F31A46FB68FB
S214402DB01340002B16D03B69DBB279691846114B9D
S214402DC098470FE07B690F33012202FA03F31A4655
S214402DD0FB681340002B05D03B69DBB27969184687
S214402DE0084B98477B6901337B617B690F2BC2D9BF
S214402DF000BF1C37BD4690BD3128400049284000E2
S214402E004D294000112D400080B500AF0248034BCD
S214402E10984700BF80BD00BF00C003404D2D400016
S214402E2080B500AF0248034B984700BF80BD00BF47
S214402E30004006404D2D400080B584B000AF78601D
S214402E407868064B9847F860F868054B9847022024
S214402E50044B984700BF1037BD4680BD85294000CB
S214402E60E53740006128400080B485B000AFF86088
S214402E70B9607A607B68002B03D0FB68BA685A66F4
S214402E8002E0FB68BA681A6600BF1437BD465DF8B4
S214402E90047B704780B483B000AF786039607B684D
S214402EA03A681A6300BF0C37BD465DF8047B70472E
S214402EB080B487B000AFF860B9607A60FB687A6823
S214402EC05A64BB68B3F1C05F4AD0B3F1C05F08D85C
S214402ED0B3F1006F16D0B3F1805F2CD0002B69D0D1
S214402EE064E0B3F1205F65D0B3F1205F03D8B3F15F
S214402EF0005F4AD05AE0B3F1405F5BD0B3F1605F09
S214402F0058D053E0FB681B6F7B61FB681A6F7B6889
S214402F10D9437B690B401A40FB681A67FB685B6FB6
S214402F207B61FB685A6F7B68D9437B690B401A40CC
S214402F30FB685A673AE0FB681B6F7B617A687B697F
S214402F401A43FB681A67FB685B6F7B61FB685A6FC6
S214402F507B68D9437B690B401A40FB685A6725E07B
S214402F60FB681B6F7B61FB681A6F7B68D9437B6984
S214402F700B401A40FB681A67FB685B6F7B617A6898
S214402F807B691A43FB685A6710E0FB681B6F7B61DE
S214402F907A687B691A43FB681A67FB685B6F7B61DC
S214402FA07A687B691A43FB685A6700BFFB687A6891
S214402FB05A6000E000BF1C37BD465DF8047B704792
S214402FC080B584B000AFF860B9607A60B968F868D8
S214402FD0194B98477B6803F001031A46B968F868AE
S214402FE0164B98477B6803F00A03002B03D0FB6818
S214402FF0BA681A6202E0FB68BA685A627B6803F0F5
S2144030000203002B04D0FB68BA68C3F8802008E0AF
S2144030107B6803F00803002B03D0FB68BA68C3F84C
S2144030208420FB68BA685A61FB68BA681A6000BFB9
S2144030301037BD4680BD00BF71314000692E40004C
S21440304080B584B000AFF860B9607A603B60B9681C
S214403050F868124B9847BA69B968F868104B9847B1
S2144030603B68002B03D0FB68BA681A6502E0FB6831
S214403070BA685A657B68002B03D0FB68BA681A6347
S21440308002E0FB68BA685A63FB68BA681A61FB6874
S214403090BA681A6000BF1037BD4680BD7131400027
S2144030A0692E400090B587B002AFF860B9607A608C
S2144030B03B60BB68B3F1005F16D0B3F1005F09D840
S2144030C0B3F1805F10D0B3F1C05F0DD0B3F1006FA5
S2144030D00AD03DE0B3F1405F1AD0B3F1605F17D03D
S2144030E0B3F1205F0ED033E07A68B968F8681C4BBD
S2144030F098473B6803F001031A467968F868194B0D
S214403100984727E03A687968F868174B984721E06F
S214403110BB68B3F1605F0CBF01230023DBB21A46E5
S2144031203B6803F00403002B14BF01230023DBB2EB
S21440313019463B6803F00103002B14BF012300230C
S214403140DBB200930B467968F868084CA04701E06C
S214403150002300E0012318461437BD4690BD00BF4B
S214403160B12E4000692E4000C12F40004130400043
S21440317080B483B000AF786039607B683A685A6440
S21440318000BF0C37BD465DF8047B704780B483B003
S21440319000AF78607B68DB6C18460C37BD465DF840
S2144031A0047B704780B483B000AF78607B689B6CCC
S2144031B018460C37BD465DF8047B704780B584B032
S2144031C000AF78607868084B9847F8607B6803F0F3
S2144031D01F03012202FA03F31A46FB681A6300BF74
S2144031E01037BD4680BD00BFCD33400080B584B0AB
S2144031F000AF78607868084B9847F8607B6803F0C3
S2144032001F03012202FA03F31A46FB685A6300BF03
S2144032101037BD4680BD00BFCD33400090B587B067
S21440322002AF786039607868634B9847F8603B68CF
S21440323003F0F043B3F1005F67D0B3F1005F09D805
S214403240B3F1805F2BD0B3F1C05F43D0B3F1006FD2
S2144032500AD0A9E0B3F1405F7ED0B3F1605F7BD087
S214403260B3F1205F6CD09FE07B6803F01F03012220
S21440327002FA03F31A464FF00061F8684F4B98473E
S2144032807B6803F01F03012202FA03F319463B68EA
S21440329003F001031A46F868494B984786E07B6876
S2144032A003F01F03012202FA03F31A464FF080513F
S2144032B0F868424B98477B6803F01F03012202FAE6
S2144032C003F319463B6803F001031A46F8683C4B83
S2144032D098476BE07B6803F01F03012202FA03F372
S2144032E01A464FF0C051F868344B98477B6803F055
S2144032F01F03012202FA03F319463B6803F0010359
S2144033001A46F8682E4B984750E07B6803F01F0338
S214403310012202FA03F31A464FF00051F868274B91
S21440332098477B6803F01F03012202FA03F319460D
S2144033303B6803F001031A46F868214B984735E08E
S2144033407B6803F01F03012202FA03F33A6819462A
S214403350F8681C4B984729E07B6803F01F0301225E
S21440336002FA03F319463B6803F06053B3F1605F1B
S2144033700CBF01230023DBB21A463B6803F004036C
S214403380002B14BF01230023DBB218463B6803F032
S2144033900103002B14BF01230023DBB20093034636
S2144033A0F868094CA04701E0002300E001231846D6
S2144033B01437BD4690BD00BFCD334000B12E40000F
S2144033C0692E4000C12F40004130400080B485B097
S2144033D000AF78607B685A09054B13445B02FB607C
S2144033E0FB6818461437BD465DF8047B704700BF3F
S2144033F00707200080B584B000AF786039607868F1
S214403400264B9847F8607868254B98470246FB68F5
S2144034101340FB60FB68002B3CD00023BB6034E0CD
S214403420204ABB681B0113441A683B689A4226D15F
S2144034301C4ABB681B01134404331A68FB681340DC
S214403440002B1CD0174ABB681B0113440C331B6867
S2144034501449BA6812010A4410681249BA6812013F
S2144034600A4404321268114698470E4ABB681B014C
S214403470134404331B68DB43FA681340FB60BB68A5
S2144034800133BB60BB68062B03D8FB68002BC7D153
S21440349000E000BF00BF1037BD4680BD8D31400004
S2144034A0A5314000A80D402080B500AF0A21024853
S2144034B0024B984700BF80BD000E0E40F5334000DB
S2144034C080B500AF0B210248024B984700BF80BD35
S2144034D000100E40F533400080B500AF0C21024886
S2144034E0024B984700BF80BD00120E40F5334000A7
S2144034F080B500AF10210248024B984700BF80BD00
S21440350000140E40F533400080B500AF112102484C
S214403510024B984700BF80BD00160E40F533400072
S21440352080B483B000AF78607B68013B032B1AD829
S21440353001A252F823F000BF493540004F35400005
S214403540573540005F35400000237B600EE04FF467
S21440355080737B600AE04FF440737B6006E04FF474
S21440356000737B6002E000237B6000BF0A490A4B81
S2144035701B6B23F440727B6813430B6300BF064B00
S2144035809B6E03F00803002BF9D000BF0C37BD46F6
S2144035905DF8047B704700BF00060E4080B485B0DF
S2144035A000AF78601D491D4B1B6B23F070027B6893
S2144035B013430B634FF48053FB6007E0FB68002B1C
S2144035C001D1012323E0FB68013BFB60134B9B6E5C
S2144035D003F00803002BF1D0104A104B1B6B23F06E
S2144035E0030343F0020313634FF48053FB6007E08A
S2144035F0FB68002B01D1012309E0FB68013BFB601F
S214403600064B9B6E03F00803002BF1D000231846B0
S2144036101437BD465DF8047B704700BF00060E4079
S21440362080B483B000AF78607B68012B05D1074932
S214403630064B9A68064B13438B60044B054A1A6048
S21440364000BF0C37BD465DF8047B704710180E402F
S214403650000010A5080000A580B400AF094B5B69C8
S21440366003F08003002B07D0074B9B6E03F08003CC
S214403670002B01D0012300E000231846BD465DF82C
S214403680047B704710180E4000060E4080B483B08E
S21440369000AF78601549154B1A6A154B13430B62F9
S2144036A000BF124B9B6E03F40033002BF9D00F493A
S2144036B00E4B1A6A0F4B13407A68134343F45C135D
S2144036C00B6200BF094B9B6E03F40033002BF9D00E
S2144036D00649064B1A6A084B134043F45C130B62C8
S2144036E000BF0C37BD465DF8047B704700060E40B1
S2144036F0080037008FFFC8FFFFFFC8FE80B483B0C6
S21440370000AF786039607B68002B08D01349134BB4
S2144037101B6A134A1A40134B13430B6218E00F49B7
S2144037200E4B1A6A104B13403A68120292B21A4372
S2144037300E4B13430B6200BF084B9B6E03F0010316
S214403740002BF9D00549054B1A6A094B13430B6207
S21440375000BF0C37BD465DF8047B704700060E4040
S214403760FCFFC8FE02003701FCFFC8FF010037001F
S2144037700000370180B400AF044B9B6E03F48033E7
S2144037801846BD465DF8047B704700BF00060E40F5
S21440379080B400AF044B4FF000529A6200BFBD4663
S2144037A05DF8047B704700BF00060E4080B400AF53
S2144037B0044B9B6E03F002031846BD465DF8047B3F
S2144037C0704700BF00060E4080B400AF044B9B6EAF
S2144037D003F040031846BD465DF8047B704700BFC3
S2144037E000060E4080B483B000AF78607B683F2B05
S2144037F001D901232FE07B681F2B13D8194B9A69F8
S21440380001217B6801FA03F31A4001217B6801FA23
S21440381003F39A421ED0134A01217B6801FA03F350
S214403820136117E07B68203B7B600E4BD3F8082182
S21440383001217B6801FA03F31A4001217B6801FAF3
S21440384003F39A4206D0074A01217B6801FA03F344
S214403850C2F80031002318460C37BD465DF8047B9D
S214403860704700BF00060E4080B483B000AF78605B
S2144038707B685B6803F00203002B01D0012300E065
S214403880002318460C37BD465DF8047B70470000A1
S21440389080B582B000AF78607868034B984700BF29
S2144038A00837BD4680BD00BFE537400080B582B0D2
S2144038B000AF78607B68094A934203D11520084BD5
S2144038C0984706E07B68074A934202D12A20044B79
S2144038D0984700BF0837BD4680BD00BF0080004007
S2144038E0913840000080054080B483B000AF7860D7
S2144038F039607B685B6823F470227B685A607B681B
S2144039005A683B681B0403F470231A437B685A606A
S21440391000BF0C37BD465DF8047B704780B483B06B
S21440392000AF786039607B685B6823F07F427B68D5
S2144039305A607B685A683B681B061A437B685A6025
S21440394000BF0C37BD465DF8047B704780B584B039
S21440395000AF7860084611461A4603467B800B4601
S2144039607B7013463B7043F69823FB6006E0FB688B
S2144039705A1EFA60002B01D1012320E07B681B69A8
S21440398003F00203002BF2D078680F4B98470346AB
S214403990002B0ED07A887B781B0403F470231343E5
S2144039A0BB603B78002B06D0BB6843F08073BB609F
S2144039B001E07B88BB607B68BA68DA600023184603
S2144039C01037BD4680BD00BF6938400080B485B022
S2144039D000AFF860B9607A607B68002B0CD0FB685B
S2144039E0BA680C3253F8223043F00101FB68BA68DB
S2144039F00C3243F822100BE0FB68BA680C3253F8DE
S214403A00223023F00101FB68BA680C3243F82210DA
S214403A1000BF1437BD465DF8047B704780B485B060
S214403A2000AFF860B9607A607B68002B0CD0FB680A
S214403A30BA680C3253F8223043F00201FB68BA6889
S214403A400C3243F822100BE0FB68BA680C3253F88D
S214403A50223023F00201FB68BA680C3243F8221089
S214403A6000BF1437BD465DF8047B704780B485B010
S214403A7000AFF860B9607A607B68042B18D1FB68A9
S214403A80BA680C3253F8223023F00801FB68BA6853
S214403A900C3243F82210FB68BA680C3253F82230D6
S214403AA043F00401FB68BA680C3243F822102AE05F
S214403AB07B68002B18D1FB68BA680C3253F822306A
S214403AC023F00801FB68BA680C3243F82210FB6802
S214403AD0BA680C3253F8223023F00401FB68BA6807
S214403AE00C3243F822100EE07B68082B0BD1FB68A3
S214403AF0BA680C3253F8223043F00801FB68BA68C3
S214403B000C3243F8221000BF1437BD465DF8047BE4
S214403B10704780B485B000AFF860B9607A60FB68E3
S214403B20BA680C3253F8223023F0F001FB68BA68CA
S214403B300C3243F82210FB68BA680C3253F8222045
S214403B407B6842EA0301FB68BA680C3243F82210ED
S214403B5000BF1437BD465DF8047B704780B485B01F
S214403B6000AF786039603A687B6813445A1E7B68B9
S214403B70B2FBF3F3FB60FB68002B02DDFB68FF2B18
S214403B8002DD4FF0FF3301E0FB681BB218461437E6
S214403B90BD465DF8047B704780B485B000AFF860E2
S214403BA0B9601346FB71FB79002B02D14FF0FF330F
S214403BB01BE0FB68BA680C3253F8223023F47F418E
S214403BC0FB68BA680C3243F82210FB68BA680C32BD
S214403BD053F82220FB791B029BB242EA0301FB68A2
S214403BE0BA680C3243F82210002318461437BD46F4
S214403BF05DF8047B704780B485B000AFF860B9606C
S214403C0011461A460B46FB711346BB71FB68BA68F1
S214403C100C3253F8223099B2FB68BA680C3243F83B
S214403C202210FB68BA680C3253F82220FB791B043A
S214403C3003F47F03B97909060B4342EA0301FB68A4
S214403C40BA680C3243F8221000BF1437BD465DF800
S214403C50047B704780B485B000AF7860396000233D
S214403C60FB607B68AC221A603B681A683B685B68FE
S214403C70B2FBF3F31B09FB60FB68002B03D0FB6829
S214403C80B3F5803F01D301230AE07B68FA681A62E5
S214403C903B689A687B685A607B6850221A600023AB
S214403CA018461437BD465DF8047B704780B483B031
S214403CB000AF78600B46FB707B685B6903F00203DD
S214403CC0002B01D1012303E0FA787B68DA610023F8
S214403CD018460C37BD465DF8047B704780B483B009
S214403CE000AF786039607B685B6903F00103002BA6
S214403CF001D1012305E07B689B69DAB23B681A7004
S214403D00002318460C37BD465DF8047B704780B4E8
S214403D1089B000AFF860B9607A60BB681A017B680A
S214403D209A4202D81023FB6101E00823FB617B68BE
S214403D30DA00FB69B96801FB03F35B081A44FB69C8
S214403D40B96801FB03F3B2FBF3F3BB61BB69DB0865
S214403D507B61BB6903F007033B617B69002B03D0A3
S214403D607B69B3F5803F01D301230FE0FB69082B45
S214403D7005D1FB685B6843F40022FB685A603B69E8
S214403D801A047B691A43FB681A62002318462437D4
S214403D90BD465DF8047B704780B582B000AF786062
S214403DA078680D4B98477B6800225A607B680022F3
S214403DB05A627B6800229A627868084B984778680F
S214403DC0074B98477868074B98477868064B98475C
S214403DD000BF0837BD4680BD793F40008B3E40005F
S214403DE0BF3E4000D93E4000F53E400080B584B01E
S214403DF000AFF860B9607A60F8681A4B98471A4B7B
S214403E0000221A60BB68002B09D0BB681B687A6822
S214403E101946F868154B98470346002B01D00123F6
S214403E201BE0BB685A68BB689B681A43BB681B6943
S214403E301A43BB68DB681A430B4B1B6813430A4A9A
S214403E401360094B1B68084A1360FB685A68064BA8
S214403E501B681A43FB685A60002318461037BD4655
S214403E6080BD00BF993D4000180E40200F3D4000E9
S214403E7080B483B000AF78607B6840221A6000BF91
S214403E800C37BD465DF8047B704780B483B000AF06
S214403E9078607B6888221A6000BF0C37BD465DF8A4
S214403EA0047B704780B483B000AF78607B68102294
S214403EB01A6000BF0C37BD465DF8047B704780B47F
S214403EC083B000AF78607B6824221A6000BF0C374E
S214403ED0BD465DF8047B704780B483B000AF786021
S214403EE07B684FF480721A6000BF0C37BD465DF8A1
S214403EF0047B704780B483B000AF78607B684FF433
S214403F0000221A6000BF0C37BD465DF8047B704740
S214403F1080B483B000AF786039607B685B6903F03B
S214403F200203002B01D1012305E03B68C3F30802DE
S214403F307B68DA61002318460C37BD465DF8047B83
S214403F40704780B483B000AF786039607B685B6947
S214403F5003F00103002B01D1012306E07B689B6937
S214403F60C3F308023B681A60002318460C37BD4668
S214403F705DF8047B7047000080B483B000AF786083
S214403F807B68044AC3F8E42000BF0C37BD465DF8A2
S214403F90047B70470041535580B483B000AFEFF3C5
S214403FA010837B607B68002B0CBF01230023DBB2B1
S214403FB03B6072B6BFF35F8F044B00221A703B68BB
S214403FC018460C37BD465DF8047B70470A00402013
S214403FD080B483B000AF78607B68002B14BF0123A9
S214403FE00023DBB218460C37BD465DF8047B7047AD
S214403FF080B582B000AF78607868074B9847034634
S214404000002B05D0054B01221A70BFF35F8F62B6B6
S21440401000BF0837BD4680BDD13F40000A00402063
S21440402080B584B000AF1E4BFB601E4BBB60FA6889
S214404030BB689A420CD007E0BB681A1DBA60FA68A3
S214404040111DF96012681A60BB68174A9342F3D391
S214404050164BBB6004E0BB681A1DBA6000221A60AB
S214404060BB68134A9342F6D3124BFB60124AFB6876
S21440407023F07F039360114B98477860104A104BAB
S2144040801B6843F470031360BFF34F8FBFF36F8F0B
S21440409078680C4B98470C4B98470C4B9847FEE774
S2144040A02480420000004020C0094020C009402033
S2144040B0200F40200000400000ED00E0993F400007
S2144040C088ED00E0F13F4000AD464000CD0A40009C
S2144040D080B400AFFEE7000080B400AF524B1B6BCD
S2144040E003F00303012B14D0012B02D3022B38D04C
S2144040F07AE04E4B5B6903F08003002B04D04C4BB8
S2144041004FF400421A606FE0494B4FF4FA421A608F
S2144041106AE0454B1B6A03F08073002B03D0444B88
S214404120444A1A6060E0424B434A1A603E4B1B6A60
S21440413003F07003102B04D0202B08D0002B0ED099
S2144041400EE03B4B1B685B00394A136008E0384B77
S2144041501A6813465B001344354A136000E000BFFC
S21440416042E0314B1B6A03F08073002B03D0304B88
S214404170304A1A601CE02E4B2F4A1A602A4B1B6AA4
S21440418003F07003102B04D0202B08D0002B0ED049
S2144041900EE0274B1B685B00254A136008E0244B63
S2144041A01A6813465B001344214A136000E000BFC0
S2144041B01D4B1B6B03F00303022B14D11A4B9B6A57
S2144041C01B0CC3F30A030133194A126802FB03F3BC
S2144041D0174A1360144B9B6ADBB2154A1268B2FB4F
S2144041E0F3F3134A136000BF0F4B1B6B03F07003CF
S2144041F0702B08D10E4B1B68104AA2FB03235B08AA
S2144042000B4A13600AE0084B1B6B1B0903F00703BD
S214404210074A126822FA03F3054A136000BFBD46F8
S2144042205DF8047B704700BF00060E4010180E4035
S2144042300C004020001BB70000093D00ABAAAAAA0C
S21440424080B483B000AF78607B681D4A934204D840
S2144042501C4B4FF080621A602BE07B681A4A9342F0
S21440426003D8184B194A1A6023E07B68184A9342D1
S21440427003D8144B174A1A601BE07B68164A9342D1
S21440428003D8104B154A1A6013E07B68144A9342D1
S21440429004D80C4B4FF004221A600AE07B68114A9F
S2144042A0934203D8074B104A1A6002E0054B0F4A68
S2144042B01A6000BF0C37BD465DF8047B704700BFF0
S2144042C0BFF35E01000C0E407FE7BD020001000414
S2144042D03FDB1C0400020004FFCE7B050003000405
S2144042E0BFC2DA067FB6390800050004000600049F
S2144042F080B485B000AF7860104BFB60104B1B68F5
S214404300002B02D10E4B0F4A1A600D4B1B68BB6048
S214404310BA687B681A44FB689A4202DD4FF0FF3366
S21440432006E0074B1A687B681344054A1360BB686F
S21440433018461437BD465DF8047B7047FCFF4520A1
S2144043401C0E40202031402080B483B000AF7860FF
S2144043504FF0FF3318460C37BD465DF8047B704778
S21440436080B483B000AF786039603B684FF4005249
S2144043705A60002318460C37BD465DF8047B7047EC
S21440438080B485B000AFF860B9607A600023184604
S2144043901437BD465DF8047B7047000053B94AB9F0
S2144043A0002908BF00281CBF4FF0FF314FF0FF30F8
S2144043B000F07AB9ADF1080C6DE904CE00F006F8CD
S2144043C0DDF804E0DDE9022304B070472DE9F0474C
S2144043D08C460D460446089E002B51D18A4217460D
S2144043E06DD9B2FA82FEBEF1000F0BD0CEF1200C92
S2144043F001FA0EF520FA0CFC02FA0EF74CEA050C10
S21440440000FA0EF44FEA174A250CBCFBFAF81FFADE
S21440441087F90AFB18CC45EA0C4508FB09F3AB4282
S2144044200AD9ED1908F1FF3280F02381AB4240F201
S2144044302081A8F102083D44ED1AA4B2B5FBFAF07B
S2144044400AFB105544EA054400FB09F9A14509D981
S214404450E41900F1FF3380F00A81A14540F207815C
S21440446002383C44A4EB090440EA08400021002EF0
S21440447061D024FA0EF4002334607360BDE8F08700
S2144044808B4207D9002E54D0002186E821000846EA
S214404490BDE8F087B3FA83F1002940F08E80AB4246
S2144044A002D3824200F2FA80841A65EB03050120AB
S2144044B0AC46002E3FD086E81010BDE8F08712B913
S2144044C00127B7FBF2F7B7FA87FEBEF1000F34D1EB
S2144044D0EB1B3A0C1FFA87FC0121B3FBF2F8250CC4
S2144044E002FB183345EA03450CFB08F3AB4207D9F9
S2144044F0ED1908F1FF3002D2AB4200F2D18080467F
S214404500ED1AA3B2B5FBF2F002FB105543EA0544A0
S2144045100CFB00FCA44507D9E41900F1FF3302D296
S214404520A44500F2B8801846A4EB0C0440EA0840C4
S2144045309DE731463046BDE8F087CEF1200405FAC7
S2144045400EF307FA0EF720FA04F83A0C25FA04F4AC
S21440455048EA0308B4FBF2F14FEA184502FB11445F
S2144045601FFA87FC45EA044501FB0CF3AB4200FA10
S2144045700EF409D9ED1901F1FF3080F08A80AB4284
S21440458040F2878002393D44EB1A1FFA88F5B3FBA8
S214404590F2F002FB103345EA034500FB0CF3AB4256
S2144045A007D9ED1900F1FF386FD2AB426DD902380A
S2144045B03D44EB1A40EA01418FE7C1F1200722FA59
S2144045C007F88B4005FA01F448EA030320FA07FE91
S2144045D04FEA134CFD404EEA040EB5FBFCF94FEA99
S2144045E01E440CFB19551FFA83F844EA054509FB9F
S2144045F008F4AC4202FA01F200FA01FA08D9ED18C2
S21440460009F1FF3043D2AC4241D9A9F102091D4419
S2144046102D1B1FFA8EFEB5FBFCF00CFB10554EEA28
S214404620054400FB08F8A04507D9E41800F1FF351B
S21440463029D2A04527D902381C4440EA0940A4EBB9
S2144046400804A0FB02894C45C6464D4615D312D0F9
S21440465056B1BAEB0E0364EB050404FA07F7CB40F9
S2144046601F43CC40376074600021BDE8F087184691
S214404670F8E69046E0E6C245EAD2B8EB020E69EBB1
S21440468003050138E4E72846D7E7404691E78146E8
S214404690BEE7014678E702383C4445E7084608E767
S2144046A0A8F102083D442BE7704700BF70B50F4E97
S2144046B00F4D761BB61018BF002405D0013455F8B0
S2144046C0043B9847A642F9D10A4E0B4D761B23F081
S2144046D093FCB61018BF002406D0013455F8043BAE
S2144046E09847A642F9D170BD70BD00BF0480420015
S2144046F0048042000C8042000480420070B486076A
S21440470046D0541E002A41D0CAB2034602E014F1F5
S214404710FF343BD303F8012B9D07F8D1032C2ED949
S214404720CDB245EA05250F2C45EA054519D903F1D2
S21440473010022646103E0F2E42F8105C42F80C5CE3
S21440474042F8085C42F8045C02F11002F2D8A4F188
S214404750100222F00F0204F00F041032032C134410
S2144047600DD91E462246043A032A46F8045BFAD878
S214404770221F22F003020432134404F003042CB137
S214404780C9B21C4403F8011B9C42FBD170BC704765
S21440479014460346C2E700BF00290CBF022200228F
S2144047A04FF4806300F000B82DE9F043614C256873
S2144047B083B004460F4690461E4615B1AB6B002BA1
S2144047C064D0B8F1020F06D0B8F1010F00F29F8016
S2144047D0002EC0F29C80636ED80734D5214628460A
S2144047E002F06CFB216B41B104F14003994202D0C8
S2144047F0284602F05DFC00232363B4F90C30002207
S214404800A26162601A063AD423F44A6323F0030393
S214404810B8F1020FA3811DD001AB6A462146284657
S21440482002F06CFDA3891843A081002E32D1009E71
S214404830304602F091FD074600286BD0A38943F02E
S2144048408003A38128E0A3899905C7D4A06D02F010
S21440485051FDC3E70025616E002604F1430243F094
S21440486002030120A660CE07A38122602261606118
S21440487001D498053ED5284603B0BDE8F0832169AB
S214404880284602F015FCB4F90C30BDE7284602F085
S2144048906DFB96E7002FCBD0AB6B002B33D0009B45
S2144048A0B4F90C2027609E421CBF42F40062A281ED
S2144048B0B8F1010F04BF42F00102A28192B212F099
S2144048C00803276166610ED0D1071AD5656E764219
S2144048D0002315F00105A661A36009D000252846EF
S2144048E003B0BDE8F083A360656E15F00105F5D111
S2144048F09305C0D4A06D02F0FFFC284603B0BDE887
S214404900F083A660F0E7284602F030FBC7E74FF09A
S214404910FF35B0E7DDF80090B14504D0484602F0D8
S2144049201BFD074620B9B4F90C304FF0FF3592E72F
S2144049304E4683E7100040200EB4F0B59CB021AB45
S2144049400F4953F8042B019305466FF0004408685E
S21440495002954FF402774FF6FF7602A90695ADF81A
S214404960147004940794ADF8166000F00BF8029BA0
S21440497000221A701CB0BDE8F04003B0704700BF7C
S214404980100040202DE9F04FC3B00C460B919246E4
S2144049900F930C9002F09CFC03681A93184603F0A1
S2144049A0EFFBA3891990190603D52369002B01F064
S2144049B0038000230DF1C80913931593149327938E
S2144049C0269318931B930993CDF89490C846169354
S2144049D017939AF800305446E3B1252B02D119E0DC
S2144049E0252B03D014F8013F002BF9D1A4EB0A0580
S2144049F085B1269B279AC8F800A001332A44072B86
S214404A00C8F80450279226937FDC08F10808099BD3
S214404A102B4409932378002B7FD000231A468DF829
S214404A20773019460D939B464FF0FF3063780A90D7
S214404A3004F1010A0AF1010AA3F12000582800F205
S214404A40C183DFE810F03802BF03BF034002BF0354
S214404A50BF03BF03BF03BF03BF0345020302BF0339
S214404A605D006B02BF0386029D039D039D039D036D
S214404A709D039D039D039D039D03BF03BF03BF038B
S214404A80BF03BF03BF03BF03BF03BF03BF03370359
S214404A905703BF035703BF03BF03BF03BF039803B8
S214404AA0BF03BF03AD03BF03BF03BF03BF03BF03C3
S214404AB05902BF03BF031E03BF03BF03BF03BF03A9
S214404AC0BF03BF03BF03BF03BF03BF03C602DB0270
S214404AD05703570357038B02DB02BF03BF03900203
S214404AE0BF039D02CC01B4020802BF03E101BF032D
S214404AF07E00BF03BF030D020D980F9340420D90FA
S214404B004BF0040B9AF8003094E725AA0B990C98C2
S214404B1003F0A4FB40B9C84679E7279B23B10C981D
S214404B200B9925AA03F09AFB0B9B9B8913F0400F29
S214404B30099B18BF4FF0FF330993099843B0BDE86F
S214404B40F08F1BF0200F119340F0DD810F9A1BF081
S214404B50100F134640F06E851BF0400F00F06A853C
S214404B6014880432002501230F9200278DF87770B1
S214404B700A994A1C00F065822BF08002079254EA9C
S214404B80050240F06482002940F03C84002B40F04F
S214404B90D7841BF001030E9300F0048642AE302308
S214404BA006F8413D0A9B0E9A9342B8BF13460893B7
S214404BB00023129317B1089B01330893079B13F009
S214404BC00203109302D0089B02330893079B13F00E
S214404BD0840540F00E830D9B089AA3EB020BBBF1B5
S214404BE0000F40F30683BBF1100F279C269A29DD61
S214404BF043462146A84610270C9C0B9D06E0ABF189
S214404C00100BBBF1100F03F1080318DD0132B74853
S214404C1026921031072A279183E88100EFDD25AAE6
S214404C202946204603F01AFB00287FF47DAFABF1FF
S214404C30100BBBF1100F2799269A4B46E6DC4546EB
S214404C400C4698460132A94B26925C44072A279484
S214404C5088E8080800F398849DF8777008F10808FB
S214404C6077B1269B013301340DF177010122072BE2
S214404C702794269388E8060000F3DB8308F10808AB
S214404C80109B6BB1269B013302341EA90222072BD0
S214404C902794269388E8060000F3D68308F1080890
S214404CA0802D00F015830A9B0E9A9F1A002F36DD42
S214404CB0102F269B8E4D27DD42462146B0464FF0AC
S214404CC0100B2E460C9C0B9D04E0103F102F02F15B
S214404CD0080215DD01331031072B2791269382E811
S214404CE04008F2DD25AA2946204603F0B7FA0028F8
S214404CF07FF41AAF103F102F2799269B4A46E9DCCF
S214404D0035460C464646904601333C44072B27948E
S214404D10269388E8A00000F3818308F10808079BE3
S214404D20DF0500F16882269B0E99C8F800600133C3
S214404D300C44072B2794C8F80410269300F34D83A1
S214404D4008F10808079B5B073AD50D9B089A9D1A01
S214404D50002D35DD102D269B20DD10260C9FDDF81E
S214404D602CB004E0103D102D08F1080816DD013384
S214404D705E4A26931034072B279488E84400F1DDDA
S214404D8025AA5946384603F069FA00287FF4CCAE87
S214404D90103D102D279C269BC846E8DC0133534A1D
S214404DA026932C44072B279488E8240008DD25AA60
S214404DB00B990C9803F052FA00287FF4B5AE279C66
S214404DC0099B0D9A08998A42ACBF9B185B180993B9
S214404DD0002C40F00D8300232693C846F9E5119336
S214404DE01BF0200340F0E3811BF0100240F02E84BD
S214404DF01BF0400300F02A840F9913460A460432FB
S214404E000C880F920025B0E60F9A1193166800247E
S214404E108DF87740151D002E00F0A7860A9A531C81
S214404E2000F009862146304602F052FD002800F088
S214404E30E186831B0E930A940F95CDF81CB023EAA7
S214404E40E373089312949DF87770B3E69AF80030AF
S214404E5001222B21EEE54BF0200B9AF80030E9E5D5
S214404E601193002A40F09587224B18931BF0200F91
S214404E7040F011810F9A1BF0100F134640F0E1836B
S214404E801BF0400F00F0DD83043314880F93002599
S214404E901BF0010F00F00C8154EA050300F0088176
S214404EA030239DF844208DF878308DF879204BF0EB
S214404EB0020B022359E69AF8003000297FF4BAAD77
S214404EC001222021B6E54BF0010B9AF80030B1E5FF
S214404ED00F9C23680D9318460028234603F10403CD
S214404EE0FFF60AAE0F939AF80030A3E5B47D420071
S214404EF0C47D4200947D42004BF0100B1BF0200F07
S214404F0011933FF423AE0F9D073525F0070303F1B9
S214404F100802D3E900450F92012326E69AF80030AE
S214404F202A2B0AF1010400F02787A3F13000092854
S214404F30A24600F2AD8600231C461AF8013B04EB5D
S214404F40840400EB4404A3F130000928F5D90A9400
S214404F5072E54BF0800B9AF800306BE54BF0400B57
S214404F609AF8003066E59AF800306C2B03BF9AF842
S214404F7001304BF0200B0AF1010A4BF0100B59E5BB
S214404F80002A40F011871BF0200F40F0F9841BF0F8
S214404F90100F40F0AC841BF0400F00F0A8840F9A2E
S214404FA0136804320F92BDF824201A8011E50F9939
S214404FB0B34B0C6818933022782304318DF879303F
S214404FC011934BF0020B0F9100258DF878200223A9
S214404FD0CBE50F9911930A688DF8A02000230A4666
S214404FE01F468DF87730043201230893CDF81CB065
S214404FF00A9712970F920E9328AEDFE51193002A78
S21440500040F0EA861BF0200F5DD11BF0100F40F0F9
S21440501008831BF0400F00F004830F99B1F900405D
S2144050200431E51722462B460F91002A73F1000300
S21440503058DB0A999DF877704A1C4FF001037FF4BD
S2144050409BAD54EA050200F0DF81CDF81CB0012B81
S21440505000F07B82022B40F0068218984E462309C9
S21440506004F00F0143EA05732A091C461546435CC3
S21440507006F8013D54EA0503F1D1A9EB06030E9369
S21440508090E51193002A40F0A3867E4B18931BF0C0
S214405090200F3FF4EFAE0F9D073525F0070303F1D1
S2144050A008021BF0010F0F92D3E900457FF4F4AEDF
S2144050B002235AE51193002A40F086864BF0100BE7
S2144050C01BF0200FA1D00F9D073525F00705D5E929
S2144050D00023002A05F108011D4673F100030F91D5
S2144050E01446A6DA2D27644265EB45058DF87770A1
S2144050F001233DE51193002A40F062860F9D073557
S21440510025F0070303F108020F921A6815925B68B0
S2144051101493149B159D23F00044284621464FF0D7
S214405120FF32594B04F0F4F8002840F04A832846F2
S21440513021464FF0FF32544B04F0CCF8002840F0A4
S214405140408315A80DC8149904F0BAF8002840F01A
S21440515030859DF877704D4E4D4B2BF08000079074
S21440516011980322002108920A914728D8BF1E466C
S2144051700E9212911EE54BF0080B9AF8003059E457
S214405180A3F1300000231C461AF8013B04EB8404CC
S21440519000EB4404A3F130000928F5D90D944BE404
S2144051A04BF0100B11931BF020033FF41DAE0F9DE8
S2144051B0073525F0070303F10802D3E900450F92AF
S2144051C00023D2E41193002A40F0E785119A002A82
S2144051D03FF4A3AC002301211F4608918DF8A02080
S2144051E0CDF81CB08DF877300A9312930E9128AE06
S2144051F0E4E4279C34E5119B652B40F3A78015A873
S2144052000DC8149904F052F8002800F05081269BEF
S214405210204AC8F80020013301340122072B279486
S2144052202693C8F8042000F36A8308F108081F9BF9
S214405230139A279C934203DB079BDD077FF582ADDD
S214405240269B19991A9AC8F8002001330C44072B5C
S214405250C8F804102794269300F39E8308F10808A4
S214405260139B5E1E002E7FF76DAD102E269B0A4DBB
S21440527040F3F58122461027DDF830B00B9C13E052
S214405280947D4200807D4200FFFFEF7F747D4200A8
S214405290707D4200B07D4200C47D420008F108089F
S2144052A0103E102E40F3DA8101331032072B27923E
S2144052B0269388E8A000F1DD25AA2146584602F04C
S2144052C0CDFF00287FF430AC279A269BC846E7E7F8
S2144052D00D9B089A9F1A002F7FF7E5AC102F269B50
S2144052E0B64D27DD42462146B0464FF0100B2E46BF
S2144052F00C9C0B9D04E0103F102F02F1080215DDB8
S21440530001331031072B2791269382E84008F2DDBF
S21440531025AA2946204602F0A1FF00287FF404ACC7
S214405320103F102F2799269B4A46E9DC35460C4607
S2144053304646904601333C44072B2794269388E8FC
S214405340A00000F3328208F10808ACE4139B269FC5
S214405350012B40F3FE81013701340123072F2794A8
S2144053602697C8F80060C8F8043000F3038208F1B6
S2144053700808199A1A9BC8F8003001371444072FBA
S21440538027942697C8F8042000F3008208F10808FE
S21440539015A80DC8149903F089FF139B002840F008
S2144053A00181013B013701361C44072F269727947D
S2144053B0C8F80060C8F8043000F3278108F10808F0
S2144053C01B9AC8F804200137144421AB072F2794B2
S2144053D02697C8F800307FF7B3AC25AA0B990C98EF
S2144053E002F03CFF00287FF49FAB279CC846A9E408
S2144053F025AA0B990C9802F031FF00283FF4EBAC3D
S214405400FFF792BBDDF81CB0012B00F03481022B75
S21440541025D1CDF81CB0002400251EE625AA0B9900
S2144054200C9802F01BFF00287FF47EAB279CC846F2
S21440543075E425AA0B990C9802F010FF00287FF41B
S21440544073AB279CC8461BE425AA0B990C9802F020
S21440545005FF00287FF468AB279CC84620E4CDF8BB
S2144054601CB000240025494600E03146E20842EAE6
S2144054704572E80804F0070305461446303354EAFC
S214405480050201F8013C01F1FF36EED1079AD2073A
S2144054907FF5F3AD302B3FF4F0AD0239302306F8FC
S2144054A0013CA9EB01030E930E46FFF77BBB1F9909
S2144054B0002940F32E82129B139A9342A8BF1346AC
S2144054C0002B1F460DDD269BC8F8006001333C4488
S2144054D0072B2794C8F80470269300F31F8308F11F
S2144054E00808129B002FA8BFDB1B002B1F4640F36B
S2144054F0D680102F269B314D40F3ED814246214603
S214405500B0464FF0100B2E460C9C0B9D04E0083224
S214405510103F102F40F3DB8101331031072B2791CA
S214405520269382E84008F2DD25AA2946204602F066
S21440553095FE00287FF4F8AA2799269B4A46E7E777
S2144055400A9B0E934E46FFF72DBB002D08BF0A2C34
S214405550C0F08F804E46204629460A220023FEF79A
S2144055601DFF303206F8012D2046294600230A2228
S214405570FEF714FF04460D4654EA0503EBD1A9EBAB
S21440558006030E93FFF70EBB25AA0B990C9802F064
S21440559065FE00287FF4C8AA9DF87770279CC84609
S2144055A0FFF75EBB5E1E002E7FF70AAF102E034D40
S2144055B022DD22464FF0100B0C9C06E0C47D4200D4
S2144055C0103E102E08F1080815DD01371032072F5F
S2144055D02792269788E82008F2DD25AA0B992046D0
S2144055E002F03CFE00287FF49FAA103E102E279A19
S2144055F0269FC846E9DC144601373444072F2794D3
S214405600269788E860007FF7D9AE25AA0B990C98B4
S21440561002F024FE00287FF487AA279C269FC846CF
S214405620CEE60F9A146813460433E5170F932246C6
S2144056302B46FAE404321C680F9201230025FFF73C
S21440564094BA1C6804330F93002521E40F990A4648
S21440565004320C680F920025FFF787BA14460133D0
S2144056603444072B2794269388E860007FF768AB7E
S214405670B3E6DDF81CB0CDF81CB042AE30340123A2
S21440568006F8414D0E93FFF78DBA25AA0B990C9854
S21440569002F0E4FD00287FF447AA279CC8461F9ADC
S2144056A0139B9A4244DB079BD90741D4139B12981D
S2144056B09A1A1D1A9542A8BF1546002D0EDD26994A
S2144056C0C8F80450013106442C440729C8F8006045
S2144056D02794269100F33B8208F10808002DACBFC2
S2144056E0561B1646002E7FF72DAB102E269BB04D30
S2144056F0B5DD22461027DDF830B00B9C04E008F1FB
S2144057000808103E102EA9DD01331032072B2792D1
S214405710269388E8A000F2DD25AA2146584602F0E6
S2144057209DFD00287FF400AA279A269BC846E8E7F6
S214405730269B19981A99C8F8001001330444072B81
S2144057402794C8F80400269300F3F58108F108086A
S214405750ACE7079BDA073FF5FEAD0137013401237E
S214405760072F27942697C8F80060C8F804307FF7BC
S21440577025AE4AE725AA0B990C9802F06FFD002843
S2144057807FF4D2A9279C269FC846F2E525AA0B9906
S2144057900C9802F063FD00287FF4C6A9279C269F3C
S2144057A0C846F5E54E46FFF7FDB925AA0B990C9875
S2144057B002F054FD00287FF4B7A9279CC846FFF79F
S2144057C072BA159C22462046149C2346214603F076
S2144057D09FFD002840F086820A9B0133119B23F0F0
S2144057E020030E9300F0E281472B00F01E814BF41D
S2144057F080730793149B1F1E159B0893BBBF3B46A5
S21440580003F1004700232D231093119B662B00F0D5
S214405810BB81462B00F0DF800E9B089A452B0CBFC1
S2144058200A9B0A9D23A820A908BF5D1C04900391EB
S2144058301FA802213B460290019500910C9800F06B
S21440584073FB119B672B064640F0E0811BF0010F6F
S21440585000F046827419169A0898179B394603F04A
S21440586025FD002840F06581239BA34206D23021C7
S2144058705A1C23921970239B9C42F9D89B1B139366
S2144058800E9B472B00F0E980119B652B40F3CD81A2
S214405890119B662B1F9B129300F09E81139B129ABE
S2144058A01946914200F38A811BF0010F40F01382A3
S2144058B022EAE273089367230E921193109B002B03
S2144058C040F0C4800A939DF87770FFF773B9354669
S2144058D00C464646904601333C44072B2794269375
S2144058E088E8A0003FF7D1AE08F10808D7E60F9A3F
S2144058F0136804320F92099A1A60FFF76AB825AA0D
S2144059000B990C9802F0AAFC00287FF40DA9C84613
S2144059108DE4269B274AC8F8002001330134012233
S214405920072B27942693C8F8042072DC08F1080851
S21440593029B9139B1BB9079BD8077FF503AA269B5B
S21440594019981A9AC8F80020013302462244072BB9
S2144059502792C8F80400269300F38D8108F10808C2
S2144059600029C0F265811399C8F8006001338C188D
S214405970072B27942693C8F804107FF7E1A92CE557
S2144059800F9A09991368CD170846043229460F9294
S214405990C3E90001FFF71DB825AA0B990C9802F041
S2144059A05DFC00287FF4C0A8279CC84658E400BF8A
S2144059B0C47D4200B07D420040210C9801F0D4FCEA
S2144059C00B9A10601061002800F0F2810B9A402379
S2144059D05361FEF7EEBF23A820A90A9C04900391CA
S2144059E01FA803210290089A01943B4600910C9808
S2144059F000F09AFA25460646119B462B06EB050410
S214405A007FF429AF3378302B00F078811F9D2C44EB
S214405A1021E725AA0B990C9802F020FC00287FF479
S214405A2083A81F99279CC84682E70A9B002B08BF7D
S214405A3001230A93DBE630460A9402F0A1FB0F9559
S214405A400E90CDF81CB00346FFF7F9B92D2700237A
S214405A508DF877700A93FFF7AEB81F9B12931A46DD
S214405A60033304DB0A9B19469142BFF617AF119BDE
S214405A70023B11939DF844308DF88430129B013BD5
S214405A80002B1F93BDBF129BC3F101032D222B2277
S214405A90092B8DF8852040F316810DF1930420469E
S214405AA0AB4D00E0104685FB0312D917C1EBA201AF
S214405AB001EB8102A3EB42023032092900F8012CA7
S214405AC00B4600F1FF32EDDC30330238D9B2844267
S214405AD002F8011C40F265810DF18600134601E094
S214405AE013F8011B00F8011BA342F9D101339B1A9E
S214405AF00DF18602134421AA9B1A139A1B93012A7E
S214405B0013440E9340F319810E9B199A13440E9337
S214405B1023EAE373089300231293CFE625AA0B9952
S214405B200C9802F09BFB00287EF4FEAF279CC846EC
S214405B30D7E42346A2E625AA0B990C9802F08EFBE2
S214405B4000287EF4F1AF1F9A279CC846AEE525AAEA
S214405B500B990C9802F082FB00287EF4E5AF1F9A62
S214405B60139B279C9A1AC846B8E50A9B1296062BA2
S214405B7028BF06230A96374608930F95CDF81CB0E3
S214405B800E93744EFFF716B823A820A90A9D0490DA
S214405B9003911FA803210290089A01953B46009165
S214405BA00C9800F0C1F9064644192BE706230A93E1
S214405BB01DE62D278DF87770FFF7CDBA199A139BFF
S214405BC01344129A0E93002A40F3B08023EAE373FC
S214405BD008936723119371E6002B40F3C3800A9A1B
S214405BE0002A40F099801BF0010F40F09580089302
S214405BF00E9363E60A9B08930E930A900F95CDF892
S214405C001CB012909DF87770FEF7D4BF119B472BBF
S214405C107FF420AE1BF0010F7FF4EEAE239B9B1B60
S214405C2013930E9B472B3FF418AF1F9B129321E70D
S214405C304F421031484D2FDA1024DDF830B004E0E2
S214405C4008F10808103F102F26DD01331032072BCD
S214405C5027922693C8F80050C8F80440F0DD25AADD
S214405C600B99584602F0FAFA00287EF45DAF279A60
S214405C70269BC846E6E725AA0B990C9802F0EEFA52
S214405C8000287EF451AF1F99279A269BC84667E6A0
S214405C9000200A90FEF7D0BE01333A44072B88E82E
S214405CA0A0002792269308F108087FF75CAE25AA45
S214405CB00B990C9802F0D2FA00287EF435AF279A5A
S214405CC0269BC8464FE6303330228DF887308DF815
S214405CD0862022AB0FE7129B199A13440E9375E762
S214405CE0239BCBE5149B1D4E002BB6BF2D279DF85E
S214405CF077708DF877701A4BFFF72FBA169A089878
S214405D00179B394603F0D2FA00287FF47FAEC5F1E0
S214405D1001051F952C449EE5129B199A13440A9A36
S214405D201A4422EAE2730E920893C7E5129B0E9A33
S214405D30C3F101031A441346D0E71BF00103129344
S214405D407FF4E2AE0E9B23EAE3730893B6E500BF0A
S214405D5067666666A87D4200C47D42007C7D420040
S214405D60787D42000A9B13B91BF0010F02D0199BA5
S214405D700133D4E701233AE70F9D9AF801302868AB
S214405D8040EAE0700A9028460430A2460F90FEF79C
S214405D9051BE8DF87710FFF767B88DF87710FFF78C
S214405DA015BA0DF18603A6E68DF87710FFF7EBB827
S214405DB00C9A0C2313604FF0FF330993FEF7BDBED9
S214405DC08DF87710FFF79AB98DF87710FFF776B908
S214405DD08DF87710FFF759B98DF87710FFF712B99D
S214405DE0024B13B1024800F005B8704700000000AF
S214405DF0DD6F4000002301461A46184602F0C2BA3C
S214405E0002690B69934200F38D802DE9F04F03F150
S214405E10FF3801F1140700F1140B57F828205BF8FF
S214405E2028304FEA880483B00132B3FBF2F90BEB1B
S214405E300403009407EB040A0193B9F1000F39D02C
S214405E4000252E46BC46DE465CF8044BDEF80030A5
S214405E50A2B209FB0255220C2C0C09FB0242ADB241
S214405E60751B96B2C6EB134615FA83F306EB23462C
S214405E709BB243EA0643E2454FEA12454EF8043BDE
S214405E804FEA2646E0D2009B5BF8033093B9019C6C
S214405E90231F9B450CD254F8043C4BB9A4F108038D
S214405EA002E01A68043B1AB99B4508F1FF38F8D35C
S214405EB0C0F81080044601F0FFFF00282EDB09F1F1
S214405EC001095D46002357F8041B28688AB29A1ACF
S214405ED00B0C12FA80F2C3EB104303EB224392B250
S214405EE042EA0342BA4545F8042B4FEA2343EAD236
S214405EF05BF828200BEB880382B91A1F93450BD218
S214405F0053F8042C42B9083B02E01A68043B1AB91D
S214405F109B4508F1FF38F8D3C4F81080484603B0D4
S214405F20BDE8F08F002070472DE9F04F016C9BB024
S214405F300446279E92469B4641B1426C4A600123E6
S214405F4093408B6001F0E0FD00232364BBF1000F1B
S214405F505D4635DB002333609D4BAB4315D0504642
S214405F6059460022002303F0A1F9804600282DD090
S214405F70269A01231360289B002B00F0BD8095488D
S214405F80186001381BB0BDE8F08F269A42F20F73B6
S214405F901360BAF1000F0DD1C5F3130555B9289B10
S214405FA08D48002BEED000F10803289A13601BB0F2
S214405FB0BDE8F08F289B8948002BE3D0C31CF4E74C
S214405FC001232BF000453360AB46C5E718AA19AB52
S214405FD00192009352465B46204602F00DF82B0D88
S214405FE0814671D0CBF3130242F07F51189FCDF813
S214405FF050805046A3F2FF3641F440110022784BC1
S21440600002F038FD6CA3D3E9002302F0E7FE6CA350
S214406010D3E9002302F030FDCDE90201304602F01C
S21440602077FE69A3D3E9002302F0D8FE02460B466A
S214406030DDE9020102F020FDCDE9040103F07EF91E
S214406040002202900023DDE9040103F039F900281C
S21440605040F07381029D162D00F25D81614B03EB8B
S214406060C503D3E9000152465B4603F047F90028D2
S21440607000F0C5816B1E029300230E93BF1B7B1E50
S214406080069300F1548100230893029B002BC0F234
S2144060904581069A0D9311461944002306910C93A8
S2144060A0249B092B2AD8052B40F35B86043B24937C
S2144060B00025249B023B032B00F24286DFE813F0C8
S2144060C0D403C902DF036104189F199E3E4406F2BA
S2144060D03243202B40F38E81C3F1400306F2124038
S2144060E09D402AFA00F0284302F002FE0123013EBA
S2144060F0A1F1F871149381E73B4843E700216164BE
S2144061002046259101F0DAFC4FF0FF330A93259A9A
S2144061100F9301230490206424920B93199B002B29
S214406120C0F2D980029A0E2A00F3D5802D4B03EB9D
S214406130C203D3E90023CDE90823259B002BC0F2F8
S214406140BA83DDE9085650462A463346594602F099
S2144061506FFF03F0F3F8804602F0DAFD2A46334636
S21440616002F03CFE0B4602465946504602F082FC80
S214406170049D08F130032B700A9B012B06460F4600
S21440618005F1010568D00022184B02F027FE0022D8
S214406190002306460F4603F089F8002840F0888022
S2144061A0CDF82C904FF0000ADFF840B00C94DDE9B3
S2144061B0088928E0AFF3008061436F63A787D23F2A
S2144061C0B3C8608B288AC63FFB799F501344D33FA1
S2144061D00000F07FB17D4200D47D4200E07D420069
S2144061E00000F83F107E4200B07D42000000244090
S2144061F002F0F4FD0022002306460F4603F056F850
S214406200002840F0C18342464B463046394602F0AD
S2144062100FFF03F093F8044602F07AFD42464B46E1
S21440622002F0DCFD02460B463046394602F022FCC0
S21440623004F1300E049E05F801EBA5EB060E0A9E0F
S214406240B645CDE9060152465B46D1D1A046DDF8BB
S2144062502C900C9C06460F4632463B463046394606
S21440626002F00AFC06460F4602460B46DDE90801E8
S21440627003F026F848B932463B46DDE9080103F00C
S21440628015F8A8B118F0010F12D015F8018C049A31
S2144062906B1E04E09A4200F0018413F8018DB8F1B9
S2144062A0390F03F10105F5D008F1010883F80080A5
S2144062B04946204601F028FC0022029B2A70269A76
S2144062C001331360289B002B00F09E8304981D60CA
S2144062D01BB0BDE8F08F0B9A002A3ED0249A012AC4
S2144062E040F311830A9B0C9A5F1EBA42C0F28F831A
S2144062F0D71B0A9B002BC0F28B84089D0A9B089AEA
S2144063001A440892069A01211A442046069201F041
S21440631095FC064624E001230E93AFE6089A029BBE
S214406320D21A5B420C93002308920D93B8E6C7F14D
S2144063300103089300230693A7E6029D284602F031
S214406340E7FC02460B46DDE9040102F0AFFF0028F9
S2144063507FF480AE6B1E02937CE60C9F089D0B9EDE
S214406360002D0CDD069900290B4608DDA942089A47
S214406370A8BF2B46D21AED1ACB1A089206930C9B4E
S214406380D3B10B9B002B00F0B782002F10DD3146B7
S2144063903A46204601F0EEFC4A460146064620466E
S2144063A001F056FC49468046204601F0ADFBC1460A
S2144063B00C9BDA1B40F0A1820121204601F03EFCF6
S2144063C00D9B002B80461CDD01461A46204601F0F8
S2144063D0D1FC249B012B804640F3548200230C932F
S2144063E0D8F8103008EB8303186901F0D7FBC0F1EA
S2144063F0200010E0C3F120050AFA05F074E60E907E
S2144064003CE6249B012B40F3878200230C930D9B94
S2144064100120002BE4D1069A104410F01F0000F033
S214406420A180C0F12003042B40F39E84089BC0F15A
S2144064301C00034408931346034405440693089BF4
S214406440002B05DD49461A46204601F0E3FC81460E
S214406450069B002B05DD41461A46204601F0DAFC35
S21440646080460E9B002B40F086800A9B002B40F314
S21440647066820B9B002B00F09880002D05DD314690
S2144064802A46204601F0C6FC06460C9B002B40F0F0
S214406490378306960A9B049ADDF818B0013BD3185A
S2144064A00B930AF001030C931746C24651464846E2
S2144064B0FFF7A6FC31460546484601F0FDFC5A4625
S2144064C00A905146204601F013FDC268804605F109
S2144064D03003002A40F02B8201464846089301F0DC
S2144064E0EBFC41460690204601F00EFB069A089BC0
S2144064F032B9249921B90C9A002A00F0EF83249AE5
S2144065000A990029C0F29F8205D1249919B90C999D
S214406510002900F09882002A00F306830B9A3B700D
S21440652007F101089742454600F00C834946002390
S2144065300A22204601F0F2FA5E45814631464FF087
S21440654000034FF00A02204600F0EB8101F0E6FA25
S2144065505946064600230A22204601F0DFFA4746FF
S2144065608346A3E71C20089B03440893069B0344EA
S2144065700544069363E74146484601F09DFC0028E3
S214406580BFF673AF029F494600230A222046013FCA
S214406590029701F0C3FA0B9B8146002B40F0B6836E
S2144065A00F9B002B40F3BF830A93DDF810B00A9F81
S2144065B05D4602E001F0B2FA814641464846FFF7A2
S2144065C01FFC00F1300A05F801ABA5EB0B03BB42FC
S2144065D04FF00A024FF0000349462046EADB049B90
S2144065E00A9A012AACBF9B1801331D464FF0000B98
S2144065F049460122204601F00DFC4146814601F005
S2144066005BFC002840F33D8215F8012C04996B1E74
S21440661004E08B4200F0AE8113F8012D392A03F1D5
S2144066200105F6D001321A704146204601F06CFA58
S214406630002E3FF43DAEBBF1000F05D0B34503D06E
S2144066405946204601F060FA3146204601F05CFA91
S2144066502EE600230B93029B259A13440F93013397
S214406660012B1F461E460A93B8BF01270021172F4D
S21440667061640AD9012204235B0003F114008742B7
S214406680114602F10102F7D26164204601F016FA83
S2144066900E2E049020643FF641AD002D3FF43EADF3
S2144066A002990029CDE910AB40F30282B84B01F0C5
S2144066B00F020D1103EBC203E906D3E9006740F170
S2144066C0AE81B44B50465946D3E9082302F0B0FC9D
S2144066D0CDE9120105F00F054FF0030A8DB1DFF842
S2144066E0B482EA0709D530463946D8E9002302F095
S2144066F075FB0AF1010A06460F466D1008F10808B8
S214406700EFD13B463246DDE9120102F091FC0746E6
S21440671088460E9B43B100229F4B3846414602F0C6
S214406720CFFD002840F08682504602F0F1FA3A4605
S214406730434602F053FB994B002202F09DF90A9B18
S2144067400546A1F15076002B00F03E81029B159342
S2144067500A9B12930B9B002B00F0FA81129A8C4BEB
S2144067608F4903EBC20353E90223002002F060FC8A
S2144067702A46334602F07EF982468B4638464146E4
S21440678002F0DCFD054602F0C3FA02460B463846E8
S214406790414602F06FF930355FFA85F8049D0646AB
S2144067A00F4685F8008002460B465046594601354E
S2144067B002F0A4FD002854D132463B4600207649DC
S2144067C002F058F902460B465046594602F096FDEE
S2144067D0002840F07082129A012A00F01181129B24
S2144067E0049ACDF84890134499460DE000206A4933
S2144067F002F040F952465B4602F062FD002840F047
S21440680058824D4500F0FA80504659460022654B66
S21440681002F0E4FA0022634B82468B463046394605
S21440682002F0DCFA0F46064602F088FD804602F08B
S2144068306FFA02460B463046394602F01BF908F11D
S21440684030085FFA88F852465B4605F8018B0646E4
S2144068500F4602F035FD32463B460028C6D0DDF8EE
S2144068604890159B029323E500230B93259B002B12
S21440687040F3DC801F461E460F930A93F6E601233C
S2144068800B93F3E7BAF1000F7FF4A8ADCBF31303F5
S214406890002B7FF4BAAD2BF000473F0D3F05002F8D
S2144068A000F00D82089B01330893069B0133069344
S2144068B001230C93ABE50A9B002B3FF742AC40F01C
S2144068C021820022384BDDE9080102F087FA524661
S2144068D05B4602F009FDDDF828804646002841D098
S2144068E0259B049DDB4302934146204601F00CF96C
S2144068F0002E3FF4DDACA7E60C9A4946204601F050
S21440690039FA814658E5149A002A00F0878103F246
S21440691033430C9F089DF2E4BAF1000F7FF475AD47
S214406920B4E701F0FBF8474606468346BEE5014617
S2144069302046069301F0E8F80122069BE0E5249BFA
S214406940022B7FF796AD0A9B002BC9D14146052204
S214406950204601F0E3F801468046484601F0ACFA8E
S2144069600028BDDD029A04993123013202920B7051
S2144069704D1CB9E7029A01320292049A31231370F1
S21440698052E601230B9366E6DDF82C900C9C8FE4D0
S214406990107E4200E87D42000000F03F00001C40B0
S2144069A00000E03F0000244000001440504602F043
S2144069B0AFF93A46434602F011FA0022C14B02F0C4
S2144069C05BF80546A1F1507641460022BE4B38465C
S2144069D002F050F82A46334682468B4602F08EFC3A
S2144069E08046002840F010812A4606F10043504673
S2144069F0594602F065FC18B1464671E7DDF8489006
S214406A00DDE910ABFFF78ABB0498FFF7BBBA0C9BD7
S214406A100D9A0C97FB1A1A440D92002769E4DDE99B
S214406A2010234FF0020ACDE9122357E60021012336
S214406A3061642046259301F041F8259B049020642C
S214406A400A930F9329E6002AD046CDF818B09A4606
S214406A5011DD49460122204601F0DCF941468146D7
S214406A6001F02AFA002840F34681BAF1390F00F0C7
S214406A70068105F1310AB34687F800A07D1C069EC4
S214406A80D2E504D11AF0010F01D0BDE5154615F840
S214406A90013C302B05F1FF32F8D0C5E50499302291
S214406AA00A70029A15F8018C01320292FFF7FCBB7D
S214406AB000F0BB80029B5D42844B05F00F0203EB67
S214406AC0C203D3E90023DDE9100102F087F92D1156
S214406AD00746884600F02C817D4E4FF0020AEB07B1
S214406AE009D538464146D6E9002302F077F90AF13F
S214406AF0010A074688466D1006F10806EFD108E6FB
S214406B007168204600F0DAFF336902339A00054682
S214406B1006F10C010C3000F02BFF294601222046DE
S214406B2001F078F90690B5E4392BCDF818B0D04688
S214406B3000F0A58003F1010AB34687F800A07D1C4B
S214406B40069E71E55A46D046B3469A4616464FE5E7
S214406B50129B5E4901EBC3012A46334651E90201C6
S214406B6002F03CF9CDE916013846414602F0E6FB14
S214406B70054602F0CDF80B4602464146384601F03F
S214406B8079FF129B0F4604993035012B0D7006464F
S214406B9001F1010526D0129B049ADFF83CB1CDF8EE
S214406BA0489013444FF0000A994652465B4630469A
S214406BB0394602F013F90F46064602F0BFFB804600
S214406BC002F0A6F808F1300802460B463046394631
S214406BD001F050FF05F8018B4D4506460F46E4D1BF
S214406BE0DDF848903B4B0022DDE9160101F044FFFA
S214406BF032463B4602F064FB002846D0159B029383
S214406C0015F8018CFFF743BB4FF000084646A9E64F
S214406C10089B0A9A9D1A0023FFF771BB189B0C9F8E
S214406C20089DC3F13603FFF76ABBDDE910784FF0E5
S214406C30020A6EE50A9B002B3FF4B8AE0F9B002B72
S214406C407FF7DEAE0022244B3846414602F0C6F8B7
S214406C50074688460AF1010002F05AF83A4643468B
S214406C6002F0BCF80022174B01F006FF029A0F9B79
S214406C701293013A0546A1F1507615926AE53922FB
S214406C80B3463A70069E7D1CC0E4DDE9162300201C
S214406C90104901F0EFFE32463B4602F02FFB08B9A2
S214406CA0AEE6154615F8013C302B05F1FF32F8D01C
S214406CB0D7E5DDF84890159B0293FFF7E8BA0C97A6
S214406CC0FFF7A5BB00001C4000001440107E4200A9
S214406CD0E87D42000000E03F00002440392BCDF81C
S214406CE018B0D046DDF828B09A46C8D0BBF1000FA1
S214406CF03FF7BFAEBFE67FF4BEAE1AF0010F3FF4DB
S214406D00BAAEB2E64FF000084646E9E53146002303
S214406D100A22204600F002FF0F9B002B06460ADDA3
S214406D200A93FFF7AABB249B022B23DC0F9B3BE472
S214406D304FF0020AEDE4249B022B1BDC0F9BEFE78F
S214406D40002565642946204600F0B8FE4FF0FF3324
S214406D500A930F9301230490259520640B93FFF725
S214406D60DDB90125FFF7A5B93FF469ABC0F13C009A
S214406D70FFF7F9BB0F9B0A93E5E500BFB1F90C306E
S214406D809AB22DE9F0410D46110780463AD46A681A
S214406D9043F40063002AAB816FDDAC6A002C49D017
S214406DA000229BB2D8F80060C8F8002013F4805246
S214406DB067D02A6D5F0705D569682B6B521A0BB1F1
S214406DC0EB6BD21A0023E9694046A047441C3CD0EE
S214406DD0B5F90C302A692A6023F400630022AB819F
S214406DE0DB046A6047D4296BC8F8006011B305F12C
S214406DF04003994202D0404600F05AF900202863EA
S214406E00BDE8F0812E69AEB12C682E6091070CBFAC
S214406E106B690023A41BAB600AE0234632466F6AC8
S214406E20E9694046B8470028A4EB0004064404DD60
S214406E30002CF2DC0020BDE8F081AB8943F0400333
S214406E40AB814FF0FF30BDE8F081D8F800401D2CF4
S214406E50F3D8194BE340DB4313F00103EDD1B5F90A
S214406E600C206B6022F400632969AB81DA04296048
S214406E70B9D5002CB7D12865B5E7EA6B002A8CDC7B
S214406E80D8E70123E9694046A047431C024602D0A2
S214406E90AB89AC6A8EE7D8F80030002BF8D01D2BB3
S214406EA001D0162B02D1C8F80060C3E7AB8943F087
S214406EB04003AB81BDE8F0810100402038B50D4667
S214406EC0044608B1836BBBB1B5F90C0088B16B6E54
S214406ED0DB0701D4810517D520462946FFF74EFF2C
S214406EE06B6EDA07044602D4AB899B0507D520466D
S214406EF038BD0446204638BD00F038F8E4E7A86DB3
S214406F0000F0FAF9204638BDA86D00F0F3F9E3E743
S214406F10014900F0B3B900BFCD84400010B500234E
S214406F2004468181C2810360436083604366036197
S214406F3043618361194608225C30FDF7DFFB074852
S214406F400749084A084B2062E4616162A262E36234
S214406F5004F15800BDE8104000F0C8B9D5804000A4
S214406F60F9804000358140005581400010B5044608
S214406F70124800F0BFF9A26BD2B904F53B73104833
S214406F80C4F8E8320321C4F8E022E063C4F8E4120F
S214406F9060680421FFF7C2FF01220921A068FFF7BD
S214406FA0BDFF02221221E068FFF7B8FF0123A3636A
S214406FB00248BDE8104000F09FB900BF040F4020D3
S214406FC0116F4000014800F095B900BF180F4020EF
S214406FD0014800F091B900BF180F402038B50A4C60
S214406FE00A4D641BA4100AD004F18043013B05EB14
S214406FF08305013C55F804399847002CF9D1BDE883
S214407000384021F003B800BF1C8042001880420080
S214407010F8B5244F0C46064600F044FDBB685D6854
S214407020C4F57E610F3125F00305294421F47F61C4
S21440703021F00F01A1F58054B4F5805F07DB0021F5
S214407040304601F035F8BB682B44984204D03046B1
S21440705000F02EFD0020F8BD6142304601F028F8D1
S21440706001300DD0104BBA6819682D1B45F001054C
S2144070703046091B5560196000F01AFD0120F8BD26
S2144070800021304601F014F8BA68831A0F2BDEDD73
S214407090064C0549246843F00103001B5360086012
S2144070A0D5E700BF44044020200E40204C08402036
S2144070B0002944D02DE9F0410D46804600F0F2FC10
S2144070C055F8047C694927F00103A5F10804E21845
S2144070D08E685068B24220F003005ED0FE075060D3
S2144070E00BD455F8087CE41B01F1080EA5687545DD
S2144070F03B446DD0E768EF60BD6015186D68ED07DE
S2144071003ED543F001026260E350B3F5007F17D2EC
S214407110DB08581C9A104D6851F83070A760012360
S214407120934001EBC0022B43083AE2604B6041F8C3
S2144071303040FC604046BDE8F04100F0B9BC7047C6
S2144071405A0A042A52D89A0902F13907FF0002F176
S2144071503805C819CA59083890424FD0516821F0AE
S21440716003018B4232D292689042F7D1C368A06046
S214407170E3609C60C4604046BDE8F04100F098BCC7
S21440718095683B4FBD42034440D0D068E86043F02A
S214407190010285606260E350B7E7FF07034407D407
S2144071A055F8082CA41A1344A068E268C2609060A0
S2144071B0304A126843F00100934260608C60B9D355
S2144071C02D4B40461968FFF723FFB3E71046CDE73F
S2144071D011184968C90744D49168D268CA60034404
S2144071E043F0010091606060E350A3E7142A16D88C
S2144071F002F15C07FF0002F15B05AAE7AA10012333
S2144072004D6893402B434B600346B0E743F0010282
S2144072104C610C61E560A5606260E3508AE7542AE1
S21440722006D81A0B02F16F07FF0002F16E0590E7D1
S214407230B2F5AA7F06D8DA0B02F17807FF0002F112
S214407240770586E740F25450824206D89A0C02F1FF
S2144072507D07FF0002F17C057BE74FF47E777E25B5
S21440726077E743F001016160136063E74404402020
S2144072704C04402050084020500E40202DE9F84352
S21440728010F538771FD0884606464FF000097D68CF
S214407290BC68013D11D4A389012B05F1FF3508D9FF
S2144072A0B4F90E3001332146304602D0C04749EA91
S2144072B000096B1C04F16804EDD13F68002FE6D14D
S2144072C04846BDE8F883B9464846BDE8F88300BF5F
S2144072D0044A054B1268506B002808BF1846F03029
S2144072E0704700BF1000402054084020704700BF41
S2144072F0704700BF704700BF704700BF70B50C4670
S214407300B1F90E10002990B015461E4614DB01AAAE
S21440731001F03EF900280FDB029A02F47042A2F513
S2144073200052B2FA82F252094FF480634FF4006082
S21440733032602B6010B070BDA289002312F080002E
S214407340336004D0402218462A6010B070BD4FF417
S21440735080632B6010B070BD024B0146186800F089
S21440736003B800BF100040202DE9F04F01F10B0696
S214407370162E83B0054640F29E8036F0070600F192
S214407380BD80B14200F2BA8000F08CFBB6F5FC7FBF
S214407390C0F09382730A00F0B880042B00F2798123
S2144073A0B30903F1390003F1380EC300BF4F3B4425
S2144073B0A3F108015C68A14206D10CE0002A80F2E5
S2144073C0AA80E468A14206D0636823F003039A1BB0
S2144073D00F2AF3DD70463C69DFF8E4E2744500F0BE
S2144073E0AB81636823F003039A1B0F2A00F3908156
S2144073F0002AC7F814E0C7F810E080F29D80B3F585
S214407400007F80F06181DB0803F1010C99107A68F7
S21440741057F83C80C4F8088001238B4007EBCC012A
S21440742013430839E1607B6047F83C40C8F80C409D
S2144074308210012494409C4200F28B801C4206D16C
S21440744020F0030064001C4200F10400FAD007EB71
S214407450C009CC468046DCF80C309C4507D16DE12F
S214407460002A80F27B81DB689C4500F06781596882
S21440747021F003018A1B0F2AF2DDD3F80CC0D3F8A3
S214407480088000939C19284646F0010642F0010504
S2144074905E60C8F80CC0CCF808807C613C61C4F8DB
S2144074A00CE0C4F808E065605A5000F001FB009B11
S2144074B003F108041EE0102920D800F0F3FA102645
S2144074C018230220794F3B44A3F108025C6894429B
S2144074D000F03D816368E168A66823F00303234417
S2144074E028465A68F16042F001028E605A6000F009
S2144074F0DFFA0834204603B0BDE8F08F00240C23A2
S21440750020462B6003B0BDE8F08F40204FF4007358
S2144075104FF03F0E4AE72344E1685A68A66842F0B7
S2144075200102F16028468E605A6000F0C1FA0834C5
S214407530204603B0BDE8F08F234428465A6842F000
S21440754001025A6000F0B4FA0834204603B0BDE8A1
S214407550F08FBC68636823F00308B04504D3A8EBFB
S21440756006030F2B00F38580DFF85891504BD9F86F
S21440757000201B680132334404EB080A00F05581B2
S21440758003F580530F3323F47F6B2BF00F0B5946D4
S214407590284600F08DFD411C024600F0FC808245E6
S2144075A000F2F780434B19685944196000F04D814A
S2144075B0D9F8000001301BBFA2EB0A0A5144C9F8B3
S2144075C00020196012F0070100F01581C1F1080093
S2144075D0C1F580510244083102EB0B09C9F30B098F
S2144075E0A1EB0909494628460193009200F060FD48
S2144075F0431C9DE80C0000F04381801A484440F04C
S21440760001001968BA604944BC425060196017D0FE
S214407610B8F10F0F40F2FB806068A8F10C0222F030
S214407620070204EB020E00F001004FF0050C104379
S2144076300F2A6060CEF804C0CEF808C000F217816A
S2144076401D4BBC681A68914288BF19601B4B1A686C
S2144076509142626888BF196022F003029642A2EB0C
S214407660060301D80F2B04DC284600F021FA00243C
S21440767040E7A21943F0010346F00106666028463B
S214407680BA60536000F014FA0834204603B0BDE8F0
S214407690F08F142B71D9542B00F2A380330B03F1D7
S2144076A06F0003F16E0EC30080E600BF4404402026
S2144076B0500E4020200E4020480E40204C0E4020C9
S2144076C04C0440204C0840205A0A042A5BD9142A0D
S2144076D000F2AE8002F15C01C9005B3207EB010CA0
S2144076E07958ACF1080C8C4500F088804A6822F046
S2144076F00302934273D289688C45F7D1DCF80C209C
S2144077007B68E260C4F808C09460CCF80C408FE612
S214407710A11946F0010C42F00106C4F804C0284600
S21440772079613961C1F80CE0C1F808E04E60E2507A
S21440773000F0BEF90834DDE67B6879E608F101081A
S21440774018F0030F0CF1080C7FF485AE2DE0DC68D2
S214407750A34208BF02303FF43EAEBBE619441C4687
S2144077604A68DB6854F8086F42F001024A602846CF
S214407770F3609E6000F09CF9BCE603F15C0003F108
S2144077805B0EC30012E69A0902F13901C90038328D
S214407790A4E7BC4254D0BC68626822F003025DE7AE
S2144077A059F80839994540F0868010F0030F00F1EB
S2144077B0FF30F5D17B6823EA04037B6064009C427B
S2144077C03FF6C7AE002C3FF4C4AE1C4240467FF4A2
S2144077D03EAE64001C4200F10400FAD037E68C4608
S2144077E08CE7B3F5AA7F15D8F30B03F1780003F1C5
S2144077F0770EC300DAE54FF48051EDE67B689210D1
S214407800012101FA02F213437B60624679E70123C5
S214407810536029E740F25452934222D8B30C03F106
S2144078207D0003F17C0EC300C0E503F1100BAEE60D
S214407830542A29D81A0B02F16F01C9006E324DE75F
S214407840204B196859441960B2E6CAF30B00002869
S2144078507FF4AEAE08EB0B03BA6843F00103536007
S214407860EEE67F204FF47E734FF07E0E9EE504F1E9
S214407870080128460093FFF71BFC009B1968DFE6CB
S21440788001204FF00009BCE6B2F5AA7F05D8DA0B16
S21440789002F17801C900773220E740F254518A421B
S2144078A005D89A0C02F17D01C9007C3216E74FF4E8
S2144078B07E717E2212E77B6880E7F00806F10803B7
S2144078C000E600BF200E4020000000000000000040
S2144078D001F0FF01102A2BDB10F0070F08D010F83C
S2144078E0013B013A8B422DD010F0070F42B3F6D140
S2144078F0F0B441EA012141EA014122F007047FF059
S21440790000070023F0E80256083C85EA010586EAAF
S214407910010685FA47F5A3FA87F586FA47F6A5FAEB
S21440792087F68EB9EED1F0BC01F0FF0102F00702F7
S21440793032B110F8013B013A83EA010313B1F8D1A2
S2144079400020704701387047002D06BF3546033883
S214407950073815F0010F07D1013015F4807F02BFBC
S214407960013015F4C03F0130F0BC0138704700BF0D
S214407970844641EA000313F003036DD1403A41D3F5
S21440798051F8043B40F8043B51F8043B40F8043BB4
S21440799051F8043B40F8043B51F8043B40F8043BA4
S2144079A051F8043B40F8043B51F8043B40F8043B94
S2144079B051F8043B40F8043B51F8043B40F8043B84
S2144079C051F8043B40F8043B51F8043B40F8043B74
S2144079D051F8043B40F8043B51F8043B40F8043B64
S2144079E051F8043B40F8043B51F8043B40F8043B54
S2144079F051F8043B40F8043B51F8043B40F8043B44
S214407A00403ABDD2303211D351F8043B40F8043BE3
S214407A1051F8043B40F8043B51F8043B40F8043B23
S214407A2051F8043B40F8043B103AEDD20C3205D3F3
S214407A3051F8043B40F8043B043AF9D2043208D0EB
S214407A40D2071CBF11F8013B00F8013B01D30B885D
S214407A5003806046704700BF082A13D38B078DD03B
S214407A6010F003038AD0C3F10403D21ADB071CBF0D
S214407A7011F8013B00F8013B80D331F8023B20F877
S214407A80023B7BE7043AD9D3013A11F8013B00F8B0
S214407A90013BF9D20B7803704B7843708B78837038
S214407AA0604670470148FFF725BC00BF080F4020DE
S214407AB00148FFF721BC00BF080F4020C36C70B5DB
S214407AC005460C464BB153F8240080B1026843F893
S214407AD0242000230361C36070BD2122042100F0EE
S214407AE0B3FCE86403460028EDD1002070BD0121B8
S214407AF001FA04F6721D2846920000F0A5FC002804
S214407B00F3D044608660E4E731B1C36C4A6853F80A
S214407B102200086043F82210704700BFF0B50C6999
S214407B2083B00D46064601F1140E0027DEF800002D
S214407B3081B202FB0133010C180C02FB01019BB21F
S214407B40013703EB0143BC424EF8043B4FEA114376
S214407B50ECDC3BB1AA68944207DA05EB84020134B8
S214407B6053612C61284603B0F0BD6968019301312A
S214407B703046FFF7A3FF2A69023205F10C0107469B
S214407B8092000C30FFF7F4FEF26C6968019B52F8E5
S214407B902100286042F821503D46DEE7020C1204E0
S214407BA00346B2B90304102013F07F4F04BF1B02F4
S214407BB0083013F0704F04BF1B01043013F0404FE1
S214407BC004BF9B000230002B02DB5B0003D4202066
S214407BD070470020E8E70130704700BF036813F0A5
S214407BE00702014607D0DA0721D4980721D49B081C
S214407BF00B600220704798B298B1104613F0FF0F02
S214407C0004BF1B0A08301A0704BF1B0904309A0732
S214407C1004BF9B080230DA0707D45B0804D1202053
S214407C2070471B0C1020E9E701300B6070470020BE
S214407C3070475B080B600120704700BF10B50C46CC
S214407C400121FFF73BFF01224461026110BD00BFE6
S214407C502DE9F04F0C691569AC4283B08B46164649
S214407C6004DA2246B3462C460E461546DBF8083064
S214407C70DBF8041004EB05089845C8BF0131FFF750
S214407C801DFF00F1140909EB880AD145009005D282
S214407C904B46002143F8041B9A45FBD806F1140CCA
S214407CA00CEB85030BF1140B9C450BEB840E4CD26E
S214407CB0CDF804A09A46DCF80050AFB2EFB10021F0
S214407CC04D465E460C4656F8042B286893B281B261
S214407CD007FB0313120C010C234407FB021101EBB4
S214407CE013419BB243EA0143B64545F8043B4FEA8D
S214407CF01144E8D82C60DCF800502D0C1DD0D9F883
S214407D00003048461C46594600220E88240C05FB87
S214407D10064422449BB243EA024340F8043B51F8EF
S214407D20043B04681B0CA6B205FB036303EB12433B
S214407D308E454FEA1342E8D803600CF1040CE24546
S214407D4009F10409B7D8DDF804A0B8F1000F0BDD3F
S214407D505AF8043CAAF1040A1BB105E05AF8043D5F
S214407D6013B9B8F10108F9D10098C0F8108003B0F3
S214407D70BDE8F08F12F003032DE9F04114460746A4
S214407D802ED10D46A4101CD0BE6C96B3E3074FF020
S214407D90000806D4641014D03068A8B10646E3073D
S214407DA0F8D5324629463846FFF752FFB5B16A68DD
S214407DB0FB6C641053F82210296043F822500546A5
S214407DC0EAD12846BDE8F081324631463846FFF7CC
S214407DD03FFF3060C0F800800646E0E70546D9E73A
S214407DE05A1E0B4D002355F82220FFF797FE0546F6
S214407DF0C8E701213846FFF761FE40F271210122B3
S214407E000023416102610646B8640360BEE700BFD6
S214407E10D87E42002DE9F84391460A698B684FEABE
S214407E20691404EB020808F101059D420E46074618
S214407E30496804DD5B009D4201F10101FADC3846E9
S214407E40FFF73CFE002C00F1140306DD03EB840232
S214407E50002143F8041B9A42FBD1346906F1140111
S214407E6019F01F0901EB840E1DD0C9F1200C002229
S214407E700C6804FA09F4144343F8044B51F8042BF5
S214407E808E4522FA0CF2F3D81A600AB108F10205C0
S214407E90FB6C7268013D53F822100561316043F86F
S214407EA02260BDE8F883043B51F8042B43F8042FC6
S214407EB08E45F9D8ECE700BF30B40B69054600693B
S214407EC0C01A0FD19B001435143119442B4401E0DD
S214407ED09D4207D253F8044D51F8042D9442F7D0F2
S214407EE002D3012030BC70474FF0FF30FAE700BFA6
S214407EF02DE9F0410F690E4611697F1A002F904612
S214407F0017D1890006F1140502F1140E6B1871445E
S214407F1001E09D425CD253F8042D51F8044DA24234
S214407F20F7D05ED233462C464646754698460127DD
S214407F3005E058DB06F1140508F1140400277168C3
S214407F40FFF7BCFDD8F810303669C76004EB830CE9
S214407F50A64605EB860700F1140400235EF8041BD2
S214407F6055F8048B8AB213FA88F3090C9A1AC1EBB7
S214407F70184303EB224392B242EA0342F44544F8E4
S214407F80042B4FEA2343E9D8AF4217D9A446AE465E
S214407F905EF8042B13FA82F3191401EB12419BB2DC
S214407FA043EA014277454CF8042B4FEA2143EFD889
S214407FB0ED432F4427F0030704373C44043C22B9E2
S214407FC054F8043D013E002BFAD00661BDE8F0812E
S214407FD00021FFF773FD0122002302614361BDE8E3
S214407FE0F0817446ABE7334606F1140402F11405FB
S214407FF0164601279846A2E72DE9F04182B00121B6
S2144080001C46C3F30A571546089EFFF757FDC4F3B0
S214408010130480460FB144F4801401941DB302A8A3
S21440802040F8085DFFF7DAFD002834D19DE80C00E3
S214408030C8F81420002B0CBF01210221C8F81830C4
S214408040C8F81010DFB908EB8103A0F23240306068
S2144080501869FFF7A3FD099BC0EB41101860404626
S21440806002B0BDE8F08101A8FFF7B8FD019BC8F853
S214408070143001212030C8F81010002FE3D0099B9F
S214408080A7F233470744C0F13500376018604046D2
S21440809002B0BDE8F0819DE80A00C0F1200203FA74
S2144080A002F20A43C3400193C8F81420C2E700BF57
S2144080B038B5074C0023054608462360FCF718F9F8
S2144080C0431C00D038BD2368002BFBD02B6038BD46
S2144080D01C0F402010B50C46B1F90E1000F0FCFA0B
S2144080E0002803DB236D0344236510BDA38923F4D6
S2144080F08053A38110BD00BF2DE9F0411646B1F96B
S2144081000C201F46D3050C46054607D50022022301
S214408110B1F90E1000F050FAB4F90C20B4F90E1074
S21440812022F48052A2813B4632462846BDE8F041C2
S21440813000F012B910B50C46B1F90E1000F03CFA3A
S214408140A389421C0EBF23F4805343F4805320651A
S214408150A38110BDB1F90E1000F0A6B900000000D2
S21440816000000000000000000000000000000000CA
S21440817000000000000000000000000000000000BA
S21440818090F800F06DE9024520F007016FF0000C12
S21440819010F0070491F820F040F049804FF00004BA
S2144081A06FF00700D1E9002391F840F000F1080095
S2144081B082FA4CF2A4FA8CF283FA4CF3A2FA8CF3CD
S2144081C04BBBD1E9022382FA4CF200F10800A4FA34
S2144081D08CF283FA4CF3A2FA8CF3E3B9D1E9042388
S2144081E082FA4CF200F10800A4FA8CF283FA4CF3BF
S2144081F0A2FA8CF37BB9D1E9062301F1200182FA79
S2144082004CF200F10800A4FA8CF283FA4CF3A2FA7E
S2144082108CF3002BC6D0002A04BF04301A4612BA8C
S214408220B2FA82F2FDE8024500EBD2007047D1E98F
S214408230002304F00305C4F100004FEAC50514F01E
S214408240040F91F840F00CFA05F562EA05021CBFEF
S21440825063EA050362464FF00004A9E72DE9F04FB4
S214408260936883B09046002B70D082460C461768C1
S2144082708D68086842E0A38913F4906F2ED0656934
S214408280216905EB4505A0EB010B05EBD5750BF118
S21440829001006D103044A8422A4684BF05462A464F
S2144082A05B0538D511465046FFF75EF800283CD0AF
S2144082B05A4621690190FFF75BFBA289019B22F495
S2144082C0906242F08002A281A5EB0B0203EB0B000A
S2144082D0656123612060A2603546B3465A464946EA
S2144082E000F096F9D8F80830A2682068551B584424
S2144082F09E1BA5602060C8F808603EB37E683B467B
S2144083000837002EFAD0AE42D3F80090AB46B2D231
S2144083103546B346E2E7504600F0F4F903460028F7
S214408320D2D121695046FEF7C3FE0C23CAF800306E
S214408330A389002243F040034FF0FF30A381C8F8E2
S2144083400820C8F8042003B0BDE8F08F0020C8F825
S214408350040003B0BDE8F08F70B50D46084C1146DA
S21440836006461A46284600232360F9F7B5F9431C0B
S21440837000D070BD2368002BFBD0336070BD00BFBB
S2144083801C0F40202DE9F8432C4D06462868984699
S2144083900F469146FEF7AEFF294B1C68D4F848318D
S2144083A0002B3ED05A681F2A1CDC02F1010E76B123
S2144083B003EB82010124C1F88890D3F888019440E9
S2144083C02043022EC3F88801C1F8088123D0023228
S2144083D0C3F804E0286843F82270FEF78DFF0020BB
S2144083E0BDE8F883174B0BB34FF4C870FEF7B4FFE5
S2144083F00346D8B1D4F848210260002141600A46BD
S214408400C4F848014FF0010EC0F88811C0F88C112E
S214408410002EDCD0CCE7D3F88C110C43C3F88C414B
S214408420D5E704F5A673C4F84831BBE72868FEF7DD
S21440843063FF4FF0FF30BDE8F88300BF40044020A4
S2144084406C7D42005973400010B502FB01F1FEF707
S2144084508BFF0446D8B150F8042C22F00302043AAD
S214408460242A18D8132A14D900231B2A03604360F1
S21440847016D9242A8360C36011BF00F1100203613D
S214408480436100F118020023136053609360204656
S21440849010BD0246F7E70021FCF730F9204610BD34
S2144084A000F10802EFE700BF38B5074C0023054649
S2144084B008462360FBF748FF431C00D038BD2368BE
S2144084C0002BFBD02B6038BD1C0F402070B559B137
S2144084D005460C4610B1836B002B3CD0636ED80724
S2144084E005D5B4F90C302BB90026304670BDA389AB
S2144084F099053CD521462846FEF740FCE36A0646E9
S21440850033B1E169284698470028B8BF4FF0FF3698
S214408510A3891A0622D4216B41B104F14003994243
S21440852002D02846FEF7C4FD00232363616C21B1C8
S2144085302846FEF7BDFD00236364FEF743FD636EE9
S2144085400022DB07A2810ED5A06DFEF7D1FEFEF716
S2144085503FFD304670BDFEF709FDBFE7216928465E
S214408560FEF7A6FDD7E7A06DFEF7C6FEECE7A06DCA
S214408570FEF7C0FEB4F90C30002BBBD1666E16F089
S2144085800106B1D1A06DFEF7B7FE304670BD00BF04
S21440859038B50B46074C054611461846002323605F
S2144085A0FBF7DEFE431C00D038BD2368002BFBD013
S2144085B02B6038BD1C0F402070B50D46084C114648
S2144085C006461A46284600232360FBF7D9FE431C7E
S2144085D000D070BD2368002BFBD0336070BD00BF59
S2144085E01C0F402082B049B15AB16BB113780B6072
S2144085F01278101C18BF012002B0704701A9002A4B
S214408600F3D1104602B070476FF00100F4E700BFA8
S2144086108842F0B50DD98B1898420AD28418002AA1
S21440862051D0224613F8014D02F8014D9942F9D136
S214408630F0BD0F2A48D941EA00039B0746D100F116
S214408640100401F11003154653F8106C44F8106CF2
S21440865053F80C6C44F80C6C53F8086C44F8086CEF
S214408660103D53F8046C44F8046C0F2D03F11003CE
S21440867004F11004E8D8A2F1100323F00F0302F02F
S2144086800F0E1033BEF1030F1944034421D91E1FA9
S2144086900D467446043C55F8047B46F8047F032C8C
S2144086A0F8D8AEF1040424F00304043421442344EF
S2144086B002F0030262B1013B0A4411F8014B03F891
S2144086C0014F8A42F9D1F0BD0346F3E70346F2E78D
S2144086D0F0BD7246EEE700BF70B50D46084C114639
S2144086E006461A46284600232360F8F7CBFF431C6D
S2144086F000D070BD2368002BFBD0336070BD00BF38
S2144087001C0F4020002900F095802DE9F04F0D46C3
S214408710164683B0804606F10B07FFF7C3F955F8B7
S21440872004EC162F2EF00304A5F108093CD81022BD
S2144087301746BE423DD8944243DAC44B996809EB8B
S2144087400400884200F0B480436823F001010144ED
S2144087504968C9074CD51EF0010F00F09B80314692
S2144087604046FEF701FE064600283AD055F8043C3F
S21440877023F001034B44A0F108029A4200F0218105
S214408780221F242A00F20781132A00F2DB800346C8
S2144087902A46116819605168596092689A6029465D
S2144087A04046FEF785FC1CE027F00707002F3A46B8
S2144087B0BFDA00260C233046C8F8003003B0BDE8C8
S2144087C0F08F2E46E31B0F2B1ED8D9F8043003F04B
S2144087D0010323434C44C9F80430636843F0010363
S2144087E063604046FFF764F9304603B0BDE8F08F5B
S2144087F023F00303E11891421FDBC36882682E46CC
S214408800D3600C469A60DDE7D9F8042009EB0701EF
S21440881002F001024C4443F001031743C9F80470C8
S2144088204B60636843F00103083163604046FEF7DF
S2144088303FFCD6E71146FEF797BD1EF0010F8ED1DE
S21440884055F8081CA9EB010ADAF8041021F00301D8
S2144088500B442344934225DBC26881685646CA606F
S2144088609160DAF80C1056F8080F221F242AC160CF
S214408870886000F29480132A6FD92968CAF80810D5
S2144088806968CAF80C101B2A00F2A28008350AF163
S214408890100263E055F8083CA9EB030ADAF8041026
S2144088A021F0030163189342FFF659AF5646D8E7C6
S2144088B0416821F0030BA34407F11000834556DAC4
S2144088C01EF0010F7FF44BAF55F8081CA9EB010AC8
S2144088D0DAF8041021F003018B445845E2DC564692
S2144088E0DAF80C1056F8080F221F242AC160886058
S2144088F000F28F80132A40F28A802968CAF808104E
S2144089006968CAF80C101B2A00F28A8008350AF1FA
S21440891010022968116069685160A96891600AEB85
S2144089200701ABEB070242F0010299604A60DAF8B1
S214408930043003F001031F434046CAF80470FFF7B3
S214408940B7F851E72B6803606B6843601B2A2DD845
S21440895000F1080305F108021BE73246296811605A
S21440896069685160A96891601C46D1462AE709EBC0
S2144089700701ABEB070B4BF0010299604A6055F8D4
S214408980043C03F001031F43404645F8047CFFF7D0
S2144089908FF82E4628E72946FFF73AFEFFE6294697
S2144089A030461C46D146FFF733FE0BE7AB68836084
S2144089B0EB68C360242A17D000F1100305F11002BB
S2144089C0E7E650F8043C23F003031C442E46F9E641
S2144089D0A968CAF81010E968CAF81410242A0CD0FE
S2144089E010350AF11802B9E72B6903616B694361D8
S2144089F005F1180200F11803CBE62A69CAF81820D8
S214408A006A69CAF81C2018350AF12002A6E73246E1
S214408A107FE7294630460193FFF7FAFD019B7EE744
S214408A20A968CAF81010E968CAF81410242A03D0B6
S214408A3010350AF118026CE72A69CAF818206A69E4
S214408A40CAF81C2018350AF1200262E74404402088
S214408A5021B1FF2A04D80A700120704708467047A3
S214408A608A2303604FF0FF30704700BF81F000411B
S214408A7002E000BF83F0004330B54FEA41044FEABE
S214408A80430594EA050F08BF90EA020F1FBF54EA59
S214408A90000C55EA020C7FEA645C7FEA655C00F0F5
S214408AA0E2804FEA5454D4EB5555B8BF6D420CDDC6
S214408AB02C4480EA020281EA030382EA000083EA49
S214408AC0010180EA020281EA0303362D88BF30BDE9
S214408AD011F0004F4FEA01314FF4801C4CEA11313F
S214408AE002D0404261EB410113F0004F4FEA03339E
S214408AF04CEA133302D0524263EB430394EA050F29
S214408B0000F0A780A4F10104D5F1200E0DDB02FA97
S214408B100EFC22FA05F2801841F1000103FA0EF22B
S214408B20801843FA05F359410EE0A5F120050EF1F1
S214408B30200E012A03FA0EFC28BF4CF0020C43FA22
S214408B4005F3C01851EBE37101F0004507D54FF02F
S214408B50000EDCF1000C7EEB00006EEB0101B1F57F
S214408B60801F1BD3B1F5001F0CD349085FEA3000C5
S214408B704FEA3C0C04F101044FEA445212F5800FD0
S214408B8080F09A80BCF1004F08BF5FEA500C50F16D
S214408B90000041EB045141EA050130BD5FEA4C0C50
S214408BA0404141EB010111F4801FA4F10104E9D1D9
S214408BB091F0000F04BF01460020B1FA81F308BFD0
S214408BC02033A3F10B03B3F120020CDA0C3208DD9C
S214408BD002F1140CC2F10C0201FA0CF021FA02F177
S214408BE00CE002F11402D8BFC2F1200C01FA02F1E7
S214408BF020FA0CFCDCBF41EA0C019040E41AA2BF0C
S214408C0001EB0451294330BD6FEA04041F3C1CDAD3
S214408C100C340EDC04F11404C4F1200220FA04F0F3
S214408C2001FA02F340EA030021FA04F345EA03019D
S214408C3030BDC4F10C04C4F1200220FA02F001FA5F
S214408C4004F340EA0300294630BD21FA04F02946E1
S214408C5030BD94F0000F83F4801306BF81F480117A
S214408C600134013D4EE77FEA645C18BF7FEA655CED
S214408C7029D094EA050F08BF90EA020F05D054EABF
S214408C80000C04BF1946104630BD91EA030F1EBFC4
S214408C900021002030BD5FEA545C05D140004941C8
S214408CA028BF41F0004130BD14F580043CBF01F5BB
S214408CB0801130BD01F0004545F0FE4141F47001A1
S214408CC04FF0000030BD7FEA645C1ABF194610467C
S214408CD07FEA655C1CBF0B46024650EA013406BF7D
S214408CE052EA033591EA030F41F4002130BD00BF3C
S214408CF090F0000F04BF0021704730B54FF48064F9
S214408D0004F132044FF000054FF0000150E700BF79
S214408D1090F0000F04BF0021704730B54FF48064D8
S214408D2004F1320410F0004548BF40424FF00001C5
S214408D303EE700BF42004FEAE2014FEA31014FEA08
S214408D4002701FBF12F07F4393F07F4F81F0605157
S214408D50704792F0000F14BF93F07F4F704730B5C6
S214408D604FF4607401F0004521F0004120E700BF59
S214408D7050EA010208BF704730B54FF000050AE0E0
S214408D8050EA010208BF704730B511F0004502D5E1
S214408D90404261EB41014FF4806404F132045FEAE3
S214408DA0915C3FF4DCAE4FF003025FEADC0C18BF88
S214408DB003325FEADC0C18BF033202EBDC02C2F17E
S214408DC0200300FA03FC20FA02F001FA03FE40EA10
S214408DD00E0021FA02F11444C1E600BF70B54FF010
S214408DE0FF0C4CF4E06C1CEA11541DBF1CEA1355F2
S214408DF094EA0C0F95EA0C0F00F0DEF82C4481EA5A
S214408E00030621EA4C5123EA4C5350EA013518BF79
S214408E1052EA033541F4801143F4801338D0A0FB66
S214408E2002CE4FF00005E1FB02E506F00042E0FB13
S214408E3003E54FF00006E1FB03569CF0000F18BF19
S214408E404EF0010EA4F1FF04B6F5007F64F54074C1
S214408E5004D25FEA4E0E6D4146EB060642EAC62154
S214408E6041EA55514FEAC52040EA5E504FEACE2EC1
S214408E70B4F1FD0C88BFBCF5E06F1ED8BEF1004FC4
S214408E8008BF5FEA500E50F1000041EB045170BD40
S214408E9006F0004646EA010140EA020081EA030184
S214408EA0B4EB5C04C2BFD4EB0C0541EA045170BD80
S214408EB041F480114FF0000E013C00F3AB8014F1FA
S214408EC0360FDEBF002001F0004170BDC4F1000443
S214408ED0203C35DA0C341BDC04F11404C4F12005C4
S214408EE000FA05F320FA04F001FA05F240EA02001F
S214408EF001F0004221F0004110EBD37021FA04F655
S214408F0042EB06015EEA430E08BF20EAD37070BD0E
S214408F10C4F10C04C4F1200500FA04F320FA05F06D
S214408F2001FA04F240EA020001F0004110EBD3706F
S214408F3041F100015EEA430E08BF20EAD37070BDDF
S214408F40C4F1200500FA05F24EEA020E20FA04F3B8
S214408F5001FA05F243EA020321FA04F001F0004167
S214408F6021FA04F220EA020000EBD3705EEA430ED8
S214408F7008BF20EAD37070BD94F0000F0FD101F007
S214408F800046400041EB010111F4801F08BF013C40
S214408F90F7D041EA060195F0000F18BF704703F07E
S214408FA00046520043EB030313F4801F08BF013D05
S214408FB0F7D043EA0603704794EA0C0F0CEA1355C1
S214408FC018BF95EA0C0F0CD050EA410618BF52EA7B
S214408FD04306D1D181EA030101F000414FF0000081
S214408FE070BD50EA410606BF1046194652EA43068F
S214408FF019D094EA0C0F02D150EA013613D195EA03
S2144090000C0F05D152EA03361CBF104619460AD14A
S21440901081EA030101F0004141F0FE4141F4700154
S2144090204FF0000070BD41F0FE4141F4780170BD44
S21440903070B54FF0FF0C4CF4E06C1CEA11541DBFA9
S2144090401CEA135594EA0C0F95EA0C0F00F0A7F8AB
S214409050A4EB050481EA030E52EA03354FEA0131D8
S21440906000F088804FEA03334FF0805545EA1313EB
S21440907043EA12634FEA022245EA111545EA1065B3
S2144090804FEA00260EF000419D4208BF964244F14A
S214409090FD0404F5407402D25B084FEA3202B61A69
S2144090A065EB03055B084FEA32024FF480104FF43D
S2144090B0002CB6EB020E75EB030E22BFB61A7546B1
S2144090C040EA0C005B084FEA3202B6EB020E75EB44
S2144090D0030E22BFB61A754640EA5C005B084FEAAC
S2144090E03202B6EB020E75EB030E22BFB61A754679
S2144090F040EA9C005B084FEA3202B6EB020E75EB84
S214409100030E22BFB61A754640EADC0055EA060E44
S21440911018D04FEA051545EA16754FEA06164FEA87
S214409120C30343EA52734FEAC2025FEA1C1CC0D133
S21440913011F4801F0BD141EA00014FF000004FF0C0
S214409140004CB6E711F4801F04BF01430020B4F181
S214409150FD0C88BFBCF5E06F3FF6AFAEB5EB030C39
S21440916004BFB6EB020C5FEA500C50F1000041EB36
S214409170045170BD0EF0004E4EEA113114EB5C0403
S214409180C2BFD4EB0C0541EA045170BD41F48011D6
S2144091904FF0000E013C90E645EA060E8DE60CEADE
S2144091A0135594EA0C0F08BF95EA0C0F3FF43BAFFB
S2144091B094EA0C0F0AD150EA01347FF434AF95EAB2
S2144091C00C0F7FF425AF104619462CE795EA0C0F96
S2144091D006D152EA03353FF4FDAE1046194622E763
S2144091E050EA410618BF52EA43067FF4C5AE50EA3D
S2144091F041047FF40DAF52EA43057FF4EBAE12E72D
S2144092004FF0FF3C06E000BF4FF0010C02E000BF0D
S2144092104FF0010C4DF804CD4FEA410C7FEA6C5CF0
S2144092204FEA430C18BF7FEA6C5C1BD001B050EA93
S214409230410C0CBF52EA430C91EA030F02BF90EA7E
S214409240020F0020704710F1000F91EA030F58BF3D
S214409250994208BF90422CBFD8176FEAE37040F09F
S214409260010070474FEA410C7FEA6C5C02D150EA3D
S214409270013C07D14FEA430C7FEA6C5CD6D152EAF8
S214409280033CD3D05DF8040B704700BF84461046BD
S21440929062468C461946634600E000BF01B5FFF7BC
S2144092A0B7FF002848BF10F1000F01BD4DF808ED8C
S2144092B0FFF7F4FF0CBF012000205DF808FB00BF5D
S2144092C04DF808EDFFF7EAFF34BF012000205DF8B7
S2144092D008FB00BF4DF808EDFFF7E0FF94BF012004
S2144092E000205DF808FB00BF4DF808EDFFF7CEFF05
S2144092F094BF012000205DF808FB00BF4DF808ED44
S214409300FFF7C4FF34BF012000205DF808FB00BF14
S2144093104FEA410C7FEA6C5C02D150EA013C0AD12C
S2144093204FEA430C7FEA6C5C02D152EA033C02D11E
S2144093304FF0000070474FF0010070474FEA41027F
S21440934012F5001215D211D56FF47873B3EB625252
S21440935012D94FEAC12343F0004343EA505311F079
S214409360004F23FA02F018BF404270474FF000000B
S214409370704750EA013005D111F0004008BF6FF049
S214409380004070474FF00000704700BFFFFFFFFFF0
S214409390FFFFFFFFFFFFFFFFFFFFFFFFFFFFFFFF98
S2144093A0FFFFFFFFFFFFFFFFFFFFFFFFFFFFFFFF88
S2144093B0FFFFFFFFFFFFFFFFFFFFFFFFFFFFFFFF78
S2144093C0FFFFFFFFFFFFFFFFFFFFFFFFFFFFFFFF68
S21440F370FFFFFFFFFFFFFFFFFFFFFFFEFFFFFDFF5B
S21440F380FFFEFEFFFEFEFEFFFEFCFFFEFCFFFEFD58
S21440F390FFFEFDFFFEFFFEFEFFFEFEFEFFFEFDFF44
S21440F3A0FEFEFFFEFFFFFFFFFFFFFFFFFFFFFFFF2B
S21440F3B0FFFFFFFFFFFFFFFFFFFFFFFFFFFFFFFF18
S21440F3C0FFFFFFFFFFFFFFFFFFFFFFFFFFFFFFFF08
S21440F3D0FFFFFFFFFFFFFFFFFFFFFFFFFFFFFFFFF8
S21440F3E0FFFFFFFFFFFFFFFFFFFFFFFFFFFFFFFFE8
S21440F730FFFFFFFFFFFFFFFFFEFFFCFDFEFCFEFEA0
S21440F740FEFDFDFEFEFEFBFCFDFBFDFEFDFCFEFCA5
S21440F750FEFEFEFDFEFEFEFDFDFDFDFDFDFDFEFE8C
S21440F760FEFFFFFFFFFFFFFFFFFFFFFFFFFFFFFF65
S21440F770FFFFFFFFFFFFFFFFFFFFFFFFFFFFFFFF54
S21440F780FFFFFFFFFFFFFFFFFFFFFFFFFFFFFFFF44
S21440F790FFFFFFFFFFFFFFFFFFFFFFFFFFFFFFFF34
S21440F7A0FFFFFFFFFFFFFFFFFFFFFFFFFFFFFFFF24
S21440FAF0FFFFFFFFFCFFFDFBFEFCFCFBFBFEFEFEEC
S21440FB00FEFDFFFDFDFFFEFCFFFCFEFFFDFEFFFAD7
S21440FB10FEFFFBFFFFFCFEFEFBFEFEFDFEFFFFFFC3
S21440FB20FFFFFFFFFFFFFFFFFFFFFFFFFFFFFFFFA0
S21440FB30FFFFFFFFFFFFFFFFFFFFFFFFFFFFFFFF90
S21440FB40FFFFFFFFFFFFFFFFFFFFFFFFFFFFFFFF80
S21440FB50FFFFFFFFFFFFFFFFFFFFFFFFFFFFFFFF70
S21440FEB0FFFDFEFFFDFEFFFEFDFFFDFEFEFDFDFD20
S21440FEC0FEF9F9FAF7F5FDF4EFFDF0F1FAFDFCFC6A
S21440FED0FDFEFEFDFEFDFEFEFEFEFEFFFFFFFFFFFB
S21440FEE0FFFFFFFFFFFFFFFFFFFFFFFFFFFFFFFFDD
S21440FEF0FFFFFFFFFFFFFFFFFFFFFFFFFFFFFFFFCD
S21440FF00FFFFFFFFFFFFFFFFFFFFFFFFFFFFFFFFBC
S21440FF10FFFFFFFFFFFFFFFFFFFFFFFFFFFFFFFFAC
S214410260FFFFFFFFFFFFFFFFFFFFFFFFFFFFFFFE59
S214410270FFFEFDFEFEFDFCFCEDEDF0C0C5E88D9AEF
S214410280E16479D65166E17085F9DFE0FDFDFCFE5B
S214410290FEFEFEFEFBFEFEFCFFFFFFFFFFFFFFFF35
S2144102A0FFFFFFFFFFFFFFFFFFFFFFFFFFFFFFFF18
S2144102B0FFFFFFFFFFFFFFFFFFFFFFFFFFFFFFFF08
S2144102C0FFFFFFFFFFFFFFFFFFFFFFFFFFFFFFFFF8
S2144102D0FFFFFFFFFFFFFFFFFFFFFFFFFFFFFFFFE8
S214410620FFFFFFFFFFFFFFFFFFFFFFFEFEFEFEFD9A
S214410630FBF2CBCEDC677BCE2443CB1033CE0A2EE7
S214410640C90C29D0314DF4CFD0FFFEFDFDFEFEFE94
S214410650FEFDFEFFFDFFFFFFFFFFFFFFFFFFFFFF6A
S214410660FFFFFFFFFFFFFFFFFFFFFFFFFFFFFFFF54
S214410670FFFFFFFFFFFFFFFFFFFFFFFFFFFFFFFF44
S214410680FFFFFFFFFFFFFFFFFFFFFFFFFFFFFFFF34
S214410690FFFFFFFFFFFFFFFFFFFFFFFFFFFFFFFF24
S2144109E0FFFFFFFFFFFFFFFFFEFEFBF5C5CBCD3749
S2144109F055CD0A2DD3112FD01330CC1634CE0B241F
S214410A00D6304AF3CFCEFEFEFDFBFEFFFDFEFEFDD9
S214410A10FFFEFFFFFFFFFFFFFFFFFFFFFFFFFFFFA1
S214410A20FFFFFFFFFFFFFFFFFFFFFFFFFFFFFFFF90
S214410A30FFFFFFFFFFFFFFFFFFFFFFFFFFFFFFFF80
S214410A40FFFFFFFFFFFFFFFFFFFFFFFFFFFFFFFF70
S214410A50FFFFFFFFFFFFFFFFFFFFFFFFFFFFFFFF60
S214410D90FFFFFFFEFEFCFEFEFFFCFDFDFDFDFBFC36
S214410DA0FFFDFBFDFEFAE3E3DD4860CB0F2BCF0FE3
S214410DB032D31133C8112FCC0F3AD32F59D8718A59
S214410DC0F9DDE5FAFEFEF9FEFEFEFDFEFEFEFFFF44
S214410DD0FFFFFFFFFFFFFFFFFFFFFFFFFFFFFFFFDD
S214410DE0FFFFFFFFFFFFFFFFFFFFFFFFFFFFFFFFCD
S214410DF0FFFFFFFFFFFFFFFFFFFFFFFFFFFFFFFFBD
S214410E00FFFFFFFFFFFFFFFFFFFFFFFFFFFFFFFFAC
S214411150FFFFFDFEFDFFFEFDFDFDFEFBFCFEFDFD72
S214411160FBFBEC9CABCB1837CE152FCD1434CB13F1
S21441117035D64C63F4B8C0FEF3EEFDFAF5FCFFFD40
S214411180FEFDFEFEFCFEFCFDFDFDFFFEFFFFFFFF3C
S214411190FFFFFFFFFFFFFFFFFFFFFFFFFFFFFFFF19
S2144111A0FFFFFFFFFFFFFFFFFFFFFFFFFFFFFFFF09
S2144111B0FFFFFFFFFFFFFFFFFFFFFFFFFFFFFFFFF9
S2144111C0FFFFFFFFFFFFFFFFFFFFFFFFFFFFFFFFE9
S214411500FFFFFFFFFFFFFFFFFFFFFFFFFFFEFEFCAA
S214411510FFFEFFFEFDFEFEFEFCFDFEFDFAF0EFDDEA
S2144115205872CD0C2CD11331CD1133D23151F2C674
S214411530C8FEFBF9FEFEFBFBFDFCFCFFFEFEFEFECD
S214411540FDFBFEFCFEFEFCFFFEFFFFFFFFFFFFFF75
S214411550FFFFFFFFFFFFFFFFFFFFFFFFFFFFFFFF55
S214411560FFFFFFFFFFFFFFFFFFFFFFFFFFFFFFFF45
S214411570FFFFFFFFFFFFFFFFFFFFFFFFFFFFFFFF35
S214411580FFFFFFFFFFFFFFFFFFFFFFFFFFFFFFFF25
S2144118C0FFFFFFFFFFFFFFFFFFFFFEFEFCFFFEFFE8
S2144118D0FEFDFEFDFDFDFEFEFEF9E0E0D12C4ACB0D
S2144118E00E2BCC1432CF0B30E16B81FDF3F2FBFEB5
S2144118F0FEFCFEFEFCFEFEFDFEFEFEFDFFFEFDFEC8
S214411900FDFEFEFDFFFEFFFFFFFFFFFFFFFFFFFFA8
S214411910FFFFFFFFFFFFFFFFFFFFFFFFFFFFFFFF91
S214411920FFFFFFFFFFFFFFFFFFFFFFFFFFFFFFFF81
S214411930FFFFFFFFFFFFFFFFFFFFFFFFFFFFFFFF71
S214411940FFFFFFFFFFFFFFFFFFFFFFFFFFFFFFFF61
S214411C80FFFFFFFFFFFFFFFEFFFDFEFCFDFDFDFD2D
S214411C90FDFDFDFFFDFEF5C9CBCE1536CF1331CB8D
S214411CA01433CD0F32E58D9BFEFDFBFCFBFFFEF9A9
S214411CB0FEFEFCFEFCFCFEFBFEFEFDFEFEFEFEFF07
S214411CC0FEFEFFFFFFFFFFFFFFFFFFFFFFFFFFFFE0
S214411CD0FFFFFFFFFFFFFFFFFFFFFFFFFFFFFFFFCE
S214411CE0FFFFFFFFFFFFFFFFFFFFFFFFFFFFFFFFBE
S214411CF0FFFFFFFFFFFFFFFFFFFFFFFFFFFFFFFFAE
S214411D00FFFFFFFFFFFFFFFFFFFFFFFFFFFFFFFF9D
S214412040FFFFFFFFFDFFFCFEFDFEFCFDFCFDFEFD70
S214412050FFFBFFEDB0B6CB0D2DCE1232CC1436CEF3
S2144120600E31EA9CA5FDFEFBFBFEFFFAFEFEFDFEE1
S214412070FDFFFEFEFEFEFEFCFEFEFBFDFFFDFEFF3F
S214412080FFFFFFFFFFFFFFFFFFFFFFFFFFFFFFFF1A
S214412090FFFFFFFFFFFFFFFFFFFFFFFFFFFFFFFF0A
S2144120A0FFFFFFFFFFFFFFFFFFFFFFFFFFFFFFFFFA
S2144120B0FFFFFFFFFFFFFFFFFFFFFFFFFFFFFFFFEA
S2144120C0FFFFFFFFFFFFFFFFFFFFFFFFFFFFFFFFDA
S2144120D0FFFFFFFFFFFFFFFFFFFFFFFFFFFFFFFFCA
S2144120E0FFFFFFFFFFFFFFFFFFFFFFFFFFFFFFFFBA
S2144120F0FFFFFFFFFFFFFFFFFFFFFFFFFFFFFFFFAA
S214412100FFFFFFFFFFFFFFFFFFFFFFFFFFFFFFFF99
S214412110FFFFFFFFFFFFFFFFFFFFFFFFFFFFFFFF89
S214412120FFFFFFFFFFFFFFFFFFFFFFFFFFFFFFFF79
S214412130FFFFFFFFFFFFFFFFFFFFFFFFFFFFFFFF69
S214412140FFFFFFFFFFFFFFFFFFFFFFFFFFFFFFFF59
S214412150FFFFFFFFFFFFFFFFFFFFFFFFFFFFFFFF49
S214412160FFFFFFFFFFFFFFFFFFFFFFFFFFFFFFFF39
S214412170FFFFFFFFFFFFFFFFFFFFFFFFFFFFFFFF29
S214412180FFFFFFFFFFFFFFFFFFFFFFFFFFFFFFFF19
S214412190FFFFFFFFFFFFFFFFFFFFFFFFFFFFFFFF09
S2144121A0FFFFFFFFFFFFFFFFFFFFFFFFFFFFFFFFF9
S2144121B0FFFFFFFFFFFFFFFFFFFFFFFFFFFFFFFFE9
S2144121C0FFFFFFFFFFFFFFFFFFFFFFFFFFFFFFFFD9
S2144121D0FFFFFFFFFFFFFFFFFFFFFFFFFFFFFFFFC9
S2144121E0FFFFFFFFFFFFFFFFFEFEFEFEFEFEFFFFBF
S2144121F0FFFEFEFEFEFEFEFEFEFEFEFEFEFEFEFEB8
S214412200FEFEFEFEFEFEFDFDFDFFFFFFFFFFFFFDA6
S214412210FDFDFEFEFEFEFEFEFEFEFEFEFEFEFFFF98
S214412220FFFFFFFFFFFFFFFDFDFDFFFFFFFFFFFF7E
S214412230FEFEFEFEFEFEFFFFFFFFFFFFFFFFFFFF6E
S214412240FFFFFFFFFFFFFFFFFFFFFFFFFFFFFFFF58
S214412250FFFFFFFFFFFFFFFFFFFFFFFFFFFFFFFF48
S214412260FFFFFFFFFFFFFFFFFFFFFFFFFFFFFFFF38
S214412270FFFFFFFFFFFFFFFFFFFFFFFFFFFFFFFF28
S214412280FFFFFFFFFFFFFFFFFFFFFFFFFFFFFFFF18
S214412290FFFFFFFFFFFFFFFFFFFFFFFFFFFFFFFF08
S2144122A0FFFFFFFFFFFFFFFFFFFFFFFFFFFFFFFFF8
S2144122B0FFFFFFFFFFFFFFFFFFFFFFFFFFFFFFFFE8
S2144122C0FFFFFFFFFFFFFFFFFFFFFFFFFFFFFFFFD8
S2144122D0FFFFFFFFFFFFFFFFFFFFFFFFFFFFFFFFC8
S2144122E0FFFFFFFFFFFFFFFFFFFFFFFFFFFFFFFFB8
S2144122F0FFFFFFFFFFFFFFFFFFFFFFFFFFFFFFFFA8
S214412300FFFFFFFFFFFFFFFFFFFFFFFFFFFFFFFF97
S214412310FFFFFFFFFFFFFFFFFFFFFFFFFFFFFFFF87
S214412320FFFFFFFFFFFFFFFFFFFFFFFFFFFFFFFF77
S214412330FFFFFFFFFFFFFFFFFFFFFFFFFFFFFFFF67
S214412340FFFFFFFFFFFFFFFFFFFFFFFFFFFFFFFF57
S214412350FFFFFFFFFFFFFFFFFFFFFFFFFFFFFFFF47
S214412360FFFFFFFFFFFFFFFFFFFFFFFFFFFFFFFF37
S214412370FFFFFFFFFFFFFFFFFFFFFFFFFFFFFFFF27
S214412380FFFFFFFFFFFFFFFFFFFFFFFFFFFFFFFF17
S214412390FFFFFFFFFFFFFFFFFFFFFFFFFFFFFFFF07
S2144123A0FFFFFFFFFFFFFFFFFFFFFFFFFFFFFFFFF7
S2144123B0FFFFFFFFFFFFFFFFFFFFFFFFFFFFFFFFE7
S2144123C0FFFFFFFFFFFFFFFFFFFFFFFFFFFFFFFFD7
S2144123D0FFFFFFFFFFFFFFFFFFFFFFFFFFFFFFFFC7
S2144123E0FFFFFFFFFFFFFFFFFFFFFFFFFFFFFFFFB7
S2144123F0FFFFFFFFFFFFFFFFFFFFFFFFFFFFFFFFA7
S214412400FFFEFFFCFEFEFEFCFDFDFDFEFEFEFEFFAA
S214412410EDA7AFCB0C2DCE1233D01234C91131ED0E
S214412420A1ACFDFEFDFCFFFEFCFFFEFEFEFEFFFE38
S214412430FDFFFEFEFFFEFFFFFEFFFFFEFFFEFEFE70
S214412440FFFFFFFFFFFFFFFFFFFEFEFEFEFEFEFE5D
S214412450FEFEFEFEFEFDFDFDFFFFFFFFFFFFFFFF51
S214412460FFFFFFFFFFFFFFFEFEFEFEFEFEFEFEFE3F
S214412470FEFEFEFEFEFEFEFEFEFEFEFEFCFCFCFE3C
S214412480FEFEFEFEFEFFFFFFFEFEFEFEFEFEFEFE23
S214412490FEFEFEFEFEFEFEFEFEFEFEFEFEFEFEFE16
S2144124A0FDFDFDFEFEFEFEFEFEFFFFFFFFFFFFFE03
S2144124B0FEFEFEFEFEFFFFFFFFFFFFFDFDFDFEFEF3
S2144124C0FEFEFEFEFEFEFEFEFEFEFEFEFEFEFEFEE6
S2144124D0FEFEFEFFFFFFFFFFFFFFFFFFFFFFFFFFC9
S2144124E0FFFFFFFFFFFFFFFFFFFFFFFFFFFFFFFFB6
S2144124F0FFFFFFFFFFFFFFFFFFFFFFFFFFFFFFFFA6
S214412500FFFFFFFFFFFFFFFFFFFFFFFFFFFFFFFF95
S214412510FFFFFFFFFFFFFFFFFFFFFFFFFFFFFFFF85
S214412520FFFFFFFFFFFFFFFFFFFFFFFFFFFFFFFF75
S214412530FFFFFFFFFFFFFFFFFFFFFFFFFFFFFFFF65
S214412540FFFFFFFFFFFFFFFFFFFFFFFFFFFFFFFF55
S214412550FFFFFFFFFFFFFFFFFFFFFFFFFFFFFFFF45
S214412560FFFFFFFFFFFFFFFFFFFFFFFFFFFFFFFF35
S214412570FFFFFFFFFFFFFFFFFFFFFFFFFFFFFFFF25
S214412580FFFFFFFFFFFFFFFFFFFFFFFFFFFFFFFF15
S214412590FFFFFFFFFFFFFFFFFFFFFFFFFFFFFFFF05
S2144125A0FFFFFFFFFFFEFEFEFCFCFCFEFEFEFEFE06
S2144125B0FEFEFEFEFEFEFEFEFEFEFEFEFEFEFEFEF5
S2144125C0FEFEFEFEFEFEFEFEFEFDFDFDFEFEFEFEE8
S2144125D0FEFEFEFEFEFEFEFEFEFEFEFEFEFEFFFFD3
S2144125E0FFFEFEFEFEFEFEFEFEFEFCFCFCFDFDFDCD
S2144125F0FEFEFEFFFFFFFFFFFFFFFFFFFFFFFFFFA8
S214412600FFFFFFFFFFFFFFFFFFFFFFFFFFFFFFFF94
S214412610FFFFFFFFFFFFFFFFFFFFFFFFFFFFFFFF84
S214412620FFFFFFFFFFFFFFFFFFFFFFFFFFFFFFFF74
S214412630FFFFFFFFFFFFFFFFFFFFFFFFFFFFFFFF64
S214412640FFFFFFFFFFFFFFFFFFFFFFFFFFFFFFFF54
S214412650FFFFFFFFFFFFFFFFFFFFFFFFFFFFFFFF44
S214412660FFFFFFFFFFFFFFFFFFFFFFFFFFFFFFFF34
S214412670FFFFFFFFFFFFFFFFFFFFFFFFFFFFFFFF24
S214412680FFFFFFFFFFFFFFFFFFFFFFFFFFFFFFFF14
S214412690FFFFFFFFFFFFFFFFFFFFFFFFFFFFFFFF04
S2144126A0FFFFFFFFFFFFFFFFFFFFFFFFFFFFFFFFF4
S2144126B0FFFFFFFFFFFFFFFFFFFFFFFFFFFFFFFFE4
S2144126C0FFFFFFFFFFFFFFFFFFFFFFFFFFFFFFFFD4
S2144126D0FFFFFFFFFFFFFFFFFFFFFFFFFFFFFFFFC4
S2144126E0FFFFFFFFFFFFFFFFFFFFFFFFFFFFFFFFB4
S2144126F0FFFFFFFFFFFFFFFFFFFFFFFFFFFFFFFFA4
S214412700FFFFFFFFFFFFFFFFFFFFFFFFFFFFFFFF93
S214412710FFFFFFFFFFFFFFFFFFFFFFFFFFFFFFFF83
S214412720FFFFFFFFFFFFFFFFFFFFFFFFFFFFFFFF73
S214412730FFFFFFFFFFFFFFFFFFFFFFFFFFFFFFFF63
S214412740FFFFFFFFFFFFFFFFFFFFFFFFFFFFFFFF53
S214412750FFFFFFFFFFFFFFFFFFFFFFFFFFFFFFFF43
S214412760FFFFFFFFFFFFFFFFFFFFFFFFFFFFFFFF33
S214412770FFFFFFFFFFFFFFFFFFFFFFFFFFFFFFFF23
S214412780FFFFFFFFFFFFFFFFFFFFFFFFFFFFFFFF13
S214412790FFFFFFFFFFFFFFFFFFFFFFFFFFFFFFFF03
S2144127A0FFFFFFFFFFFFFFFFFFFFFFFFFFFFFFFFF3
S2144127B0FFFFFFFFFFFFFFFFFFFFFFFFFFFFFFFFE3
S2144127C0FDFEFEFFFDFDFFFDFFFFFEFFFFEEA6AF98
S2144127D0CB0B2ECF1233D01231CA1131EBA3AFFE41
S2144127E0FEFDFEFFFDFFFFFFFFFFFFFFFFFFFFFFB9
S2144127F0FFFFFFFFFFFFFFFFFFFFFEFEFEFEFEFEA9
S214412800FDFDFDFEFEFEFEFEFEFEFEFEFDFDFDFDA9
S214412810FDFDFEFEFEFFFFFFFFFFFFFFFFFFFFFF89
S214412820FFFEFEFEFEFEFEFEFEFEFEFEFEFDFDFD84
S214412830FEFEFEFEFEFEFEFEFEFDFDFDFEFEFEFE75
S214412840FEFEFDFDFDFEFEFEFEFEFEFEFEFEFDFD67
S214412850FDFEFEFEFCFCFCFEFEFEFEFEFEFEFEFE59
S214412860FDFDFDFEFEFEFDFDFDFFFFFFFEFEFEFD46
S214412870FDFDFEFEFEFEFEFEFEFEFEFEFEFEFEFE34
S214412880FEFEFEFEFEFEFEFEFEFEFEFEFEFEFEFE22
S214412890FFFFFFFFFFFFFFFFFFFFFFFFFFFFFFFF02
S2144128A0FFFFFFFFFFFFFFFFFFFFFFFFFFFFFFFFF2
S2144128B0FFFFFFFFFFFFFFFFFFFFFFFFFFFFFFFFE2
S2144128C0FFFFFFFFFFFFFFFFFFFFFFFFFFFFFFFFD2
S2144128D0FFFFFFFFFFFFFFFFFFFFFFFFFFFFFFFFC2
S2144128E0FFFFFFFFFFFFFFFFFFFFFFFFFFFFFFFFB2
S2144128F0FFFFFFFFFFFFFFFFFFFFFFFFFFFFFFFFA2
S214412900FFFFFFFFFFFFFFFFFFFFFFFFFFFFFFFF91
S214412910FFFFFFFFFFFFFFFFFFFFFFFFFFFFFFFF81
S214412920FFFFFFFFFFFFFFFFFFFFFFFFFFFFFFFF71
S214412930FFFFFFFFFFFFFFFFFFFFFFFFFFFFFFFF61
S214412940FFFFFFFFFFFFFFFFFFFFFFFFFFFFFFFF51
S214412950FFFFFFFFFFFFFFFFFFFFFFFFFFFFFFFE42
S214412960FEFEFEFEFEFEFEFEFEFEFEF9F9F9F6F660
S214412970F6F7F7F7F8F8F8F7F7F7F6F6F6F8F8F89F
S214412980F6F6F6F5F5F5F8F8F8F7F7F7F5F5F5F79D
S214412990F7F7F7F7F7F5F5F5F8F8F8F8F8F8F7F781
S2144129A0F7F7F7F7F5F5F5FEFEFEFEFEFEFEFEFE38
S2144129B0FFFFFFFFFFFFFFFFFFFFFFFFFFFFFFFFE1
S2144129C0FFFFFFFFFFFFFFFFFFFFFFFFFFFFFFFFD1
S2144129D0FFFFFFFFFFFFFFFFFFFFFFFFFFFFFFFFC1
S2144129E0FFFFFFFFFFFFFFFFFFFFFFFFFFFFFFFFB1
S2144129F0FFFFFFFFFFFFFFFFFFFFFFFFFFFFFFFFA1
S214412A00FFFFFFFFFFFFFFFFFFFFFFFFFFFFFFFF90
S214412A10FFFFFFFFFFFFFFFFFFFFFFFFFFFFFFFF80
S214412A20FFFFFFFFFFFFFFFFFFFFFFFFFFFFFFFF70
S214412A30FFFFFFFFFFFFFFFFFFFFFFFFFFFFFFFF60
S214412A40FFFFFFFFFFFFFFFFFFFFFFFFFFFFFFFF50
S214412A50FFFFFFFFFFFFFFFFFFFFFFFFFFFFFFFF40
S214412A60FFFFFFFFFFFFFFFFFFFFFFFFFFFFFFFF30
S214412A70FFFFFFFFFFFFFFFFFFFFFFFFFFFFFFFF20
S214412A80FFFFFFFFFFFFFFFFFFFFFFFFFFFFFFFF10
S214412A90FFFFFFFFFFFFFFFFFFFFFFFFFFFFFFFF00
S214412AA0FFFFFFFFFFFFFFFFFFFFFFFFFFFFFFFFF0
S214412AB0FFFFFFFFFFFFFFFFFFFFFFFFFFFFFFFFE0
S214412AC0FFFFFFFFFFFFFFFFFFFFFFFFFFFFFFFFD0
S214412AD0FFFFFFFFFFFFFFFFFFFFFFFFFFFFFFFFC0
S214412AE0FFFFFFFFFFFFFFFFFFFFFFFFFFFFFFFFB0
S214412AF0FFFFFFFFFFFFFFFFFFFFFFFFFFFFFFFFA0
S214412B00FFFFFFFFFFFFFFFFFFFFFFFFFFFFFFFF8F
S214412B10FFFFFFFFFFFFFFFFFFFFFFFFFFFFFFFF7F
S214412B20FFFFFFFFFFFFFFFFFFFFFFFFFFFFFFFF6F
S214412B30FFFFFFFFFFFFFFFFFFFFFFFFFFFFFFFF5F
S214412B40FFFFFFFFFFFFFFFFFFFFFFFFFFFFFFFF4F
S214412B50FFFFFFFFFFFFFFFFFFFFFFFFFFFFFFFF3F
S214412B60FFFFFFFFFFFFFFFFFFFFFFFFFFFFFFFF2F
S214412B70FFFFFFFFFFFFFFFFFFFFFFFFFFFDFEFE23
S214412B80FFFDFDFFFDFFFFFEFFFFEEA6AFCB0B2EC9
S214412B90CF1233D01231CA1131EBA3AFFEFEFDFE88
S214412BA0FFFDFFFFFFFFFFFFFFFFFFFFFFFFFFFFF1
S214412BB0FFFFFFFFFBFBFBF7F7F7FEFEFEFCFCFC0F
S214412BC0FDFDFDFEFEFEFDFDFDFEFEFEFEFEFEFEE5
S214412BD0FEFEFEFEFEFEFEFEFEFEFEFEFEFEFFFFCD
S214412BE0FFFEFEFEFEFEFEFEFEFEFFFFFFFEFEFEBB
S214412BF0FDFDFDFDFDFDFEFEFEF9F9F9FCFCFCFECA
S214412C00FEFEFDFDFDFEFEFEFEFEFEFEFEFEFBFBA7
S214412C10FBFEFEFEFEFEFEFEFEFEFEFEFEFEFEFE91
S214412C20FEFEFEFEFEFEFEFEFEFCFCFCFEFEFEFD85
S214412C30FDFDFDFDFDFEFEFEFEFEFEFEFEFEFEFE73
S214412C40FEFEFEFEFEFEFEFDFDFDFCFCFCFEFEFE67
S214412C50FFFFFFFFFFFFFFFFFFFFFFFFFFFFFFFF3E
S214412C60FFFFFFFFFFFFFFFFFFFFFFFFFFFFFFFF2E
S214412C70FFFFFFFFFFFFFFFFFFFFFFFFFFFFFFFF1E
S214412C80FFFFFFFFFFFFFFFFFFFFFFFFFFFFFFFF0E
S214412C90FFFFFFFFFFFFFFFFFFFFFFFFFFFFFFFFFE
S214412CA0FFFFFFFFFFFFFFFFFFFFFFFFFFFFFFFFEE
S214412CB0FFFFFFFFFFFFFFFFFFFFFFFFFFFFFFFFDE
S214412CC0FFFFFFFFFFFFFFFFFFFFFFFFFFFFFFFFCE
S214412CD0FFFFFFFFFFFFFFFFFFFFFFFFFFFFFFFFBE
S214412CE0FFFFFFFFFFFFFFFFFFFFFFFFFFFFFFFFAE
S214412CF0FFFFFFFFFFFFFFFFFFFFFFFFFFFFFFFF9E
S214412D00FFFFFFFFFFFFFFFFFFFFFFFFFFFFFFFF8D
S214412D10FFFFFFFFFFFFFFFFFFFFFFFFFEFEFEFE81
S214412D20FEFEFEFEFEF9F9F98B8B8B40404040409B
S214412D30403F3F3F3F3F3F4040403F3F3F41414153
S214412D404040403E3E3E3E3E3E4040404040403F4A
S214412D503F3F3F3F3F3F3F3F3F3F3F404040404038
S214412D6040757575FCFCFCFEFEFEFEFEFEFFFFFF99
S214412D70FFFFFFFFFFFFFFFFFFFFFFFFFFFFFFFF1D
S214412D80FFFFFFFFFFFFFFFFFFFFFFFFFFFFFFFF0D
S214412D90FFFFFFFFFFFFFFFFFFFFFFFFFFFFFFFFFD
S214412DA0FFFFFFFFFFFFFFFFFFFFFFFFFFFFFFFFED
S214412DB0FFFFFFFFFFFFFFFFFFFFFFFFFFFFFFFFDD
S214412DC0FFFFFFFFFFFFFFFFFFFFFFFFFFFFFFFFCD
S214412DD0FFFFFFFFFFFFFFFFFFFFFFFFFFFFFFFFBD
S214412DE0FFFFFFFFFFFFFFFFFFFFFFFFFFFFFFFFAD
S214412DF0FFFFFFFFFFFFFFFFFFFFFFFFFFFFFFFF9D
S214412E00FFFFFFFFFFFFFFFFFFFFFFFFFFFFFFFF8C
S214412E10FFFFFFFFFFFFFFFFFFFFFFFFFFFFFFFF7C
S214412E20FFFFFFFFFFFFFFFFFFFFFFFFFFFFFFFF6C
S214412E30FFFFFFFFFFFFFFFFFFFFFFFFFFFFFFFF5C
S214412E40FFFFFFFFFFFFFFFFFFFFFFFFFFFFFFFF4C
S214412E50FFFFFFFFFFFFFFFFFFFFFFFFFFFFFFFF3C
S214412E60FFFFFFFFFFFFFFFFFFFFFFFFFFFFFFFF2C
S214412E70FFFFFFFFFFFFFFFFFFFFFFFFFFFFFFFF1C
S214412E80FFFFFFFFFFFFFFFFFFFFFFFFFFFFFFFF0C
S214412E90FFFFFFFFFFFFFFFFFFFFFFFFFFFFFFFFFC
S214412EA0FFFFFFFFFFFFFFFFFFFFFFFFFFFFFFFFEC
S214412EB0FFFFFFFFFFFFFFFFFFFFFFFFFFFFFFFFDC
S214412EC0FFFFFFFFFFFFFFFFFFFFFFFFFFFFFFFFCC
S214412ED0FFFFFFFFFFFFFFFFFFFFFFFFFFFFFFFFBC
S214412EE0FFFFFFFFFFFFFFFFFFFFFFFFFFFFFFFFAC
S214412EF0FFFFFFFFFFFFFFFFFFFFFFFFFFFFFFFF9C
S214412F00FFFFFFFFFFFFFFFFFFFFFFFFFFFFFFFF8B
S214412F10FFFFFFFFFFFFFFFFFFFFFFFFFFFFFFFF7B
S214412F20FFFFFFFFFFFFFFFFFFFFFFFFFFFFFFFF6B
S214412F30FFFFFFFFFFFFFFFFFFFFFDFEFEFFFDFD63
S214412F40FFFDFFFFFEFFFFEEA6AFCB0B2ECF1233EA
S214412F50D01231CA1131EBA3AFFEFEFDFEFFFDFFDD
S214412F60FFFFFFFFFFFFFFFFFFFFFFFFFFFFFFFF2B
S214412F70FFB1B1B16D6D6DFCFCFCFEFEFEFCFCFCD0
S214412F80FCFCFCFEFEFEFEFEFEFEFEFEFEFEFEFE21
S214412F90FEFEFDFDFDFDFDFDFDFDFDFEFEFEFEFE14
S214412FA0FEFEFEFEFDFDFDE2E2E2DBDBDBFDFDFDBE
S214412FB0FDFDFDFBFBFB8D8D8DAFAFAFFDFDFDFE3A
S214412FC0FEFEE2E2E2E1E1E1FCFCFCFEFEFEFDFD8E
S214412FD0FDFEFEFEFEFEFEFEFEFEFEFEFEFEFEFECC
S214412FE0FFFFFFFEFEFEF6F6F6D5D5D5F1F1F1FC74
S214412FF0FCFCFEFEFEFEFEFEFDFDFDFEFEFEFEFEB2
S214413000FEFDFDFDFEFEFEFEFEFEFDFDFDFFFFFF9D
S214413010FFFFFFFFFFFFFFFFFFFFFFFFFFFFFFFF7A
S214413020FFFFFFFFFFFFFFFFFFFFFFFFFFFFFFFF6A
S214413030FFFFFFFFFFFFFFFFFFFFFFFFFFFFFFFF5A
S214413040FFFFFFFFFFFFFFFFFFFFFFFFFFFFFFFF4A
S214413050FFFFFFFFFFFFFFFFFFFFFFFFFFFFFFFF3A
S214413060FFFFFFFFFFFFFFFFFFFFFFFFFFFFFFFF2A
S214413070FFFFFFFFFFFFFFFFFFFFFFFFFFFFFFFF1A
S214413080FFFFFFFFFFFFFFFFFFFFFFFFFFFFFFFF0A
S214413090FFFFFFFFFFFFFFFFFFFFFFFFFFFFFFFFFA
S2144130A0FFFFFFFFFFFFFFFFFFFFFFFFFFFFFFFFEA
S2144130B0FFFFFFFFFFFFFFFFFFFFFFFFFFFFFFFFDA
S2144130C0FFFFFFFFFFFFFFFFFFFFFFFFFFFFFFFFCA
S2144130D0FFFFFFFFFFFFFFFFFFFEFEFEFEFEFEFEC1
S2144130E0FEFEF5F5F55A5A5A0000000000000101AF
S2144130F00100000000000001010101010100000083
S2144131000101010000000000000000000000000076
S2144131100000000000000000000000000000333303
S21441312033FAFAFAFEFEFEFEFEFEFFFFFFFFFFFF4A
S214413130FFFFFFFFFFFFFFFFFFFFFFFFFFFFFFFF59
S214413140FFFFFFFFFFFFFFFFFFFFFFFFFFFFFFFF49
S214413150FFFFFFFFFFFFFFFFFFFFFFFFFFFFFFFF39
S214413160FFFFFFFFFFFFFFFFFFFFFFFFFFFFFFFF29
S214413170FFFFFFFFFFFFFFFFFFFFFFFFFFFFFFFF19
S214413180FFFFFFFFFFFFFFFFFFFFFFFFFFFFFFFF09
S214413190FFFFFFFFFFFFFFFFFFFFFFFFFFFFFFFFF9
S2144131A0FFFFFFFFFFFFFFFFFFFFFFFFFFFFFFFFE9
S2144131B0FFFFFFFFFFFFFFFFFFFFFFFFFFFFFFFFD9
S2144131C0FFFFFFFFFFFFFFFFFFFFFFFFFFFFFFFFC9
S2144131D0FFFFFFFFFFFFFFFFFFFFFFFFFFFFFFFFB9
S2144131E0FFFFFFFFFFFFFFFFFFFFFFFFFFFFFFFFA9
S2144131F0FFFFFFFFFFFFFFFFFFFFFFFFFFFFFFFF99
S214413200FFFFFFFFFFFFFFFFFFFFFFFFFFFFFFFF88
S214413210FFFFFFFFFFFFFFFFFFFFFFFFFFFFFFFF78
S214413220FFFFFFFFFFFFFFFFFFFFFFFFFFFFFFFF68
S214413230FFFFFFFFFFFFFFFFFFFFFFFFFFFFFFFF58
S214413240FFFFFFFFFFFFFFFFFFFFFFFFFFFFFFFF48
S214413250FFFFFFFFFFFFFFFFFFFFFFFFFFFFFFFF38
S214413260FFFFFFFFFFFFFFFFFFFFFFFFFFFFFFFF28
S214413270FFFFFFFFFFFFFFFFFFFFFFFFFFFFFFFF18
S214413280FFFFFFFFFFFFFFFFFFFFFFFFFFFFFFFF08
S214413290FFFFFFFFFFFFFFFFFFFFFFFFFFFFFFFFF8
S2144132A0FFFFFFFFFFFFFFFFFFFFFFFFFFFFFFFFE8
S2144132B0FFFFFFFFFFFFFFFFFFFFFFFFFFFFFFFFD8
S2144132C0FFFFFFFFFFFFFFFFFFFFFFFFFFFFFFFFC8
S2144132D0FFFFFFFFFFFFFFFFFFFFFFFFFFFFFFFFB8
S2144132E0FFFFFFFFFFFFFFFFFFFFFFFFFFFFFFFFA8
S2144132F0FFFFFFFFFFFFFFFDFEFEFFFDFDFFFDFFA2
S214413300FFFEFFFFEEA6AFCB0B2ECF1233D012310E
S214413310CA1131EBA3AFFEFEFDFEFFFDFFFFFFFF2F
S214413320FFFFFFFFFFFFFFFFFFFFFFFFFFFF898953
S21441333089202020FCFCFCFDFDFDFDFDFDFEFEFE82
S214413340FDFDFDFEFEFEFEFEFEFDFDFDFEFEFEFD5E
S214413350FDFDFEFEFEFEFEFEFEFEFEFDFDFDFEFE4C
S214413360FEFEFEFE808080666666FCFCFCFEFEFE7F
S214413370FAFAFAA5A5A5BEBEBEFCFCFCFBFBFB8A81
S2144133808A8A838383F4F4F4FDFDFDFEFEFEFEFE91
S214413390FEFEFEFEFEFEFEFEFEFEFEFEFEFEFEFE07
S2144133A0FEFEFED8D8D84F4F4FC8C8C8FEFEFEFE18
S2144133B0FEFEFEFEFEFEFEFEFEFEFEFEFEFEFFFFE5
S2144133C0FFFDFDFDFEFEFEFFFFFFFFFFFFFFFFFFD0
S2144133D0FFFFFFFFFFFFFFFFFFFFFFFFFFFFFFFFB7
S2144133E0FFFFFFFFFFFFFFFFFFFFFFFFFFFFFFFFA7
S2144133F0FFFFFFFFFFFFFFFFFFFFFFFFFFFFFFFF97
S214413400FFFFFFFFFFFFFFFFFFFFFFFFFFFFFFFF86
S214413410FFFFFFFFFFFFFFFFFFFFFFFFFFFFFFFF76
S214413420FFFFFFFFFFFFFFFFFFFFFFFFFFFFFFFF66
S214413430FFFFFFFFFFFFFFFFFFFFFFFFFFFFFFFF56
S214413440FFFFFFFFFFFFFFFFFFFFFFFFFFFFFFFF46
S214413450FFFFFFFFFFFFFFFFFFFFFFFFFFFFFFFF36
S214413460FFFFFFFFFFFFFFFFFFFFFFFFFFFFFFFF26
S214413470FFFFFFFFFFFFFFFFFFFFFFFFFFFFFFFF16
S214413480FFFFFFFFFFFFFFFFFFFFFFFFFFFFFFFF06
S214413490FFFFFFFFFFFFFFFFFFFDFDFDFEFEFEFB03
S2144134A0FBFBABABAB6B6B6B5454542C2C2C0B0B08
S2144134B00B010101010101000000000000000000B5
S2144134C002020200000000000000000000000003AD
S2144134D003032F2F2F5353536969699C9C9CFDFD11
S2144134E0FDFDFDFDFEFEFEFFFFFFFFFFFFFFFFFFB1
S2144134F0FFFFFFFFFFFFFFFFFFFFFFFFFFFFFFFF96
S214413500FFFFFFFFFFFFFFFFFFFFFFFFFFFFFFFF85
S214413510FFFFFFFFFFFFFFFFFFFFFFFFFFFFFFFF75
S214413520FFFFFFFFFFFFFFFFFFFFFFFFFFFFFFFF65
S214413530FFFFFFFFFFFFFFFFFFFFFFFFFFFFFFFF55
S214413540FFFFFFFFFFFFFFFFFFFFFFFFFFFFFFFF45
S214413550FFFFFFFFFFFFFFFFFFFFFFFFFFFFFFFF35
S214413560FFFFFFFFFFFFFFFFFFFFFFFFFFFFFFFF25
S214413570FFFFFFFFFFFFFFFFFFFFFFFFFFFFFFFF15
S214413580FFFFFFFFFFFFFFFFFFFFFFFFFFFFFFFF05
S214413590FFFFFFFFFFFFFFFFFFFFFFFFFFFFFFFFF5
S2144135A0FFFFFFFFFFFFFFFFFFFFFFFFFFFFFFFFE5
S2144135B0FFFFFFFFFFFFFFFFFFFFFFFFFFFFFFFFD5
S2144135C0FFFFFFFFFFFFFFFFFFFFFFFFFFFFFFFFC5
S2144135D0FFFFFFFFFFFFFFFFFFFFFFFFFFFFFFFFB5
S2144135E0FFFFFFFFFFFFFFFFFFFFFFFFFFFFFFFFA5
S2144135F0FFFFFFFFFFFFFFFFFFFFFFFFFFFFFFFF95
S214413600FFFFFFFFFFFFFFFFFFFFFFFFFFFFFFFF84
S214413610FFFFFFFFFFFFFFFFFFFFFFFFFFFFFFFF74
S214413620FFFFFFFFFFFFFFFFFFFFFFFFFFFFFFFF64
S214413630FFFFFFFFFFFFFFFFFFFFFFFFFFFFFFFF54
S214413640FFFFFFFFFFFFFFFFFFFFFFFFFFFFFFFF44
S214413650FFFFFFFFFFFFFFFFFFFFFFFFFFFFFFFF34
S214413660FFFFFFFFFFFFFFFFFFFFFFFFFFFFFFFF24
S214413670FFFFFFFFFFFFFFFFFFFFFFFFFFFFFFFF14
S214413680FFFFFFFFFFFFFFFFFFFFFFFFFFFFFFFF04
S214413690FFFFFFFFFFFFFFFFFFFFFFFFFFFFFFFFF4
S2144136A0FFFFFFFFFFFFFFFFFFFFFFFFFFFFFFFFE4
S2144136B0FFFFFFFFFDFEFEFFFDFDFFFDFFFFFEFFDF
S2144136C0FFEEA6AFCB0B2ECF1233D01231CA11313B
S2144136D0EBA3AFFEFEFDFEFFFDFFFFFFFFFFFFFF7B
S2144136E0FFFFFFFFFFFFFFFFFFFFFF8D8D8D2A2AA4
S2144136F02AFDFDFDFDFDFDFEFEFEFEFEFEFDFDFD81
S214413700FCFCFCFCFCFCFDFDFDFEFEFEFEFEFEFDA3
S214413710FDFDFEFEFEFCFCFCFEFEFEFEFEFEFBFB91
S214413720FB757575505050FDFDFDFEFEFEFEFEFE1E
S214413730F9F9F9FBFBFBFEFEFEFBFBFB8080807785
S2144137407777F6F6F6FEFEFEFEFEFEFCFCFCFEFE7F
S214413750FEFEFEFEFCFCFCFDFDFDFEFEFEFEFEFE4C
S214413760D5D5D5393939C2C2C2FBFBFBFEFEFEFDBB
S214413770FDFDFEFEFEFBFBFBFEFEFEFEFEFEFDFD30
S214413780FDFEFEFEFEFEFEFFFFFFFFFFFFFFFFFF0B
S214413790FFFFFFFFFFFFFFFFFFFFFFFFFFFFFFFFF3
S2144137A0FFFFFFFFFFFFFFFFFFFFFFFFFFFFFFFFE3
S2144137B0FFFFFFFFFFFFFFFFFFFFFFFFFFFFFFFFD3
S2144137C0FFFFFFFFFFFFFFFFFFFFFFFFFFFFFFFFC3
S2144137D0FFFFFFFFFFFFFFFFFFFFFFFFFFFFFFFFB3
S2144137E0FFFFFFFFFFFFFFFFFFFFFFFFFFFFFFFFA3
S2144137F0FFFFFFFFFFFFFFFFFFFFFFFFFFFFFFFF93
S214413800FFFFFFFFFFFFFFFFFFFFFFFFFFFFFFFF82
S214413810FFFFFFFFFFFFFFFFFFFFFFFFFFFFFFFF72
S214413820FFFFFFFFFFFFFFFFFFFFFFFFFFFFFFFF62
S214413830FFFFFFFFFFFFFFFFFFFFFFFFFFFFFFFF52
S214413840FFFFFFFFFFFFFFFFFFFFFFFFFFFFFFFF42
S214413850FFFFFFFEFEFEFEFEFEFCFCFCFFFFFFFE42
S214413860FEFEFCFCFCFEFEFEFCFCFCCCCCCC4A4A3C
S2144138704A040404020202000000000000000000A6
S2144138800000000202020404044D4D4DD3D3D3FE82
S214413890FEFEFEFEFEFEFEFEFEFEFEFDFDFDFEFE05
S2144138A0FEFFFFFFFFFFFFFFFFFFFFFFFFFFFFFFE3
S2144138B0FFFFFFFFFFFFFFFFFFFFFFFFFFFFFFFFD2
S2144138C0FFFFFFFFFFFFFFFFFFFFFFFFFFFFFFFFC2
S2144138D0FFFFFFFFFFFFFFFFFFFFFFFFFFFFFFFFB2
S2144138E0FFFFFFFFFFFFFFFFFFFFFFFFFFFFFFFFA2
S2144138F0FFFFFFFFFFFFFFFFFFFFFFFFFFFFFFFF92
S214413900FFFFFFFFFFFFFFFFFFFFFFFFFFFFFFFF81
S214413910FFFFFFFFFFFFFFFFFFFFFFFFFFFFFFFF71
S214413920FFFFFFFFFFFFFFFFFFFFFFFFFFFFFFFF61
S214413930FFFFFFFFFFFFFFFFFFFFFEFEFEFEFEFE57
S214413940FFFFFFFEFEFEFEFEFEFFFFFFFEFEFEFE4B
S214413950FEFEFFFFFFFFFFFFFEFEFEFFFFFFFFFF36
S214413960FFFFFFFFFEFEFEFEFEFEFEFEFEFEFEFE2D
S214413970FEFEFEFEFEFEFFFFFFFFFFFFFFFFFFFF17
S214413980FFFFFFFFFFFFFFFFFFFFFFFFFFFFFFFF01
S214413990FFFFFFFFFFFFFFFFFFFFFFFFFFFFFFFFF1
S2144139A0FFFFFFFFFFFFFFFFFFFFFFFFFFFFFFFFE1
S2144139B0FFFFFFFFFFFFFFFFFFFFFFFFFFFFFFFFD1
S2144139C0FFFFFFFFFFFFFFFFFFFFFFFFFFFFFFFFC1
S2144139D0FFFFFFFFFFFFFFFFFFFFFFFFFFFFFFFFB1
S2144139E0FFFFFFFFFFFFFFFFFFFFFFFFFFFFFFFFA1
S2144139F0FFFFFFFFFFFFFFFFFFFFFFFFFFFFFFFF91
S214413A00FFFFFFFFFFFFFFFFFFFFFFFFFFFFFFFF80
S214413A10FFFFFFFFFFFFFFFFFFFFFFFFFFFFFFFF70
S214413A20FFFFFFFFFFFFFFFFFFFFFFFFFFFFFFFF60
S214413A30FFFFFFFFFFFFFFFFFFFFFFFFFFFFFFFF50
S214413A40FFFFFFFFFFFFFFFFFFFFFFFFFFFFFFFF40
S214413A50FFFFFFFFFFFFFFFFFFFFFFFFFFFFFFFF30
S214413A60FFFFFFFFFFFFFFFFFFFFFFFFFFFFFFFF20
S214413A70FFFDFEFEFFFDFDFFFDFFFFFEFFFFEEA685
S214413A80AFCB0B2ECF1233D01231CA1131EBA3AFCD
S214413A90FEFEFDFEFFFDFFFFFFFFFFFFFFFFFFFFF7
S214413AA0FFFFFFFFFFFFFFFF8D8D8D262626FFFFC1
S214413AB0FFDDDDDDA5A5A5CECECE565656494949F4
S214413AC0B9B9B9FBFBFBFDFDFDEAEAEA848484351E
S214413AD03535585858CACACAF7F7F79696963333C3
S214413AE033262626787878CBCBCBF8F8F8AFAFAF2D
S214413AF0C7C7C7FDFDFD8E8E8E3B3B3B36363672C5
S214413B007272C7C7C7EAEAEAA4A4A4DDDDDDFFFFF7
S214413B10FFF6F6F6B2B2B2CBCBCBF1F1F164646408
S214413B201A1A1A5B5B5B7E7E7EECECECF1F1F18F50
S214413B308F8F3636364B4B4BBBBBBBFAFAFAFEFE83
S214413B40FEFEFEFEFFFFFFFFFFFFFFFFFFFFFFFF43
S214413B50FFFFFFFFFFFFFFFFFFFFFFFFFFFFFFFF2F
S214413B60FFFFFFFFFFFFFFFFFFFFFFFFFFFFFFFF1F
S214413B70FFFFFFFFFFFFFFFFFFFFFFFFFFFFFFFF0F
S214413B80FFFFFFFFFFFFFFFFFFFFFFFFFFFFFFFFFF
S214413B90FFFFFFFFFFFFFFFFFFFFFFFFFFFFFFFFEF
S214413BA0FFFFFFFFFFFFFFFFFFFFFFFFFFFFFFFFDF
S214413BB0FFFFFFFFFFFFFFFFFFFFFFFFFFFFFFFFCF
S214413BC0FFFFFFFFFFFFFFFFFFFFFFFFFFFFFFFFBF
S214413BD0FFFFFFFFFFFFFFFFFFFFFFFFFFFFFFFFAF
S214413BE0FFFFFFFFFFFFFFFFFFFFFFFFFFFFFFFF9F
S214413BF0FFFFFFFFFFFFFFFFFFFFFFFFFFFFFFFF8F
S214413C00FFFFFFFFFFFFFFFFFFFFFFFFFFFFFFFF7E
S214413C10FFFFFFFFFFFFFFFFFFFFFFFFFFFFFFFF6E
S214413C20FFFFFFFFFFFEFEFEFEFEFEE3E3E33E3E3A
S214413C303E000000000000000000010101000000FD
S214413C400101014F4F4FE4E4E4FEFEFEFFFFFFFF9C
S214413C50FFFFFFFFFFFFFFFFFFFFFFFFFFFFFFFF2E
S214413C60FFFFFFFFFFFFFFFFFFFFFFFFFFFFFFFF1E
S214413C70FFFFFFFFFFFFFFFFFFFFFFFFFFFFFFFF0E
S214413C80FFFFFFFFFFFFFFFFFFFFFFFFFFFFFFFFFE
S214413C90FFFFFFFFFFFFFFFFFFFFFFFFFFFFFFFFEE
S214413CA0FFFFFFFFFFFFFFFFFFFFFFFFFFFFFFFFDE
S214413CB0FFFFFFFFFFFFFFFFFFFFFFFFFFFFFFFFCE
S214413CC0FFFFFFFFFFFFFFFFFFFFFFFFFFFFFFFFBE
S214413CD0FFFFFFFFFFFFFFFFFFFFFFFFFFFFFFFFAE
S214413CE0FFFFFFFFFFFFFFFFFFFFFFFFFFFFFFFF9E
S214413CF0FFFFFFFFFFFFFFFEFEFEFEFEFEFEFEFE97
S214413D00FEFEFEFEFEFEFEFEFEFEFEFEFEFEFEFF8C
S214413D10FFFFFEFEFEFEFEFEFFFFFFFEFEFEFEFE78
S214413D20FEFCFCFCFEFEFEFEFEFEFEFEFEFEFEFE73
S214413D30FEFEFEFFFFFFFFFFFFFFFFFFFFFFFFFF50
S214413D40FFFFFFFFFFFFFFFFFFFFFFFFFFFFFFFF3D
S214413D50FFFFFFFFFFFFFFFFFFFFFFFFFFFFFFFF2D
S214413D60FFFFFFFFFFFFFFFFFFFFFFFFFFFFFFFF1D
S214413D70FFFFFFFFFFFFFFFFFFFFFFFFFFFFFFFF0D
S214413D80FFFFFFFFFFFFFFFFFFFFFFFFFFFFFFFFFD
S214413D90FFFFFFFFFFFFFFFFFFFFFFFFFFFFFFFFED
S214413DA0FFFFFFFFFFFFFFFFFFFFFFFFFFFFFFFFDD
S214413DB0FFFFFFFFFFFFFFFFFFFFFFFFFFFFFFFFCD
S214413DC0FFFFFFFFFFFFFFFFFFFFFFFFFFFFFFFFBD
S214413DD0FFFFFFFFFFFFFFFFFFFFFFFFFFFFFFFFAD
S214413DE0FFFFFFFFFFFFFFFFFFFFFFFFFFFFFFFF9D
S214413DF0FFFFFFFFFFFFFFFFFFFFFFFFFFFFFFFF8D
S214413E00FFFFFFFFFFFFFFFFFFFFFFFFFFFFFFFF7C
S214413E10FFFFFFFFFFFFFFFFFFFFFFFFFFFFFFFF6C
S214413E20FFFFFFFFFFFFFFFFFFFFFFFFFFFFFDFE5F
S214413E30FEFFFDFDFFFDFFFFFEFFFFEEA6AFCB0B36
S214413E402ECF1233D01231CA1131EBA3AFFEFEFD95
S214413E50FEFFFDFFFFFFFFFFFFFFFFFFFFFFFFFF2F
S214413E60FFFFFFFFFF8C8C8C292929FEFEFEB9B986
S214413E70B91717173B3B3B828282717171383838CC
S214413E80DDDDDDF8F8F87979794040408E8E8E7028
S214413E907070484848CBCBCB8D8D8D2C2C2C212156
S214413EA021696969C3C3C3F9F9F9505050868686BA
S214413EB0FCFCFC828282343434303030666666C123
S214413EC0C1C1D4D4D4343434BBBBBBFEFEFEECEC0F
S214413ED0EC5D5D5D909090F1F1F1595959171717C6
S214413EE0505050696969E4E4E47272723939399222
S214413EF09292767676343434B0B0B0FDFDFDFEFE57
S214413F00FEFFFFFFFFFFFFFFFFFFFFFFFFFFFFFF7C
S214413F10FFFFFFFFFFFFFFFFFFFFFFFFFFFFFFFF6B
S214413F20FFFFFFFFFFFFFFFFFFFFFFFFFFFFFFFF5B
S214413F30FFFFFFFFFFFFFFFFFFFFFFFFFFFFFFFF4B
S214413F40FFFFFFFFFFFFFFFFFFFFFFFFFFFFFFFF3B
S214413F50FFFFFFFFFFFFFFFFFFFFFFFFFFFFFFFF2B
S214413F60FFFFFFFFFFFFFFFFFFFFFFFFFFFFFFFF1B
S214413F70FFFFFFFFFFFFFFFFFFFFFFFFFFFFFFFF0B
S214413F80FFFFFFFFFFFFFFFFFFFFFFFFFFFFFFFFFB
S214413F90FFFFFFFFFFFFFFFFFFFFFFFFFFFFFFFFEB
S214413FA0FFFFFFFFFFFFFFFFFFFFFFFFFFFFFFFFDB
S214413FB0FFFFFFFFFFFFFFFFFFFFFFFFFFFFFFFFCB
S214413FC0FFFFFFFFFFFFFFFFFFFFFFFFFFFFFFFFBB
S214413FD0FFFFFFFFFFFFFFFFFFFFFFFFFFFFFFFFAB
S214413FE0FFFFFEFEFEFEFEFEFBFBFB8A8A8A00000A
S214413FF0000000000000000000000000000A0A0A5D
S214414000909090FCFCFCFEFEFEFFFFFFFFFFFFFFD3
S214414010FFFFFFFFFFFFFFFFFFFFFFFFFFFFFFFF6A
S214414020FFFFFFFFFFFFFFFFFFFFFFFFFFFFFFFF5A
S214414030FFFFFFFFFFFFFFFFFFFFFFFFFFFFFFFF4A
S214414040FFFFFFFFFFFFFFFFFFFFFFFFFFFFFFFF3A
S214414050FFFFFFFFFFFFFFFFFFFFFFFFFFFFFFFF2A
S214414060FFFFFFFFFFFFFFFFFFFFFFFFFFFFFFFF1A
S214414070FFFFFFFFFFFFFFFFFFFFFFFFFFFFFFFF0A
S214414080FFFFFFFFFFFFFFFFFFFFFFFFFFFFFFFFFA
S214414090FFFFFFFFFFFFFFFFFFFFFFFFFFFFFFFFEA
S2144140A0FFFFFFFFFFFFFFFFFFFFFFFFFFFFFFFFDA
S2144140B0FFFFFFFFFEFEFEFEFEFEFEFEFEFEFEFED6
S2144140C0FFFFFFFEFEFEFEFEFEFEFEFEFEFEFEFEC7
S2144140D0FEFEFEFEFEFFFFFFFEFEFEFDFDFDFEFEBA
S2144140E0FEFEFEFEFEFEFEFEFEFEFEFEFEFFFFFFA7
S2144140F0FFFFFFFFFFFFFFFFFFFFFFFFFFFFFFFF8A
S214414100FFFFFFFFFFFFFFFFFFFFFFFFFFFFFFFF79
S214414110FFFFFFFFFFFFFFFFFFFFFFFFFFFFFFFF69
S214414120FFFFFFFFFFFFFFFFFFFFFFFFFFFFFFFF59
S214414130FFFFFFFFFFFFFFFFFFFFFFFFFFFFFFFF49
S214414140FFFFFFFFFFFFFFFFFFFFFFFFFFFFFFFF39
S214414150FFFFFFFFFFFFFFFFFFFFFFFFFFFFFFFF29
S214414160FFFFFFFFFFFFFFFFFFFFFFFFFFFFFFFF19
S214414170FFFFFFFFFFFFFFFFFFFFFFFFFFFFFFFF09
S214414180FFFFFFFFFFFFFFFFFFFFFFFFFFFFFFFFF9
S214414190FFFFFFFFFFFFFFFFFFFFFFFFFFFFFFFFE9
S2144141A0FFFFFFFFFFFFFFFFFFFFFFFFFFFFFFFFD9
S2144141B0FFFFFFFFFFFFFFFFFFFFFFFFFFFFFFFFC9
S2144141C0FFFFFFFFFFFFFFFFFFFFFFFFFFFFFFFFB9
S2144141D0FFFFFFFFFFFFFFFFFFFFFFFFFFFFFFFFA9
S2144141E0FFFFFFFFFFFFFFFFFFFFFFFDFEFEFFFD9F
S2144141F0FDFFFDFFFFFEFFFFEEA6AFCB0B2ECF125E
S21441420033D01231CA1131EBA3AFFEFEFDFEFFFDE6
S214414210FFFFFFFFFFFFFFFFFFFFFFFFFFFFFFFF68
S214414220FFFF8D8D8D292929FEFEFEB9B9B92F2FA5
S2144142302FBDBDBDFCFCFCD2D2D2363636CBCBCB65
S214414240F2F2F2464646969696FEFEFEFAFAFAC90D
S214414250C9C9EAEAEAFDFDFD727272515151FCFC90
S214414260FCFEFEFEF9F9F9595959888888FCFCFC90
S214414270FBFBFB7B7B7B727272F5F5F5FEFEFED88F
S214414280D8D8393939BDBDBDFEFEFEEDEDED5F5FD7
S2144142905F8E8E8EFEFEFED5D5D5393939C4C4C45F
S2144142A0FDFDFDCACACA333333BCBCBCFCFCFCF6BC
S2144142B0F6F67D7D7D515151F9F9F9FFFFFFFFFF7C
S2144142C0FFFFFFFFFFFFFFFFFFFFFFFFFFFFFFFFB8
S2144142D0FFFFFFFFFFFFFFFFFFFFFFFFFFFFFFFFA8
S2144142E0FFFFFFFFFFFFFFFFFFFFFFFFFFFFFFFF98
S2144142F0FFFFFFFFFFFFFFFFFFFFFFFFFFFFFFFF88
S214414300FFFFFFFFFFFFFFFFFFFFFFFFFFFFFFFF77
S214414310FFFFFFFFFFFFFFFFFFFFFFFFFFFFFFFF67
S214414320FFFFFFFFFFFFFFFFFFFFFFFFFFFFFFFF57
S214414330FFFFFFFFFFFFFFFFFFFFFFFFFFFFFFFF47
S214414340FFFFFFFFFFFFFFFFFFFFFFFFFFFFFFFF37
S214414350FFFFFFFFFFFFFFFFFFFFFFFFFFFFFFFF27
S214414360FFFFFFFFFFFFFFFFFFFFFFFFFFFFFFFF17
S214414370FFFFFFFFFFFFFFFFFFFFFFFFFFFFFFFF07
S214414380FFFFFFFFFFFFFFFFFFFFFFFFFFFFFFFFF7
S214414390FFFFFFFFFFFFFFFFFFFFFFFFFFFFFFFEE8
S2144143A0FEFEFFFFFFFEFEFEA8A8A80000000000DC
S2144143B000000000010101000000131313A6A6A689
S2144143C0FEFEFEFEFEFEFFFFFFFFFFFFFFFFFFFFBD
S2144143D0FFFFFFFFFFFFFFFFFFFFFFFFFFFFFFFFA7
S2144143E0FFFFFFFFFFFFFFFFFFFFFFFFFFFFFFFF97
S2144143F0FFFFFFFFFFFFFFFFFFFFFFFFFFFFFFFF87
S214414400FFFFFFFFFFFFFFFFFFFFFFFFFFFFFFFF76
S214414410FFFFFFFFFFFFFFFFFFFFFFFFFFFFFFFF66
S214414420FFFFFFFFFFFFFFFFFFFFFFFFFFFFFFFF56
S214414430FFFFFFFFFFFFFFFFFFFFFFFFFFFFFFFF46
S214414440FFFFFFFFFFFFFFFFFFFFFFFFFFFFFFFF36
S214414450FFFFFFFFFFFFFFFFFFFFFFFFFFFFFFFF26
S214414460FFFFFFFFFFFFFFFFFFFFFFFFFFFFFFFF16
S214414470FFFEFEFEFDFDFDFEFEFEFEFEFEFEFEFE18
S214414480FEFEFEFEFEFEFEFEFEFEFEFEFFFFFFFD04
S214414490FDFDFEFEFEFEFEFEFEFEFEF4F4F4DDDD58
S2144144A0DDDBDBDBFBFBFBFEFEFEFEFEFEFFFFFF76
S2144144B0FFFFFFFFFFFFFFFFFFFFFFFFFFFFFFFFC6
S2144144C0FFFFFFFFFFFFFFFFFFFFFFFFFFFFFFFFB6
S2144144D0FFFFFFFFFFFFFFFFFFFFFFFFFFFFFFFFA6
S2144144E0FFFFFFFFFFFFFFFFFFFFFFFFFFFFFFFF96
S2144144F0FFFFFFFFFFFFFFFFFFFFFFFFFFFFFFFF86
S214414500FFFFFFFFFFFFFFFFFFFFFFFFFFFFFFFF75
S214414510FFFFFFFFFFFFFFFFFFFFFFFFFFFFFFFF65
S214414520FFFFFFFFFFFFFFFFFFFFFFFFFFFFFFFF55
S214414530FFFFFFFFFFFFFFFFFFFFFFFFFFFFFFFF45
S214414540FFFFFFFFFFFFFFFFFFFFFFFFFFFFFFFF35
S214414550FFFFFFFFFFFFFFFFFFFFFFFFFFFFFFFF25
S214414560FFFFFFFFFFFFFFFFFFFFFFFFFFFFFFFF15
S214414570FFFFFFFFFFFFFFFFFFFFFFFFFFFFFFFF05
S214414580FFFFFFFFFFFFFFFFFFFFFFFFFFFFFFFFF5
S214414590FFFFFFFFFFFFFFFFFFFFFFFFFFFFFFFFE5
S2144145A0FFFFFFFFFFFFFFFFFDFEFEFFFDFDFFFDDF
S2144145B0FFFFFEFFFFEEA6AFCB0B2ECF1233D0127E
S2144145C031CA1131EBA3AFFEFEFDFEFFFDFFFFFF3B
S2144145D0FFFFFFFFFFFFFFFFFFFFFFFFFFFFFF8E16
S2144145E08E8E282828FEFEFEB8B8B83C3C3CDCDC63
S2144145F0DCFEFEFED6D6D6383838C5C5C5F9F9F93B
S2144146007A7A7A2F2F2F9C9C9CEBEBEBFDFDFDFDE0
S214414610FDFDFDFDFD6E6E6E515151FCFCFCFEFE36
S214414620FEF9F9F9565656888888FCFCFCFBFBFBDC
S214414630797979707070F3F3F3FEFEFED7D7D73AE7
S2144146403A3ABBBBBBFCFCFCEEEEEE5E5E5E8E8E8B
S2144146508EFEFEFED5D5D5383838C2C2C2FEFEFE25
S214414660B0B0B0464646DFDFDFFEFEFEFEFEFEABE6
S214414670ABAB282828F9F9F9FDFDFDFFFFFFFFFF49
S214414680FFFFFFFFFFFFFFFFFFFFFFFFFFFFFFFFF4
S214414690FFFFFFFFFFFFFFFFFFFFFFFFFFFFFFFFE4
S2144146A0FFFFFFFFFFFFFFFFFFFFFFFFFFFFFFFFD4
S2144146B0FFFFFFFFFFFFFFFFFFFFFFFFFFFFFFFFC4
S2144146C0FFFFFFFFFFFFFFFFFFFFFFFFFFFFFFFFB4
S2144146D0FFFFFFFFFFFFFFFFFFFFFFFFFFFFFFFFA4
S2144146E0FFFFFFFFFFFFFFFFFFFFFFFFFFFFFFFF94
S2144146F0FFFFFFFFFFFFFFFFFFFFFFFFFFFFFFFF84
S214414700FFFFFFFFFFFFFFFFFFFFFFFFFFFFFFFF73
S214414710FFFFFFFFFFFFFFFFFFFFFFFFFFFFFFFF63
S214414720FFFFFFFFFFFFFFFFFFFFFFFFFFFFFFFF53
S214414730FFFFFFFFFFFFFFFFFFFFFFFFFFFFFFFF43
S214414740FFFFFFFFFFFFFFFFFFFFFFFFFFFFFFFF33
S214414750FFFFFFFFFFFFFFFFFFFFFFFFFEFEFEFE27
S214414760FEFEFEFEFEB0B0B00303030000000000F4
S21441477000000000000000141414A9A9A9FEFEFEC2
S214414780FFFFFFFFFFFFFFFFFFFFFFFFFFFFFFFFF3
S214414790FFFFFFFFFFFFFFFFFFFFFFFFFFFFFFFFE3
S2144147A0FFFFFFFFFFFFFFFFFFFFFFFFFFFFFFFFD3
S2144147B0FFFFFFFFFFFFFFFFFFFFFFFFFFFFFFFFC3
S2144147C0FFFFFFFFFFFFFFFFFFFFFFFFFFFFFFFFB3
S2144147D0FFFFFFFFFFFFFFFFFFFFFFFFFFFFFFFFA3
S2144147E0FFFFFFFFFFFFFFFFFFFFFFFFFFFFFFFF93
S2144147F0FFFFFFFFFFFFFFFFFFFFFFFFFFFFFFFF83
S214414800FFFFFFFFFFFFFFFFFFFFFFFFFFFFFFFF72
S214414810FFFFFFFFFFFFFFFFFFFFFFFFFFFFFFFF62
S214414820FFFFFFFFFFFFFFFFFFFFFFFFFFFFFEFE54
S214414830FEFEFEFEFEFEFEFEFEFEFFFFFFFEFEFE4F
S214414840FDFDFDFDFDFDF9F9F9F1F1F1D1D1D19D66
S2144148509D9D66666639393916161601010144442E
S21441486044DFDFDFFEFEFEFEFEFEFFFFFFFFFFFF33
S214414870FFFFFFFFFFFFFFFFFFFFFFFFFFFFFFFF02
S214414880FFFFFFFFFFFFFFFFFFFFFFFFFFFFFFFFF2
S214414890FFFFFFFFFFFFFFFFFFFFFFFFFFFFFFFFE2
S2144148A0FFFFFFFFFFFFFFFFFFFFFFFFFFFFFFFFD2
S2144148B0FFFFFFFFFFFFFFFFFFFFFFFFFFFFFFFFC2
S2144148C0FFFFFFFFFFFFFFFFFFFFFFFFFFFFFFFFB2
S2144148D0FFFFFFFFFFFFFFFFFFFFFFFFFFFFFFFFA2
S2144148E0FFFFFFFFFFFFFFFFFFFFFFFFFFFFFFFF92
S2144148F0FFFFFFFFFFFFFFFFFFFFFFFFFFFFFFFF82
S214414900FFFFFFFFFFFFFFFFFFFFFFFFFFFFFFFF71
S214414910FFFFFFFFFFFFFFFFFFFFFFFFFFFFFFFF61
S214414920FFFFFFFFFFFFFFFFFFFFFFFFFFFFFFFF51
S214414930FFFFFFFFFFFFFFFFFFFFFFFFFFFFFFFF41
S214414940FFFFFFFFFFFFFFFFFFFFFFFFFFFFFFFF31
S214414950FFFFFFFFFFFFFFFFFFFFFFFFFFFFFFFF21
S214414960FFFFFFFFFFFDFEFEFFFDFDFFFDFFFFFE1C
S214414970FFFFEEA6AFCB0B2ECF1233D01231CA11AA
S21441498031EBA3AFFEFEFDFEFFFDFFFFFFFFFFFF86
S214414990FFFFFFFFFFFFFFFFFFFFFFFF8D8D8D290D
S2144149A02929FCFCFCB7B7B73A3A3ADEDEDEFDFD14
S2144149B0FDD5D5D5393939C6C6C6FDFDFDEDEDED7A
S2144149C08585851313130D0D0D8B8B8BF5F5F5FE34
S2144149D0FEFE6F6F6F4E4E4EFCFCFCFCFCFCF9F984
S2144149E0F9595959888888FCFCFCFAFAFA7C7C7C8F
S2144149F0707070F5F5F5FCFCFCD8D8D83A3A3ABB5D
S214414A00BBBBFEFEFEEEEEEE5E5E5E8E8E8EFDFD68
S214414A10FDD4D4D4373737C4C4C4FEFEFEA3A3A303
S214414A20505050E6E6E6FEFEFEFEFEFEB9B9B9255A
S214414A302525F2F2F2FFFFFFFFFFFFFFFFFFFFFF1B
S214414A40FFFFFFFFFFFFFFFFFFFFFFFFFFFFFFFF30
S214414A50FFFFFFFFFFFFFFFFFFFFFFFFFFFFFFFF20
S214414A60FFFFFFFFFFFFFFFFFFFFFFFFFFFFFFFF10
S214414A70FFFFFFFFFFFFFFFFFFFFFFFFFFFFFFFF00
S214414A80FFFFFFFFFFFFFFFFFFFFFFFFFFFFFFFFF0
S214414A90FFFFFFFFFFFFFFFFFFFFFFFFFFFFFFFFE0
S214414AA0FFFFFFFFFFFFFFFFFFFFFFFFFFFFFFFFD0
S214414AB0FFFFFFFFFFFFFFFFFFFFFFFFFFFFFFFFC0
S214414AC0FFFFFFFFFFFFFFFFFFFFFFFFFFFFFFFFB0
S214414AD0FFFFFFFFFFFFFFFFFFFFFFFFFFFFFFFFA0
S214414AE0FFFFFFFFFFFFFFFFFFFFFFFFFFFFFFFF90
S214414AF0FFFFFFFFFFFFFFFFFFFFFFFFFFFFFFFF80
S214414B00FFFFFFFFFFFFFFFFFFFFFFFFFFFFFFFF6F
S214414B10FFFFFFFFFFFFFFFFFFFEFEFEFEFEFEFD67
S214414B20FDFDACACAC000000000000000000000041
S214414B3000000000151515A6A6A6FDFDFDFFFFFF0A
S214414B40FFFFFFFFFFFFFFFFFFFFFFFFFFFFFFFF2F
S214414B50FFFFFFFFFFFFFFFFFFFFFFFFFFFFFFFF1F
S214414B60FFFFFFFFFFFFFFFFFFFFFFFFFFFFFFFF0F
S214414B70FFFFFFFFFFFFFFFFFFFFFFFFFFFFFFFFFF
S214414B80FFFFFFFFFFFFFFFFFFFFFFFFFFFFFFFFEF
S214414B90FFFFFFFFFFFFFFFFFFFFFFFFFFFFFFFFDF
S214414BA0FFFFFFFFFFFFFFFFFFFFFFFFFFFFFFFFCF
S214414BB0FFFFFFFFFFFFFFFFFFFFFFFFFFFFFFFFBF
S214414BC0FFFFFFFFFFFFFFFFFFFFFFFFFFFFFFFFAF
S214414BD0FFFFFFFFFFFFFFFFFFFFFFFFFFFFFFFF9F
S214414BE0FFFFFFFFFFFFFFFFFFFFFFFEFEFEFEFE94
S214414BF0FEFEFEFEFCFCFCF8F8F8E0E0E0C4C4C4AF
S214414C008C8C8C585858232323040404000000013C
S214414C100101010101000000000000404040E3E3C3
S214414C20E3FDFDFDFFFFFFFFFFFFFFFFFFFFFFFF70
S214414C30FFFFFFFFFFFFFFFFFFFFFFFFFFFFFFFF3E
S214414C40FFFFFFFFFFFFFFFFFFFFFFFFFFFFFFFF2E
S214414C50FFFFFFFFFFFFFFFFFFFFFFFFFFFFFFFF1E
S214414C60FFFFFFFFFFFFFFFFFFFFFFFFFFFFFFFF0E
S214414C70FFFFFFFFFFFFFFFFFFFFFFFFFFFFFFFFFE
S214414C80FFFFFFFFFFFFFFFFFFFFFFFFFFFFFFFFEE
S214414C90FFFFFFFFFFFFFFFFFFFFFFFFFFFFFFFFDE
S214414CA0FFFFFFFFFFFFFFFFFFFFFFFFFFFFFFFFCE
S214414CB0FFFFFFFFFFFFFFFFFFFFFFFFFFFFFFFFBE
S214414CC0FFFFFFFFFFFFFFFFFFFFFFFFFFFFFFFFAE
S214414CD0FFFFFFFFFFFFFFFFFFFFFFFFFFFFFFFF9E
S214414CE0FFFFFFFFFFFFFFFFFFFFFFFFFFFFFFFF8E
S214414CF0FFFFFFFFFFFFFFFFFFFFFFFFFFFFFFFF7E
S214414D00FFFFFFFFFFFFFFFFFFFFFFFFFFFFFFFF6D
S214414D10FFFFFFFFFFFFFFFFFFFFFFFFFFFFFFFF5D
S214414D20FFFFFDFEFEFFFDFDFFFDFFFFFEFFFFEE69
S214414D30A6AFCB0B2ECF1233D01231CA1131EBA313
S214414D40AFFEFEFDFEFFFDFFFFFFFFFFFFFFFFFF84
S214414D50FFFFFFFFFFFFFFFFFF8D8D8D282828FFF8
S214414D60FFFFB8B8B83B3B3BDCDCDCFEFEFED6D6EC
S214414D70D6373737C8C8C8FEFEFEFEFEFEFCFCFC32
S214414D80EEEEEE9B9B9B2A2A2AA3A3A3FCFCFC6C7B
S214414D906C6C525252FCFCFCFEFEFEF8F8F856567D
S214414DA056888888FCFCFCFBFBFB7979796F6F6F32
S214414DB0F4F4F4FDFDFDD6D6D6383838BEBEBEFE78
S214414DC0FEFEEFEFEF6161618F8F8FFEFEFED5D560
S214414DD0D5373737C3C3C3FCFCFCB0B0B0444444FA
S214414DE0DFDFDFFEFEFEFDFDFDAAAAAA2B2B2BF779
S214414DF0F7F7FFFFFFFFFFFFFFFFFFFFFFFFFFFF8D
S214414E00FFFFFFFFFFFFFFFFFFFFFFFFFFFFFFFF6C
S214414E10FFFFFFFFFFFFFFFFFFFFFFFFFFFFFFFF5C
S214414E20FFFFFFFFFFFFFFFFFFFFFFFFFFFFFFFF4C
S214414E30FFFFFFFFFFFFFFFFFFFFFFFFFFFFFFFF3C
S214414E40FFFFFFFFFFFFFFFFFFFFFFFFFFFFFFFF2C
S214414E50FFFFFFFFFFFFFFFFFFFFFFFFFFFFFFFF1C
S214414E60FFFFFFFFFFFFFFFFFFFFFFFFFFFFFFFF0C
S214414E70FFFFFFFFFFFFFFFFFFFFFFFFFFFFFFFFFC
S214414E80FFFFFFFFFFFFFFFFFFFFFFFFFFFFFFFFEC
S214414E90FFFFFFFFFFFFFFFFFFFFFFFFFFFFFFFFDC
S214414EA0FFFFFFFFFFFFFFFFFFFFFFFFFFFFFFFFCC
S214414EB0FFFFFFFFFFFFFFFFFFFFFFFFFFFFFFFFBC
S214414EC0FFFFFFFFFFFFFFFFFFFFFFFFFFFFFFFFAC
S214414ED0FFFFFFFFFFFFFEFEFEFEFEFEFFFFFFADF4
S214414EE0ADAD00000001010100000000000000001F
S214414EF000141414A8A8A8FDFDFDFEFEFEFFFFFF4A
S214414F00FFFFFFFFFFFFFFFFFFFFFFFFFFFFFFFF6B
S214414F10FFFFFFFFFFFFFFFFFFFFFFFFFFFFFFFF5B
S214414F20FFFFFFFFFFFFFFFFFFFFFFFFFFFFFFFF4B
S214414F30FFFFFFFFFFFFFFFFFFFFFFFFFFFFFFFF3B
S214414F40FFFFFFFFFFFFFFFFFFFFFFFFFFFFFFFF2B
S214414F50FFFFFFFFFFFFFFFFFFFFFFFFFFFFFFFF1B
S214414F60FFFFFFFFFFFFFFFFFFFFFFFFFFFFFFFF0B
S214414F70FFFFFFFFFFFFFFFFFFFFFFFFFFFFFFFFFB
S214414F80FFFFFFFFFFFFFFFFFFFFFFFFFFFFFFFFEB
S214414F90FFFFFFFFFFFFFFFFFFFFFFFFFFFFFFFFDB
S214414FA0FFFFFFFFFFFFFFFFFEFEFEFEFEFEFCFCD7
S214414FB0FCCBCBCB8282824545451717170808089C
S214414FC01C1C1C282828141414010101010101008D
S214414FD00000010101000000404040E2E2E2FEFE26
S214414FE0FEFFFFFFFFFFFFFFFFFFFFFFFFFFFFFF8C
S214414FF0FFFFFFFFFFFFFFFFFFFFFFFFFFFFFFFF7B
S214415000FFFFFFFFFFFFFFFFFFFFFFFFFFFFFFFF6A
S214415010FFFFFFFFFFFFFFFFFFFFFFFFFFFFFFFF5A
S214415020FFFFFFFFFFFFFFFFFFFFFFFFFFFFFFFF4A
S214415030FFFFFFFFFFFFFFFFFFFFFFFFFFFFFFFF3A
S214415040FFFFFFFFFFFFFFFFFFFFFFFFFFFFFFFF2A
S214415050FFFFFFFFFFFFFFFFFFFFFFFFFFFFFFFF1A
S214415060FFFFFFFFFFFFFFFFFFFFFFFFFFFFFFFF0A
S214415070FFFFFFFFFFFFFFFFFFFFFFFFFFFFFFFFFA
S214415080FFFFFFFFFFFFFFFFFFFFFFFFFFFFFFFFEA
S214415090FFFFFFFFFFFFFFFFFFFFFFFFFFFFFFFFDA
S2144150A0FFFFFFFFFFFFFFFFFFFFFFFFFFFFFFFFCA
S2144150B0FFFFFFFFFFFFFFFFFFFFFFFFFFFFFFFFBA
S2144150C0FFFFFFFFFFFFFFFFFFFFFFFFFFFFFFFFAA
S2144150D0FFFFFFFFFFFFFFFFFFFFFFFFFFFFFFFD9C
S2144150E0FEFEFFFDFDFFFDFFFFFEFFFFEEA6AFCB81
S2144150F00B2ECF1233D01231CA1131EBA3AFFEFEC5
S214415100FDFEFFFDFFFFFFFFFFFFFFFFFFFFFFFF6E
S214415110FFFFFFFFFFFF8D8D8D292929FEFEFEB97A
S214415120B9B93B3B3BDDDDDDFEFEFED5D5D5383896
S21441513038C6C6C6F6F6F6A6A6A6DEDEDEFEFEFE37
S214415140F6F6F6585858898989FCFCFC6F6F6F4F04
S2144151504F4FFDFDFDFEFEFEF8F8F8595959888877
S21441516088FDFDFDFBFBFB797979737373F5F5F5E6
S214415170FEFEFED9D9D93F3F3FB5B5B5FCFCFCE0B4
S214415180E0E04646468E8E8EFEFEFED4D4D43737B9
S21441519037C3C3C3FEFEFECCCCCC333333BDBDBD1B
S2144151A0FEFEFEF6F6F67C7C7C525252FBFBFBFE84
S2144151B0FEFEFFFFFFFFFFFFFFFFFFFFFFFFFFFFBB
S2144151C0FFFFFFFFFFFFFFFFFFFFFFFFFFFFFFFFA9
S2144151D0FFFFFFFFFFFFFFFFFFFFFFFFFFFFFFFF99
S2144151E0FFFFFFFFFFFFFFFFFFFFFFFFFFFFFFFF89
S2144151F0FFFFFFFFFFFFFFFFFFFFFFFFFFFFFFFF79
S214415200FFFFFFFFFFFFFFFFFFFFFFFFFFFFFFFF68
S214415210FFFFFFFFFFFFFFFFFFFFFFFFFFFFFFFF58
S214415220FFFFFFFFFFFFFFFFFFFFFFFFFFFFFFFF48
S214415230FFFFFFFFFFFFFFFFFFFFFFFFFFFFFFFF38
S214415240FFFFFFFFFFFFFFFFFFFFFFFFFFFFFFFF28
S214415250FFFFFFFFFFFFFFFFFFFFFFFFFFFFFFFF18
S214415260FFFFFFFFFFFFFFFFFFFFFFFFFFFFFFFF08
S214415270FFFFFFFFFFFFFFFFFFFFFFFFFFFFFFFFF8
S214415280FFFFFFFFFFFFFFFFFFFFFFFFFFFFFFFFE8
S214415290FFFFFFFEFEFEFEFEFEFFFFFFADADAD00D3
S2144152A00000000000000000000000000000141490
S2144152B014A9A9A9FEFEFEFEFEFEFFFFFFFFFFFFAB
S2144152C0FFFFFFFFFFFFFFFFFFFFFFFFFFFFFFFEA9
S2144152D0FEFEFEFEFEFEFEFEFFFFFFFEFEFEFFFFA3
S2144152E0FFFFFFFFFDFDFDFEFEFEFEFEFEFEFEFE97
S2144152F0FEFEFEFEFEFEFEFEFEFEFEFEFFFFFFFF84
S214415300FFFFFEFEFEFEFEFEFEFEFEFFFFFFFFFF70
S214415310FFFFFFFFFFFFFFFFFFFFFFFFFFFFFFFF57
S214415320FFFFFFFFFFFFFFFFFFFFFFFFFFFFFFFF47
S214415330FFFFFFFFFFFFFFFFFFFFFFFFFFFFFFFF37
S214415340FFFFFFFFFEFEFEFEFEFEFFFFFFFEFEFE30
S214415350FEFEFEFEFEFEFEFEFEFFFFFFFDFDFDFE27
S214415360FEFEFEFEFEFEFEFEE6E6E67777772323AA
S214415370230A0A0A2727277B7B7BB7B7B7CFCFCF2E
S214415380D4D4D4C0C0C00C0C0C00000000000000F7
S21441539000000000003F3F3FE1E1E1FFFFFFFEFE6E
S2144153A0FEFEFEFEFFFFFFFFFFFFFFFFFFFFFFFFCB
S2144153B0FFFFFFFEFEFEFFFFFFFFFFFFFFFFFFFFBA
S2144153C0FFFFFEFEFEFFFFFFFFFFFFFFFFFFFFFFAA
S2144153D0FFFFFFFFFFFFFFFFFFFFFFFFFFFFFFFF97
S2144153E0FFFFFFFFFFFFFFFFFFFFFFFFFFFFFFFF87
S2144153F0FFFFFFFFFFFFFFFFFFFFFFFEFEFEFFFF7A
S214415400FFFFFFFFFEFEFEFEFEFEFFFFFFFEFEFE6F
S214415410FFFFFFFFFFFFFEFEFEFFFFFFFFFFFFFF59
S214415420FFFFFFFFFFFEFEFEFEFEFEFEFEFEFDFD53
S214415430FDFFFFFFFEFEFEFEFEFEFFFFFFFFFFFF3E
S214415440FFFFFFFFFFFFFEFEFEFFFFFFFFFFFFFF29
S214415450FFFFFEFEFEFEFEFEFEFEFEFEFEFEFEFE24
S214415460FEFFFFFFFEFEFEFEFEFEFFFFFFFDFDFD13
S214415470FFFFFFFFFFFFFEFEFEFFFFFFFFFFFFFFF9
S214415480FFFFFEFEFEFFFFFFFFFFFFFFFFFFFFFFE9
S214415490FFFFFFFFFFFFFFFFFFFFFFFFFDFEFEFFDA
S2144154A0FDFDFFFDFFFFFEFFFFEEA6AFCB0B2ECFB0
S2144154B01233D01231CA1131EBA3AFFEFEFDFEFF0F
S2144154C0FDFFFFFFFFFFFFFFFFFFFFFFFFFFFFFFA8
S2144154D0FFFFFF8686861C1C1CFEFEFEB5B5B5305A
S2144154E03030DBDBDBFEFEFED3D3D3343434C6C6EA
S2144154F0C6F2F2F2575757464646919191797979D5
S214415500363636BDBDBDFEFEFE8F8F8F2828288ECF
S2144155108E8ED5D5D5F9F9F9515151858585FBFB47
S214415520FBFDFDFD8F8F8F3838388F8F8FCFCFCFD4
S214415530EEEEEE5F5F5F46464699999948484812B7
S21441554012128B8B8BFEFEFEDEDEDE434343686823
S214415550689A9A9AE5E5E57171713636369595956C
S2144155607777772E2E2EB1B1B1FEFEFEFDFDFDFF03
S214415570FFFFFFFFFFFFFFFFFFFFFFFFFFFFFFFFF5
S214415580FFFFFFFFFFFFFFFFFFFFFFFFFFFFFFFFE5
S214415590FFFFFFFFFFFFFFFFFFFFFFFFFFFFFFFFD5
S2144155A0FFFFFFFFFFFFFFFFFFFFFFFFFFFFFFFFC5
S2144155B0FFFFFFFFFFFFFFFFFFFFFFFFFFFFFFFFB5
S2144155C0FFFFFFFFFFFFFFFFFFFFFFFFFFFFFFFFA5
S2144155D0FFFFFFFFFFFFFFFFFFFFFFFFFFFFFFFF95
S2144155E0FFFFFFFFFFFFFFFFFFFFFFFFFFFFFFFF85
S2144155F0FFFFFFFFFFFFFFFFFFFFFFFFFFFFFFFF75
S214415600FFFFFFFFFFFFFFFFFFFFFFFFFFFFFFFF64
S214415610FFFFFFFFFFFFFFFFFFFFFFFFFFFFFFFF54
S214415620FFFFFFFFFFFFFFFFFFFFFFFFFFFFFFFF44
S214415630FFFFFFFFFFFFFFFFFFFFFFFFFFFFFFFF34
S214415640FFFFFFFFFFFFFFFFFFFFFFFFFFFFFFFF24
S214415650FFFFFFFFFFFFFFFFFFACACAC0000000009
S2144156600000000000000000000000141414A9A966
S214415670A9FFFFFFFFFFFFFFFFFFFFFFFFFFFFFF4A
S214415680FFFFFFFFFFFFFFFFFFFEFEFEFDFDFDFFED
S214415690FFFFFFFFFFFFFFFFFEFEFEFEFEFEFEFEDC
S2144156A0FEFEFEFEFEFEFEFCFCFCFDFDFDFEFEFEDD
S2144156B0FEFEFEFEFEFEFFFFFFFEFEFEFEFEFEFEC1
S2144156C0FEFEFDFDFDFDFDFDFEFEFEFEFEFEFDFDBC
S2144156D0FDFEFEFEFEFEFEFFFFFFFFFFFFFFFFFF9C
S2144156E0FFFFFFFFFFFFFFFFFFFFFFFFFFFFFFFF84
S2144156F0FFFFFFFFFFFFFFFFFFFFFFFEFEFEFDFD7B
S214415700FDFEFEFEFEFEFEFEFEFEFDFDFDFEFEFE77
S214415710FDFDFDFEFEFEFDFDFDFEFEFEFEFEFEFD6A
S214415720FDFDD4D4D43D3D3D0101011111118484C8
S21441573084EBEBEBFEFEFEFCFCFCFEFEFEFEFEFEFC
S214415740FBFBFB22222201010100000000000000B9
S21441575000003E3E3EE0E0E0FEFEFEFFFFFFFEFEB6
S214415760FEFEFEFEFDFDFDFEFEFEFEFEFEFEFEFE16
S214415770FEFEFEFDFDFDFEFEFEFEFEFEFEFEFEFE06
S214415780FEFEFFFFFFFFFFFFFFFFFFFFFFFFFFFFE5
S214415790FFFFFFFFFFFFFFFFFFFFFFFFFFFFFFFFD3
S2144157A0FFFFFFFFFFFFFFFFFFFFFFFFFEFEFEFEC7
S2144157B0FEFEFDFDFDFEFEFEFEFEFEFEFEFEFEFEC6
S2144157C0FEFEFEFEFEFEFEFFFFFFFEFEFEFEFEFEB0
S2144157D0FEFEFEFFFFFFFFFFFFFFFFFFFEFEFEFE9A
S2144157E0FEFEFEFEFEFEFEFEFEFEFEFEFEFEFDFD95
S2144157F0FDFEFEFEFEFEFEFEFEFEFEFEFEFEFEFE84
S214415800FEFEFEFFFFFFFEFEFEFEFEFEFDFDFDFE72
S214415810FEFEFEFEFEFEFEFEFEFEFEFEFEFEFDFD64
S214415820FDFFFFFFFEFEFEFEFEFEFEFEFEFEFEFE50
S214415830FDFDFDFEFEFEFDFDFDFDFDFDFEFEFEFE4B
S214415840FEFEFDFDFDFFFFFFFFFFFFFFFFFFFFFF2A
S214415850FFFFFFFFFFFFFFFFFFFDFEFEFFFDFDFF1A
S214415860FDFFFFFEFFFFEEA6AFCB0B2ECF1233D0D0
S2144158701231CA1131EBA3AFFEFEFDFEFFFDFFFF65
S214415880FFFFFFFFFFFFFFFFFFFFFFFFFFFFFFFFE2
S214415890C6C6C6959595FDFDFDDBDBDB9D9D9DEE64
S2144158A0EEEEFEFEFEEAEAEA9D9D9DE2E2E2FEFEA5
S2144158B0FEE5E5E57E7E7E333333434343BBBBBBE8
S2144158C0FEFEFEFCFCFCF1F1F1616161353535BC53
S2144158D0BCBCFAFAFAABABABC5C5C5FDFDFDFFFFD7
S2144158E0FFE0E0E05F5F5F353535B7B7B7FFFFFFF5
S2144158F0D3D3D3565656333333A4A4A4B3B3B3C485
S214415900C4C4FEFEFEFBFBFBAFAFAF3B3B3B464694
S21441591046E9E9E9F2F2F28A8A8A2A2A2A43434385
S214415920BABABAFCFCFCFBFBFBFEFEFEFFFFFFFF28
S214415930FFFFFFFFFFFFFFFFFFFFFFFFFFFFFFFF31
S214415940FFFFFFFFFFFFFFFFFFFFFFFFFFFFFFFF21
S214415950FFFFFFFFFFFFFFFFFFFFFFFFFFFFFFFF11
S214415960FFFFFFFFFFFFFFFFFFFFFFFFFFFFFFFF01
S214415970FFFFFFFFFFFFFFFFFFFFFFFFFFFFFFFFF1
S214415980FFFFFFFFFFFFFFFFFFFFFFFFFFFFFFFFE1
S214415990FFFFFFFFFFFFFFFFFFFFFFFFFFFFFFFFD1
S2144159A0FFFFFFFFFFFFFFFFFFFFFFFFFFFFFFFFC1
S2144159B0FFFFFFFFFFFFFFFFFFFFFFFFFFFFFFFFB1
S2144159C0FFFFFFFFFFFFFFFFFFFFFFFFFFFFFFFFA1
S2144159D0FFFFFFFFFFFFFFFFFFFFFFFFFFFFFFFF91
S2144159E0FFFFFFFFFFFFFFFFFFFFFFFFFFFFFFFF81
S2144159F0FFFFFFFFFFFFFFFFFFFFFFFFFFFFFFFF71
S214415A00FFFFFFFFFFFFFFFFFFFFFFFFFFFFFFFF60
S214415A10FFFFFFFFFFFFACACAC0000000000000042
S214415A200000000000000000141414A9A9A9FFFFFB
S214415A30FFFFFFFFFFFFFFFFFFFFFFFFFFFFFFFF30
S214415A40FFFFFFFFFFFFFEFEFEFDFDFDFFFFFFFF29
S214415A50FFFFFFFFFFFEFEFEFEFEFEFCFCFCFEFE21
S214415A60FEFCFCFCFEFEFEFDFDFDFEFEFEFEFEFE19
S214415A70FEFEFEFEFEFEFEFEFEFEFEFEFEFEFEFE00
S214415A80FEFEFEFEFEFFFFFFFDFDFDFEFEFEFEFEF0
S214415A90FEFCFCFCFFFFFFFFFFFFFFFFFFFFFFFFDA
S214415AA0FFFFFFFFFFFFFFFFFFFFFFFFFFFFFFFFC0
S214415AB0FFFFFFFFFFFFFFFFFEFEFEFEFEFEFEFEB8
S214415AC0FEFEFEFEFEFEFEFEFEFEFEFEFEFEFEFEB0
S214415AD0FEFEFEFFFFFFFFFFFFFEFEFECFCFCF3CE9
S214415AE03C3C020202333333C1C1C1FDFDFDFEFE23
S214415AF0FEFDFDFDFEFEFEFEFEFEFEFEFEFDFDFD86
S214415B002323230000000000000000000000003CAA
S214415B103C3CDEDEDEFEFEFEFEFEFEFEFEFEFEFE43
S214415B20FEFEFEFEFEFEFEFEFEFEFEFEFEFDFDFD52
S214415B30FEFEFEFEFEFEFEFEFEFEFEFEFDFDFDFF41
S214415B40FFFFFFFFFFFFFFFFFFFFFFFFFFFFFFFF1F
S214415B50FFFFFFFFFFFFFFFFFFFFFFFFFFFFFFFF0F
S214415B60FFFFFFFFFFFFFFFFFFFDFDFDFDFDFDFE0C
S214415B70FEFEFEFEFEFEFEFEFEFEFEFEFEFEFEFEFF
S214415B80FEFEFEFEFFFFFFFEFEFEFEFEFEFEFEFEEC
S214415B90FEFEFEFFFFFFFEFEFEFEFEFEFEFEFEFEDC
S214415BA0FEFEFEFEFEFEFEFEFEFEFEFEFEFEFEFECF
S214415BB0FEFDFDFDFEFEFEFEFEFEFEFEFEFEFEFEC2
S214415BC0FEFEFEFEFEFEFEFEFEFEFEFEFEFEFEFEAF
S214415BD0FEFEFEFEFEFEFEFEFEFEFEFEFEFEFEFE9F
S214415BE0FEFEFEFEFEFEFEFEFEFEFEFEFEFEFEFE8F
S214415BF0FFFFFFFDFDFDFDFDFDFDFDFDFBFBFBFE8E
S214415C00FEFEFFFFFFFFFFFFFFFFFFFFFFFFFFFF60
S214415C10FFFFFFFFFFFFFDFEFEFFFDFDFFFDFFFF58
S214415C20FEFFFFEEA6AFCB0B2ECF1233D01231CAFA
S214415C301131EBA3AFFEFEFDFEFFFDFFFFFFFFFFB1
S214415C40FFFFFFFFFFFFFFFFFFFFFFFFFFFEFEFE21
S214415C50FBFBFBFEFEFEFDFDFDFCFCFCFEFEFEFD31
S214415C60FDFDFCFCFCFCFCFCFEFEFEFEFEFEFEFE1C
S214415C70FEFCFCFCFCFCFCFEFEFEFEFEFEFDFDFD0D
S214415C80FEFEFEFEFEFEFDFDFDFCFCFCFCFCFCFEFD
S214415C90FEFEFDFDFDFDFDFDFEFEFEFEFEFEFEFEE4
S214415CA0FEFDFDFDFEFEFEFEFEFEFEFEFEFEFEFED1
S214415CB0FCFCFCFEFEFEFEFEFEFCFCFCFEFEFEFDCB
S214415CC0FDFDFDFDFDFEFEFEFEFEFEFCFCFCFEFEB9
S214415CD0FEFDFDFDFEFEFEFEFEFEFEFEFEFDFDFDA4
S214415CE0FDFDFDFDFDFDFCFCFCFFFFFFFFFFFFFF93
S214415CF0FFFFFFFFFFFFFFFFFFFFFFFFFFFFFFFF6E
S214415D00FFFFFFFFFFFFFFFFFFFFFFFFFFFFFFFF5D
S214415D10FFFFFFFFFFFFFFFFFFFFFFFFFFFFFFFF4D
S214415D20FFFFFFFFFFFFFFFFFFFFFFFFFFFFFFFF3D
S214415D30FFFFFFFFFFFFFFFFFFFFFFFFFFFFFFFF2D
S214415D40FFFFFFFFFFFFFFFFFFFFFFFFFFFFFFFF1D
S214415D50FFFFFFFFFFFFFFFFFFFFFFFFFFFFFFFF0D
S214415D60FFFFFFFFFFFFFFFFFFFFFFFFFFFFFFFFFD
S214415D70FFFFFFFFFFFFFFFFFFFFFFFFFFFFFFFFED
S214415D80FFFFFFFFFFFFFFFFFFFFFFFFFFFFFFFFDD
S214415D90FFFFFFFFFFFFFFFFFFFFFFFFFFFFFFFFCD
S214415DA0FFFFFFFFFFFFFFFFFFFFFFFFFFFFFFFFBD
S214415DB0FFFFFFFFFFFFFFFFFFFFFFFFFFFFFFFFAD
S214415DC0FFFFFFFFFFFFFFFFFFFFFFFFFFFFFFFF9D
S214415DD0FFFFFFACACAC000000000000000000007C
S214415DE00000000000141414A9A9A9FFFFFFFFFF3B
S214415DF0FFFFFFFFFFFFFFFFFFFFFFFFFFFFFFFF6D
S214415E00FFFFFFFEFEFEFEFEFEFEFEFEFEFEFEFE69
S214415E10FEFEFEFEFEFEFEFEFDFDFDFDFDFDFEFE62
S214415E20FEFEFEFEFEFEFEFEFEFEFDFDFDFEFEFE4F
S214415E30FEFEFEFEFEFEFEFEFEFEFEFEFEFEFEFE3C
S214415E40FEFEFFFFFFFEFEFEFEFEFEFEFEFEFEFE29
S214415E50FEFFFFFFFFFFFFFFFFFFFFFFFFFFFFFF0D
S214415E60FFFFFFFFFFFFFFFFFFFFFFFFFFFFFFFFFC
S214415E70FFFFFFFFFFFEFEFEFEFEFEFEFEFEFEFEF7
S214415E80FEFDFDFDFDFDFDFEFEFEFEFEFEFEFEFEF2
S214415E90FEFEFEFEFEFEE0E0E03D3D3D000000373A
S214415EA03737CCCCCCFEFEFEFCFCFCFDFDFDFEFEF9
S214415EB0FEFEFEFEFEFEFEFEFEFEFCFCFC23232353
S214415EC00000000000000000000000003B3B3BDDFE
S214415ED0DDDDFFFFFFFEFEFEFEFEFEFFFFFFFEFED8
S214415EE0FEFEFEFEFFFFFFFEFEFEFEFEFEFEFEFE89
S214415EF0FEFEFEFDFDFDFEFEFEFEFEFEFFFFFFFF7B
S214415F00FFFFFFFFFFFFFFFFFFFFFFFFFFFFFFFF5B
S214415F10FFFFFFFFFFFFFFFFFFFFFFFFFFFFFFFF4B
S214415F20FFFFFFFEFEFEFEFEFEFEFEFEFDFDFDFD4C
S214415F30FDFDFEFEFEFEFEFEFDFDFDFEFEFEFDFD42
S214415F40FDFFFFFFFFFFFFFEFEFEFEFEFEFEFEFE26
S214415F50FFFFFFFEFEFEFEFEFEFEFEFEFEFEFEFE18
S214415F60FEFEFFFFFFFEFEFEFEFEFEFEFEFEFEFE08
S214415F70FEFDFDFDFEFEFEFEFEFEFEFEFEFEFEFEFE
S214415F80FFFFFFFFFFFFFFFFFFFDFDFDFFFFFFFEE2
S214415F90FEFEFDFDFDFEFEFEFEFEFEFEFEFEFEFEDE
S214415FA0FEFDFDFDFEFEFEFEFEFEFEFEFEFDFDFDD1
S214415FB0FEFEFEFCFCFCFEFEFEFEFEFEFDFDFDFFC3
S214415FC0FFFFFFFFFFFFFFFFFFFFFFFFFFFFFFFF9B
S214415FD0FFFFFFFDFEFEFFFDFDFFFDFFFFFEFFFF96
S214415FE0EEA6AFCB0B2ECF1233D01231CA1131EB06
S214415FF0A3AFFEFEFDFEFFFDFFFFFFFFFFFFFFFF1E
S214416000FFFFFFFFFFFFFFFFFFFFFEFEFEFEFEFE60
S214416010FEFEFEFEFEFEFEFEFEFDFDFDFEFEFEFE5D
S214416020FEFEFDFDFDFEFEFEFEFEFEFDFDFDFFFF4E
S214416030FFFDFDFDFEFEFEFEFEFEFEFEFEFEFEFE3C
S214416040FEFEFEFDFDFDFEFEFEFCFCFCFDFDFDFE36
S214416050FEFEFEFEFEFEFEFEFEFEFEFDFDFDFEFE1D
S214416060FEFDFDFDFDFDFDFDFDFDFEFEFEFEFEFE13
S214416070FEFEFEFEFEFEFEFEFEFDFDFDFEFEFEFEFD
S214416080FEFEFDFDFDFEFEFEFDFDFDFEFEFEFDFDF2
S214416090FDFEFEFEFDFDFDFEFEFEFDFDFDFEFEFEE1
S2144160A0FDFDFDFDFDFDFFFFFFFFFFFFFFFFFFFFC6
S2144160B0FFFFFFFFFFFFFFFFFFFFFFFFFFFFFFFFAA
S2144160C0FFFFFFFFFFFFFFFFFFFFFFFFFFFFFFFF9A
S2144160D0FFFFFFFFFFFFFFFFFFFFFFFFFFFFFFFF8A
S2144160E0FFFFFFFFFFFFFFFFFFFFFFFFFFFFFFFF7A
S2144160F0FFFFFFFFFFFFFFFFFFFFFFFFFFFFFFFF6A
S214416100FFFFFFFFFFFFFFFFFFFFFFFFFFFFFFFF59
S214416110FFFFFFFFFFFFFFFFFFFFFFFFFFFFFFFF49
S214416120FFFFFFFFFFFFFFFFFFFFFFFFFFFFFFFF39
S214416130FFFFFFFFFFFFFFFFFFFFFFFFFFFFFFFF29
S214416140FFFFFFFFFFFFFFFFFFFFFFFFFFFFFFFF19
S214416150FFFFFFFFFFFFFFFFFFFFFFFFFFFFFFFF09
S214416160FFFFFFFFFFFFFFFFFFFFFFFFFFFFFFFFF9
S214416170FFFFFFFFFFFFFFFFFFFFFFFFFFFFFFFFE9
S214416180FFFFFFFFFFFFFFFFFFFFFFFFFFFFFFFFD9
S214416190ACACAC00000000000000000000000000B5
S2144161A00000141414A9A9A9FFFFFFFFFFFFFFFF7A
S2144161B0FFFFFFFFFFFFFFFFFFFFFFFFFFFFFFFFA9
S2144161C0FEFEFEFFFFFFFEFEFEFEFEFEFEFEFEFEA6
S2144161D0FEFEFEFEFEFEFEFEFFFFFFFFFFFFFAFA9B
S2144161E0FAFEFEFEFCFCFCFEFEFEFCFCFCFEFEFE99
S2144161F0FEFEFEFDFDFDFEFEFEF9F9F9F8F8F8FD9E
S214416200FDFDFEFEFEFEFEFEFFFFFFFCFCFCFFFF6B
S214416210FFFFFFFFFFFFFFFFFFFFFFFFFFFFFFFF48
S214416220FFFFFFFFFFFFFFFFFFFFFFFFFFFFFFFF38
S214416230FFFFFFFFFFFEFEFEFEFEFEFEFEFEFDFD35
S214416240FDFDFDFDF8F8F8F1F1F1F8F8F8FEFEFE77
S214416250FBFBFB6363630101010D0D0D9B9B9BFBE8
S214416260FBFBFEFEFEFDFDFDFDFDFDFEFEFEFDFD16
S214416270FDFEFEFEFEFEFEFBFBFB22222200000090
S2144162800000000000000000003A3A3ADCDCDCFF87
S214416290FFFFFFFFFFFEFEFEFEFEFEFFFFFFFEFED0
S2144162A0FEFCFCFCF8F8F8FAFAFAFEFEFEFDFDFDEF
S2144162B0FDFDFDFEFEFEFDFDFDFDFDFDFFFFFFFFBD
S2144162C0FFFFFFFFFFFFFFFFFFFFFFFFFFFFFFFF98
S2144162D0FFFFFFFFFFFFFFFFFFFFFFFFFFFFFFFF88
S2144162E0FEFEFEFDFDFDFEFEFEFDFDFDFEFEFEFE8E
S2144162F0FEFEFEFEFEFCFCFCF8F8F8FAFAFAFEFE9C
S214416300FEFCFCFCFDFDFDFEFEFEFFFFFFFDFDFD70
S214416310FDFDFDFFFFFFFCFCFCFEFEFEFEFEFEFE5D
S214416320FEFEFFFFFFFEFEFEFFFFFFFEFEFEFEFE41
S214416330FEFEFEFEFEFEFEFEFEFEFEFEFEFEFEFE37
S214416340FDFDFDFBFBFBFEFEFEFDFDFDFDFDFDFE39
S214416350FEFEFCFCFCFCFCFCFEFEFEFDFDFDFAFA2E
S214416360FAFAFAFAFDFDFDFEFEFEFEFEFEFEFEFE1A
S214416370FCFCFCFDFDFDFEFEFEFEFEFEFFFFFFFFFC
S214416380FFFFFFFFFFFFFFFFFFFFFFFFFFFFFFFFD7
S214416390FDFEFEFFFDFDFFFDFFFFFEFFFFEEA6AF8C
S2144163A0CB0B2ECF1233D01231CA1131EBA3AFFE35
S2144163B0FEFDFEFFFDFFFFFFFFFFFFFFFFFFFFFFAD
S2144163C0FFFFFFFFFFFFFFFEFEFEFEFEFEFCFCFCA6
S2144163D0FEFEFEFDFDFDFEFEFEFEFEFEFDFDFDFE9D
S2144163E0FEFEFDFDFDFEFEFEFEFEFEFDFDFDFEFE8D
S2144163F0FEFEFEFEFDFDFDFFFFFFFEFEFEFEFEFE77
S214416400FEFEFEFEFEFEFDFDFDFEFEFEFDFDFDFE6C
S214416410FEFEFDFDFDFEFEFEFDFDFDFEFEFEFEFE5C
S214416420FEFBFBFBFEFEFEFEFEFEFEFEFEFDFDFD52
S214416430FEFEFEFEFEFEFEFEFEFDFDFDFEFEFEFE39
S214416440FEFEFAFAFAFEFEFEFEFEFEFEFEFEFFFF30
S214416450FFFEFEFEFDFDFDFDFDFDFEFEFEFFFFFF18
S214416460FEFEFEFFFFFFFFFFFFFFFFFFFFFFFFFFF9
S214416470FFFFFFFFFFFFFFFFFFFFFFFFFFFFFFFFE6
S214416480FFFFFFFFFFFFFFFFFFFFFFFFFFFFFFFFD6
S214416490FFFFFFFFFFFFFFFFFFFFFFFFFFFFFFFFC6
S2144164A0FFFFFFFFFFFFFFFFFFFFFFFFFFFFFFFFB6
S2144164B0FFFFFFFFFFFFFFFFFFFFFFFFFFFFFFFFA6
S2144164C0FFFFFFFFFFFFFFFFFFFFFFFFFFFFFFFF96
S2144164D0FFFFFFFFFFFFFFFFFFFFFFFFFFFFFFFF86
S2144164E0FFFFFFFFFFFFFFFFFFFFFFFFFFFFFFFF76
S2144164F0FFFFFFFFFFFFFFFFFFFFFFFFFFFFFFFF66
S214416500FFFFFFFFFFFFFFFFFFFFFFFFFFFFFFFF55
S214416510FFFFFFFFFFFFFFFFFFFFFFFFFFFFFFFF45
S214416520FFFFFFFFFFFFFFFFFFFFFFFFFFFFFFFF35
S214416530FFFFFFFFFFFFFFFFFFFFFFFFFFFFFFFF25
S214416540FFFFFFFFFFFFFFFFFFFFFFFFFFACACAC0E
S21441655000000000000000000000000000000014E1
S2144165601414A9A9A9FFFFFFFFFFFFFFFFFFFFFFCD
S214416570FFFFFFFFFFFFFFFFFFFFFFFFFFFDFDFDEB
S214416580FEFEFEFEFEFEFEFEFEFDFDFDF8F8F8E711
S214416590E7E7BCBCBC8B8B8B535353595959ECEC36
S2144165A0ECFEFEFEFEFEFEFEFEFEF9F9F9CFCFCF73
S2144165B07979793939392222222222222E2E2E5FCA
S2144165C05F5FB1B1B1F0F0F0FEFEFEFFFFFFFFFFEF
S2144165D0FFFFFFFFFFFFFFFFFFFFFFFFFFFFFFFF85
S2144165E0FFFFFFFFFFFFFFFFFFFFFFFFFFFFFFFE76
S2144165F0FEFEFDFDFDFBFBFBD2D2D27F7F7F3E3E02
S2144166003E1F1F1F17171719191937373751515181
S2144166100909090000001B1B1BB7B7B7FEFEFEFDAC
S214416620FDFDFDFDFDFDFDFDFEFEFEFFFFFFFEFE49
S214416630FEFEFEFEFDFDFD242424000000000000B9
S214416640000000000000393939DADADAFEFEFEFED3
S214416650FEFEFDFDFDF6F6F6C1C1C16767672F2F49
S2144166602F2020201D1D1D323232646464B1B1B129
S214416670F0F0F0FEFEFEFEFEFEFFFFFFFFFFFFFF17
S214416680FFFFFFFFFFFFFFFFFFFFFFFFFFFFFFFFD4
S214416690FFFFFFFFFFFFFFFFFFFFFFFFFFFEFEFEC7
S2144166A0FCFCFCFEFEFEFBFBFBDADADA939393522C
S2144166B052522B2B2B1D1D1D1D1D1D2929294D4DAC
S2144166C04D858585D0D0D0F5F5F5FEFEFEFEFEFE65
S2144166D0FCFCFCFDFDFDFEFEFEFEFEFEFFFFFFFD9B
S2144166E0FDFDFEFEFEFBFBFBFBFBFBFDFDFDEDEDBD
S2144166F0EDD4D4D4B4B4B48D8D8D65656547474724
S214416700636363F1F1F1FFFFFFFEFEFEFEFEFEFE58
S214416710FEFEF5F5F5AEAEAE5656562929291E1E95
S2144167201E3939398D8D8DEDEDEDFEFEFEFFFFFFF5
S214416730FEFEFEFDFDFDFEFEFEFFFFFFFFFFFFFF2F
S214416740FFFFFFFFFFFFFFFFFFFFFFFFFFFDFEFE17
S214416750FFFDFDFFFDFFFFFEFFFFEEA6AFCB0B2EBD
S214416760CF1233D01231CA1131EBA3AFFEFEFDFE7C
S214416770FFFDFFFFFFFFFFFFFFFFFFFFFFFFFFFFE5
S214416780FFFFFFFFFFFFFFFEFEFEFFFFFFFEFEFED9
S214416790FEFEFEFAFAFAFEFEFEFEFEFEFDFDFDFEE2
S2144167A0FEFEFEFEFEFCFCFCFEFEFEFEFEFEFEFEC9
S2144167B0FEFEFEFEFCFCFCFEFEFEFEFEFEFEFEFEB9
S2144167C0FBFBFBFDFDFDFEFEFEFCFCFCFBFBFBFDBF
S2144167D0FDFDFCFCFCFEFEFEFCFCFCFEFEFEFEFEA1
S2144167E0FEFEFEFEFEFEFEFDFDFDFEFEFEFCFCFC8C
S2144167F0FCFCFCFEFEFEFEFEFEFDFDFDFDFDFDFE7F
S214416800FEFEFEFEFEFCFCFCFEFEFEFCFCFCFDFD70
S214416810FDFEFEFEFDFDFDFEFEFEFCFCFCFEFEFE5C
S214416820FFFFFFFFFFFFFFFFFFFFFFFFFFFFFFFF32
S214416830FFFFFFFFFFFFFFFFFFFFFFFFFFFFFFFF22
S214416840FFFFFFFFFFFFFFFFFFFFFFFFFFFFFFFF12
S214416850FFFFFFFFFFFFFFFFFFFFFFFFFFFFFFFF02
S214416860FFFFFFFFFFFFFFFFFFFFFFFFFFFFFFFFF2
S214416870FFFFFFFFFFFFFFFFFFFFFFFFFFFFFFFFE2
S214416880FFFFFFFFFFFFFFFFFFFFFFFFFFFFFFFFD2
S214416890FFFFFFFFFFFFFFFFFFFFFFFFFFFFFFFFC2
S2144168A0FFFFFFFFFFFFFFFFFFFFFFFFFFFFFFFFB2
S2144168B0FFFFFFFFFFFFFFFFFFFFFFFFFFFFFFFFA2
S2144168C0FFFFFFFFFFFFFFFFFFFFFFFFFFFFFFFF92
S2144168D0FFFFFFFFFFFFFFFFFFFFFFFFFFFFFFFF82
S2144168E0FFFFFFFFFFFFFFFFFFFFFFFFFFFFFFFF72
S2144168F0FFFFFFFFFFFFFFFFFFFFFFFFFFFFFFFF62
S214416900FFFFFFFFFFFFFFFFFFFFACACAC00000047
S214416910000000000000000000000000141414A94C
S214416920A9A9FFFFFFFFFFFFFFFFFFFFFFFFFFFFDD
S214416930FFFFFFFFFFFFFFFFFFFFFFFFFFD5D5D59F
S2144169409C9C9C7676764E4E4E2A2A2A0E0E0E0039
S2144169500000000000000000353535ECECECFEFE92
S214416960FEFAFAFAC2C2C25D5D5D0E0E0E0000006E
S21441697001010100000000000000000001010103C8
S2144169800303373737ABABABF4F4F4FFFFFFFEFE40
S214416990FEFEFEFEFEFEFEFEFEFEFEFEFEFFFFFFCE
S2144169A0FEFEFEFEFEFEFEFEFEFEFEFEF8F8F8BB16
S2144169B0BBBB555555070707000000000000000007
S2144169C0000101010000000000000000000101017B
S2144169D0000000030303626262D3D3D3F4F4F4FDF0
S2144169E0FDFDFEFEFEFEFEFEFFFFFFFEFEFEFEFE80
S2144169F0FEFCFCFC212121000000000000000000FC
S214416A00000000373737D8D8D8FEFEFEEBEBEBA7B1
S214416A10A7A73E3E3E050505000000010101000016
S214416A20000101010000000101010000002E2E2E90
S214416A30919191E6E6E6FEFEFEFFFFFFFEFEFEFFBB
S214416A40FFFFFFFFFFFEFEFEFFFFFFFEFEFEFEFE18
S214416A50FEFEFEFEFEFEFEFFFFFFFEFEFEE9E9E94C
S214416A60AEAEAE51515110101000000001010100B0
S214416A7000000101010000000000000000000000CD
S214416A80000606063F3F3F9C9C9CE3E3E3FDFDFD7D
S214416A90FFFFFFFDFDFDFEFEFEFEFEFEFEFEFEEFDF
S214416AA0EFEF8B8B8B4343432525251414140404A5
S214416AB004000000020202010101000000343434E7
S214416AC0F3F3F3FEFEFEFEFEFEF6F6F6C0C0C03E53
S214416AD03E3E0505050101010000000000000000E2
S214416AE0000000002F2F2FB6B6B6FAFAFAFDFDFDCC
S214416AF0FEFEFEFFFFFFFFFFFFFFFFFFFFFFFFFF63
S214416B00FFFFFFFFFFFFFFFFFFFFFDFEFEFFFDFD57
S214416B10FFFDFFFFFEFFFFEEA6AFCB0B2ECF1233DE
S214416B20D01231CA1131EBA3AFFEFEFDFEFFFDFFD1
S214416B30FFFFFFFFFFFFFFFFFFFFFFFFFFFFFFFF1F
S214416B40FFFFFFFFFEFEFEFEFEFEFEFEFEFCFCFC21
S214416B50ABABABB1B1B1FEFEFEFEFEFEFEFEFEFDF0
S214416B60FDFDFEFEFEFEFEFEFEFEFEFDFDFDFEFE04
S214416B70FEFEFEFEFEFEFEFEFEFEF0F0F0AAAAAA15
S214416B80888888858585888888898989878787E1EF
S214416B90E1E1FEFEFEFFFFFFFDFDFDFEFEFEFDFD0B
S214416BA0FDFEFEFEFFFFFFFEFEFEFEFEFEFEFEFEBD
S214416BB0FEFEFEFFFFFFFEFEFEFEFEFEFEFEFEB8F2
S214416BC0B8B8A9A9A9FBFBFBFFFFFFFEFEFEFEFE30
S214416BD0FEFEFEFEFEFEFEFEFEFEFDFDFDFEFEFE92
S214416BE0FEFEFEFEFEFEFEFEFEFEFEFEFEFEFEFE7F
S214416BF0FEFEFEFEFEFEFEFEFEFEFEFEFEFEFFFF6D
S214416C00FFFFFFFFFFFFFFFFFFFFFFFFFFFFFFFF4E
S214416C10FFFFFFFFFFFFFFFFFFFFFFFFFFFFFFFF3E
S214416C20FFFFFFFFFFFFFFFFFFFFFFFFFFFFFFFF2E
S214416C30FFFFFFFFFFFFFFFFFFFFFFFFFFFFFFFF1E
S214416C40FFFFFFFFFFFFFFFFFFFFFFFFFFFFFFFF0E
S214416C50FFFFFFFFFFFFFFFFFFFFFFFFFFFFFFFFFE
S214416C60FFFFFFFFFFFFFFFFFFFFFFFFFFFFFFFFEE
S214416C70FFFFFFFFFFFFFFFFFFFFFFFFFFFFFFFFDE
S214416C80FFFFFFFFFFFFFFFFFFFFFFFFFFFFFFFFCE
S214416C90FFFFFFFFFFFFFFFFFFFFFFFFFFFFFFFFBE
S214416CA0FFFFFFFFFFFFFFFFFFFFFFFFFFFFFFFFAE
S214416CB0FFFFFFFFFFFFFFFFFFFFFFFFFFFFFFFF9E
S214416CC0FFFFFFFFFFFFFFACACAC00000000000081
S214416CD0000000000000000000141414A9A9A9FF38
S214416CE0FFFFFFFFFFFFFFFFFFFFFFFFFFFFFFFF6E
S214416CF0FFFFFFFFFFFFFFFEFEFE62626201010132
S214416D00000000000000000000000000000000013C
S214416D100101000000343434EDEDEDECECEC8989F2
S214416D208925252501010100000000000000000022
S214416D30000000000000000000000000000000000D
S214416D4000000E0E0E8A8A8AF5F5F5FEFEFEFEFE60
S214416D50FEFDFDFDFEFEFEFEFEFEFEFEFEFEFEFE10
S214416D60FDFDFDFDFDFDFCFCFC98989822222200CD
S214416D7000000000000808083F3F3F6565657070E9
S214416D80706363634040400F0F0F01010100000034
S214416D90010101050505353535707070BDBDBDF77E
S214416DA0F7F7FEFEFEFFFFFFFEFEFEFEFEFEFCFCCC
S214416DB0FC22222200000000000001010100000028
S214416DC0363636D5D5D5C9C9C95858580F0F0F01CB
S214416DD00101010101000000010101000000020261
S214416DE0020000000101010000000000000303034F
S214416DF05D5D5DD7D7D7FDFDFDFEFEFEFEFEFEFEC8
S214416E00FEFEFEFEFEFEFEFEFDFDFDFDFDFDFEFE62
S214416E10FEFEFEFEFBFBFBC9C9C95E5E5E0B0B0BAD
S214416E200000000000000B0B0B3A3A3A6060606FBE
S214416E306F6F6969694949491616160000000000D6
S214416E40000000000A0A0A555555C8C8C8FEFEFE8D
S214416E50FEFEFEFEFEFEFDFDFDFEFEFEE3E3E34717
S214416E60474700000000000000000000000000004E
S214416E7000020202000000000000383838F4F4F442
S214416E80FEFEFEF5F5F59898981A1A1A00000000CD
S214416E9000000000000000000000000000000000AC
S214416EA000010101242424BBBBBBFDFDFDFEFEFE0B
S214416EB0FFFFFFFFFFFFFFFFFFFFFFFFFFFFFFFF9C
S214416EC0FFFFFFFFFFFFFFFDFEFEFFFDFDFFFDFF96
S214416ED0FFFEFFFFEEA6AFCB0B2ECF1233D0123103
S214416EE0CA1131EBA3AFFEFEFDFEFFFDFFFFFFFF24
S214416EF0FFFFFFFFFFFFFFFFFFFFFFFFFFFFFDFD60
S214416F00FDFEFEFEFDFDFDFEFEFEFEFEFE43434390
S214416F10545454FEFEFEFEFEFEFDFDFDFDFDFDFE4F
S214416F20FEFEFEFEFEFEFEFEFDFDFDFEFEFEFDFD40
S214416F30FDFDFDFDFDFDFDDEDEDE434343505050CD
S214416F40737373757575747474737373DCDCDCFEFC
S214416F50FEFEFFFFFFFDFDFDFEFEFEFDFDFDFEFE0E
S214416F60FEFEFEFEFEFEFEFDFDFDFDFDFDFDFDFD04
S214416F70FEFEFEFDFDFDFEFEFEFEFEFE9696967EA6
S214416F807E7EFAFAFAFDFDFDFDFDFDFEFEFEFDFDEF
S214416F90FDFEFEFEFDFDFDFEFEFEFEFEFEFEFEFECF
S214416FA0FCFCFCFEFEFEFEFEFEFDFDFDFEFEFEFEC4
S214416FB0FEFEFEFEFEFEFEFEFEFEFEFFFFFFFFFFA6
S214416FC0FFFFFFFFFFFFFFFFFFFFFFFFFFFFFFFF8B
S214416FD0FFFFFFFFFFFFFFFFFFFFFFFFFFFFFFFF7B
S214416FE0FFFFFFFFFFFFFFFFFFFFFFFFFFFFFFFF6B
S214416FF0FFFFFFFFFFFFFFFFFFFFFFFFFFFFFFFF5B
S214417000FFFFFFFFFFFFFFFFFFFFFFFFFFFFFFFF4A
S214417010FFFFFFFFFFFFFFFFFFFFFFFFFFFFFFFF3A
S214417020FFFFFFFFFFFFFFFFFFFFFFFFFFFFFFFF2A
S214417030FFFFFFFFFFFFFFFFFFFFFFFFFFFFFFFF1A
S214417040FFFFFFFFFFFFFFFFFFFFFFFFFFFFFFFF0A
S214417050FFFFFFFFFFFFFFFFFFFFFFFFFFFFFFFFFA
S214417060FFFFFFFFFFFFFFFFFFFFFFFFFFFFFFFFEA
S214417070FFFFFFFFFFFFFFFFFFFFFFFFFFFFFFFFDA
S214417080FFFFFFFFACACAC000000000000000000BA
S214417090000000000000141414A9A9A9FFFFFFFF77
S2144170A0FFFFFFFFFFFFFFFFFFFFFFFFFFFFFFFFAA
S2144170B0FFFFFFFFFEFEFE7777770606060101011A
S2144170C0000000030303000000000000000000026F
S2144170D002023A3A3ADFDFDF6565650C0C0C0000C8
S2144170E00000000000000000000003030300000051
S2144170F00000000000000000000000000101010047
S21441710000001B1B1BB1B1B1FEFEFEFCFCFCFEFEEB
S214417110FEFEFEFEFEFEFEFEFEFEFDFDFDFEFEFE4C
S214417120FEFEFE9F9F9F1313130000000000000EFB
S2144171300E0E959595DEDEDEF1F1F1F5F5F5F0F002
S214417140F0DEDEDEA9A9A921212100000000000011
S2144171500101010101010202022B2B2BB6B6B6FD3D
S214417160FDFDFFFFFFFEFEFEFEFEFEFCFCFC2222B6
S214417170220000000000000101010000002A2A2A26
S2144171808383833232320101010000000101010094
S2144171900000000000020202010101010101020299
S2144171A00200000000000000000000000007070782
S2144171B05B5B5BE8E8E8FEFEFEFDFDFDFEFEFEFED7
S2144171C0FEFEFEFEFEFEFEFEFDFDFDFEFEFEFDFD9E
S2144171D0FDBCBCBC36363605050500000001010184
S2144171E02A2A2A9E9E9EDCDCDCEFEFEFF5F5F5F2CF
S2144171F0F2F2E4E4E4B4B4B43F3F3F0101010202D9
S214417200020000000404042E2E2ED2D2D2FEFEFE30
S214417210FEFEFEFEFEFEFCFCFCF2F2F29F9F9F5736
S21441722057572626260101010000000000000000F5
S21441723000000000000000353535F4F4F4FCFCFC99
S214417240AAAAAA1C1C1C000000000000020202019F
S21441725001010000000000000000000000000202E2
S21441726002030303555555E7E7E7FBFBFBFFFFFF2B
S214417270FFFFFFFFFFFFFFFFFFFFFFFFFFFFFFFFD8
S214417280FFFFFFFFFDFEFEFFFDFDFFFDFFFFFEFFD3
S214417290FFEEA6AFCB0B2ECF1233D01231CA11312F
S2144172A0EBA3AFFEFEFDFEFFFDFFFFFFFFFFFFFF6F
S2144172B0FFFFFFFFFFFFFFFFFFFFFFFEFEFEFCFCA1
S2144172C0FCFEFEFEFEFEFEFEFEFE464646595959B1
S2144172D0FEFEFEFDFDFDFEFEFEFEFEFEFEFEFEFD8C
S2144172E0FDFDFEFEFEFEFEFEFDFDFDFDFDFDFEFE80
S2144172F0FEFEFEFEDEDEDE444444ACACACF8F8F8FE
S214417300F8F8F8F8F8F8F7F7F7FDFDFDFEFEFEFE93
S214417310FEFEFEFEFEFEFEFEFEFEFEFEFEFEFEFE47
S214417320FEFEFEFEFEFEFEFDFDFDFEFEFEFCFCFC40
S214417330FDFDFDFEFEFEFDFDFDF2F2F2EDEDEDFE84
S214417340FEFEFEFEFEFEFEFEFEFEFEFEFEFEFBFB1D
S214417350FBFEFEFEFEFEFEFEFEFEFEFEFEFDFDFD0D
S214417360FCFCFCFEFEFEFCFCFCFEFEFEFDFDFDFE06
S214417370FEFEFEFEFEFDFDFDFEFEFEFEFEFEFFFFE8
S214417380FFFFFFFFFFFFFFFFFFFFFFFFFFFFFFFFC7
S214417390FFFFFFFFFFFFFFFFFFFFFFFFFFFFFFFFB7
S2144173A0FFFFFFFFFFFFFFFFFFFFFFFFFFFFFFFFA7
S2144173B0FFFFFFFFFFFFFFFFFFFFFFFFFFFFFFFF97
S2144173C0FFFFFFFFFFFFFFFFFFFFFFFFFFFFFFFF87
S2144173D0FFFFFFFFFFFFFFFFFFFFFFFFFFFFFFFF77
S2144173E0FFFFFFFFFFFFFFFFFFFFFFFFFFFFFFFF67
S2144173F0FFFFFFFFFFFFFFFFFFFFFFFFFFFFFFFF57
S214417400FFFFFFFFFFFFFFFFFFFFFFFFFFFFFFFF46
S214417410FFFFFFFFFFFFFFFFFFFFFFFFFFFFFFFF36
S214417420FFFFFFFFFFFFFFFFFFFFFFFFFFFFFFFF26
S214417430FFFFFFFFFFFFFFFFFFFFFFFFFFFFFFFF16
S214417440FFACACAC000000000000000000000000F3
S214417450000000141414A9A9A9FFFFFFFFFFFFFFB6
S214417460FFFFFFFFFFFFFFFFFFFFFFFFFFFFFFFFE6
S214417470FFFDFDFDFEFEFECECECE5959590606064F
S214417480000000000000010101000000000000258E
S21441749025254747470303030000000808084848D6
S2144174A0489E9E9ED2D2D2C7C7C78A8A8A202020AB
S2144174B00000000202020101010000000000000479
S2144174C00404585858EEEEEEFFFFFFFEFEFEFDFDAB
S2144174D0FDFDFDFDFEFEFEFFFFFFFFFFFFDBDBDBED
S2144174E0151515000000010101030303A0A0A0FF2C
S2144174F0FFFFFFFFFFFDFDFDFEFEFEFFFFFFFEFE61
S214417500FEFEFEFEC3C3C3020202000000000000EE
S214417510000000020202000000626262F2F2F2FF24
S214417520FFFFFEFEFEFEFEFEFCFCFC2222220000C9
S21441753000010101000000000000030303020202F3
S2144175400000000101012B2B2B888888C5C5C5D3B7
S214417550D3D3B2B2B26060600E0E0E0000000000DF
S21441756000000000000000040404000000000000C9
S2144175708E8E8EFFFFFFFFFFFFFFFFFFFFFFFFFF28
S214417580FFFFFFFFFFFDFDFDFEFEFEE0E0E01C1CF1
S2144175901C000000000000050505242424C3C3C3C5
S2144175A0FEFEFEFEFEFEFEFEFEFEFEFEFFFFFFFAB6
S2144175B0FAFAFEFEFEDADADA333333000000000070
S2144175C0000000000000001A1A1AEBEBEBFEFEFE6C
S2144175D0FEFEFEFEFEFEFFFFFFFEFEFEFCFCFCF78F
S2144175E0F7F78B8B8B0C0C0C00000001010101019D
S2144175F001000000393939F3F3F3DEDEDE36363684
S214417600010101111111909090C7C7C78C8C8C084D
S214417610080801010102020200000000000000000B
S21441762000151515B4B4B4FEFEFEFEFEFEFFFFFFC8
S214417630FFFFFFFFFFFFFFFFFFFFFFFFFFFFFFFF14
S214417640FFFDFEFEFFFDFDFFFDFFFFFEFFFFEEA679
S214417650AFCB0B2ECF1233D01231CA1131EBA3AFC1
S214417660FEFEFDFEFFFDFFFFFFFFFFFFFFFFFFFFEB
S214417670FFFFFFFFFFFFFFFFFEFEFEFEFEFEC1C156
S214417680C18B8B8BD4D4D44E4E4E585858FEFEFEEA
S214417690FEFEFEFAFAFAA5A5A5858585CCCCCCFDDD
S2144176A0FDFDFEFEFEFCFCFCFFFFFFFCFCFCFEFEBF
S2144176B0FEDEDEDE434343B1B1B1FEFEFEFCFCFC22
S2144176C0FDFDFDFFFFFFFDFDFDFAFAFADBDBDBF01A
S2144176D0F0F0CFCFCF858585BDBDBDFAFAFAFEFE67
S2144176E0FEFEFEFEE3E3E38F8F8F838383D5D5D5FE
S2144176F0FBFBFBFFFFFFE2E2E2D5D5D5FFFFFFDB59
S214417700DBDBE3E3E3E8E8E88B8B8BADADADFBFB7E
S214417710FBFFFFFFFFFFFFFDFDFDBDBDBD8181817D
S214417720A5A5A5EFEFEFFFFFFFFBFBFBFFFFFFFF6D
S214417730FFFFFDFDFDFFFFFFFFFFFFFFFFFFFFFF19
S214417740FFFFFFFFFFFFFFFFFFFFFFFFFFFFFFFF03
S214417750FFFFFFFFFFFFFFFFFFFFFFFFFFFFFFFFF3
S214417760FFFFFFFFFFFFFFFFFFFFFFFFFFFFFFFFE3
S214417770FFFFFFFFFFFFFFFFFFFFFFFFFFFFFFFFD3
S214417780FFFFFFFFFFFFFFFFFFFFFFFFFFFFFFFFC3
S214417790FFFFFFFFFFFFFFFFFFFFFFFFFFFFFFFFB3
S2144177A0FFFFFFFFFFFFFFFFFFFFFFFFFFFFFFFFA3
S2144177B0FFFFFFFFFFFFFFFFFFFFFFFFFFFFFFFF93
S2144177C0FFFFFFFFFFFFFFFFFFFFFFFFFFFFFFFF83
S2144177D0FFFFFFFFFFFFFFFFFFFFFFFFFFFFFFFF73
S2144177E0FFFFFFFFFFFFFFFFFFFFFFFFFFFFFFFF63
S2144177F0FFFFFFFFFFFFFFFFFFFFFFFFFFFFACACF9
S214417800AC00000000000000000000000000000086
S214417810141414A9A9A9FFFFFFFFFFFFFFFFFFFFF5
S214417820FFFFFFFFFFFFFFFFFFFFFFFFFFFFFEFE24
S214417830FEFFFFFFFEFEFEEEEEEE5A5A5A00000035
S21441784001010100000000000000000000000001EE
S21441785001010707073C3C3CB7B7B7F7F7F7FDFD13
S214417860FDFCFCFCFEFEFEFDFDFDDADADA4242429C
S2144178700000000000000000000000000000002F93
S2144178802F2FCECECEFCFCFCFEFEFEFEFEFEFEFE06
S214417890FEFEFEFEFEFEFEFCFCFC81818106060627
S2144178A0000000010101323232EBEBEBFEFEFEFD41
S2144178B0FDFDFFFFFFFFFFFFFEFEFEFDFDFDFDFDA3
S2144178C0FDFCFCFC5D5D5D01010100000000000067
S2144178D00000000000004D4D4DECECECFFFFFFFEBC
S2144178E0FEFEFEFEFEFCFCFC222222000000000002
S2144178F000000000040404000000030303292929B2
S2144179009A9A9AF1F1F1FEFEFEFDFDFDFEFEFEFEA7
S214417910FEFEFEFEFEC7C7C73F3F3F04040400000D
S214417920000000000000000101010000001A1A1AC0
S214417930E2E2E2FEFEFEFEFEFEFEFEFEFEFEFEFC77
S214417940FCFCFEFEFEE3E3E32B2B2B0202020000CF
S21441795000020202080808A2A2A2FDFDFDFEFEFEEC
S214417960FEFEFEFDFDFDFEFEFEFEFEFEFFFFFFFDF2
S214417970FDFDFEFEFEBABABA0A0A0A00000001017F
S21441798001000000010101666666F5F5F5FDFDFDA5
S214417990FEFEFEFCFCFCFEFEFEFEFEFEFEFEFEF0D5
S2144179A0F0F06C6C6C020202000000000000000067
S2144179B0003A3A3AF4F4F4757575040404454545BD
S2144179C0D8D8D8FCFCFCFDFDFDFCFCFCA7A7A70510
S2144179D0050500000000000000000003030302024A
S2144179E002929292FAFAFAFFFFFFFFFFFFFFFFFFB4
S2144179F0FFFFFFFFFFFFFFFFFFFFFFFFFFFFFDFE54
S214417A00FEFFFDFDFFFDFFFFFEFFFFEEA6AFCB0B2A
S214417A102ECF1233D01231CA1131EBA3AFFEFEFD89
S214417A20FEFFFDFFFFFFFFFFFFFFFFFFFFFFFFFF23
S214417A30FFFFFFFFFFF5F5F57777772323234F4FBA
S214417A404F4A4A4A1C1C1C5F5F5FFDFDFDDBDBDBCA
S214417A504444443737374F4F4F2626269F9F9FFD36
S214417A60FDFDFEFEFEFDFDFDFEFEFEFFFFFFDFDF30
S214417A70DF444444A9A9A9EDEDEDEEEEEEF2F2F2B3
S214417A80FCFCFCFEFEFEE8E8E85555553B3B3B4218
S214417A9042425353532E2E2EB2B2B2FDFDFDD2D2E8
S214417AA0D2444444484848585858353535A2A2A28D
S214417AB0FAFAFA6B6B6B404040FAFAFA5F5F5F2363
S214417AC02323484848575757272727808080FEFE5C
S214417AD0FEF1F1F17272722B2B2B5858583C3C3CFC
S214417AE04F4F4FE7E7E7FEFEFEFEFEFEFEFEFEFEC2
S214417AF0FEFEFEFEFEFEFEFEFFFFFFFFFFFFFFFF58
S214417B00FFFFFFFFFFFFFFFFFFFFFFFFFFFFFFFF3F
S214417B10FFFFFFFFFFFFFFFFFFFFFFFFFFFFFFFF2F
S214417B20FFFFFFFFFFFFFFFFFFFFFFFFFFFFFFFF1F
S214417B30FFFFFFFFFFFFFFFFFFFFFFFFFFFFFFFF0F
S214417B40FFFFFFFFFFFFFFFFFFFFFFFFFFFFFFFFFF
S214417B50FFFFFFFFFFFFFFFFFFFFFFFFFFFFFFFFEF
S214417B60FFFFFFFFFFFFFFFFFFFFFFFFFFFFFFFFDF
S214417B70FFFFFFFFFFFFFFFFFFFFFFFFFFFFFFFFCF
S214417B80FFFFFFFFFFFFFFFFFFFFFFFFFFFFFFFFBF
S214417B90FFFFFFFFFFFFFFFFFFFFFFFFFFFFFFFFAF
S214417BA0FFFFFFFFFFFFFFFFFFFFFFFFFFFFFFFF9F
S214417BB0FFFFFFFFFFFFFFFFFFFFFFACACAC000086
S214417BC00000000000000000000000000014141433
S214417BD0A9A9A9FFFFFFFFFFFFFFFFFFFFFFFFFF71
S214417BE0FFFFFFFFFFFFFFFFFFFFFFFDFDFDFFFF65
S214417BF0FFFDFDFDFFFFFFB9B9B903030300000018
S214417C000101010000000000000000000C0C0C699E
S214417C106969E3E3E3FDFDFDFDFDFDFEFEFEFFFFBD
S214417C20FFFEFEFEFEFEFEFEFEFED5D5D51818185A
S214417C30000000000000010101000000151515BB01
S214417C40BBBBFEFEFEFEFEFEFDFDFDFEFEFEFEFE97
S214417C50FEFEFEFEEDEDED4C4C4C01010101010135
S214417C60010101515151F2F2F2FEFEFEFEFEFEFE10
S214417C70FEFEFEFEFEFCFCFCFEFEFEFCFCFCFDFDEC
S214417C80FDCECECE232323010101010101000000D8
S214417C90040404787878F5F5F5FFFFFFFEFEFEFE56
S214417CA0FEFEFCFCFC222222000000000000010136
S214417CB0010000000707074E4E4ECACACAFDFDFD29
S214417CC0FDFDFDFEFEFEFFFFFFFDFDFDFDFDFDFD95
S214417CD0FDFDFDFDFDDFDFDF4C4C4C0101010000E9
S214417CE000000000010101000000020202767676E3
S214417CF0FEFEFEFEFEFEFEFEFEFEFEFEFFFFFFF366
S214417D00F3F367676700000000000001010100000F
S214417D1000505050F6F6F6FEFEFEFEFEFEFFFFFF5A
S214417D20FEFEFEFDFDFDFEFEFEFEFEFEFFFFFFFE2D
S214417D30FEFEFBFBFB52525202020201010101010F
S214417D40010000001E1E1EBBBBBBFEFEFEFEFEFE6D
S214417D50FEFEFEFFFFFFFDFDFDFEFEFEFEFEFE9E5D
S214417D609E9E0E0E0E0000000000000000003636FB
S214417D7036B6B6B6111111373737CDCDCDFDFDFD2F
S214417D80FEFEFEFEFEFEFEFEFEF9F9F92424240068
S214417D900000000000000000010101020202909074
S214417DA090F9F9F9FFFFFFFFFFFFFFFFFFFFFFFF1E
S214417DB0FFFFFFFFFFFFFFFFFFFFFFFDFEFEFFFD93
S214417DC0FDFFFDFFFFFEFFFFEEA6AFCB0B2ECF1252
S214417DD033D01231CA1131EBA3AFFEFEFDFEFFFDDB
S214417DE0FFFFFFFFFFFFFFFFFFFFFFFFFFFFFFFF5D
S214417DF0FFFFB6B6B61C1C1CBDBDBDFDFDFDD5D5F1
S214417E00D52A2A2A606060F9F9F97B7B7B4141419A
S214417E10E7E7E7F5F5F58686862F2F2FF1F1F1FE98
S214417E20FEFEFEFEFEFEFEFEFFFFFFDFDFDF4444FA
S214417E30444343435E5E5E5F5F5F8C8C8CEBEBEB53
S214417E40FEFEFEEAEAEA5656565E5E5EE2E2E2F67C
S214417E50F6F66D6D6D747474FCFCFCA3A3A34F4FD2
S214417E604FE5E5E5FDFDFDC0C0C0C3C3C3FBFBFB5D
S214417E706F6F6F424242FAFAFA5E5E5E272727CB61
S214417E80CBCBFCFCFC858585181818FDFDFDAEAEF8
S214417E90AE313131CBCBCBFDFDFDE0E0E03E3E3EA9
S214417EA0858585FDFDFDFFFFFFFEFEFEFEFEFEFD18
S214417EB0FDFDFEFEFEFFFFFFFFFFFFFFFFFFFFFF93
S214417EC0FFFFFFFFFFFFFFFFFFFFFFFFFFFFFFFF7C
S214417ED0FFFFFFFFFFFFFFFFFFFFFFFFFFFFFFFF6C
S214417EE0FFFFFFFFFFFFFFFFFFFFFFFFFFFFFFFF5C
S214417EF0FFFFFFFFFFFFFFFFFFFFFFFFFFFFFFFF4C
S214417F00FFFFFFFFFFFFFFFFFFFFFFFFFFFFFFFF3B
S214417F10FFFFFFFFFFFFFFFFFFFFFFFFFFFFFFFF2B
S214417F20FFFFFFFFFFFFFFFFFFFFFFFFFFFFFFFF1B
S214417F30FFFFFFFFFFFFFFFFFFFFFFFFFFFFFFFF0B
S214417F40FFFFFFFFFFFFFFFFFFFFFFFFFFFFFFFFFB
S214417F50FFFFFFFFFFFFFFFFFFFFFFFFFFFFFFFFEB
S214417F60FFFFFFFFFFFFFFFFFFFFFFFFFFFFFFFFDB
S214417F70FFFFFFFFFFFFFFFFACACAC0000000000BF
S214417F8000000000000000000000141414A9A9A974
S214417F90FFFFFFFFFFFFFFFFFFFFFFFFFFFFFFFFAB
S214417FA0FFFFFFFFFFFFFFFFFEFEFEFFFFFFFDFDA2
S214417FB0FDFEFEFEE4E4E4090909000000000000BD
S214417FC0000000000000060606646464E6E6E6FE7D
S214417FD0FEFEFEFEFEFEFEFEFDFDFDFDFDFDFEFE81
S214417FE0FEFEFEFEFEFEFEFDFDFD5F5F5F00000045
S214417FF00101010000000000000C0C0CB1B1B1FE03
S214418000FEFEFEFEFEFEFEFEFEFEFEFEFEFEFEFE4A
S214418010FED9D9D9383838000000000000000000E9
S2144180203E3E3EEFEFEFFFFFFFFFFFFFFEFEFEFE91
S214418030FEFEFEFEFEFEFEFEFDFDFDFEFEFEF9F927
S214418040F9A7A7A725252501010106060650505088
S214418050D4D4D4FEFEFEFFFFFFFEFEFEFEFEFEFC77
S214418060FCFC22222200000000000000000000006C
S21441807000343434CACACAFDFDFDFEFEFEFEFEFED5
S214418080FEFEFEFEFEFEFEFEFEFEFEFEFDFDFDFDCE
S214418090FDFDFDFDFDBEBEBE2626260000000000FD
S2144180A0000000000000000101011E1E1EEDEDED66
S2144180B0FEFEFEFEFEFEFDFDFDFEFEFEB7B7B71C54
S2144180C01C1C000000010101000000050505C4C498
S2144180D0C4FDFDFDFEFEFEFEFEFEFEFEFEFEFEFEB7
S2144180E0FEFEFEFDFDFDFEFEFEFFFFFFFEFEFEFD6B
S2144180F0FDFDBCBCBC000000010101010101010104
S21441810001030303737373F6F6F6FEFEFEFFFFFFED
S214418110FEFEFEFEFEFEFFFFFFFEFEFEA7A7A71425
S21441812014140000000000000101010B0B0B21217B
S214418130211212129D9D9DFAFAFAFDFDFDFDFDFDEF
S214418140FEFEFEFEFEFEFEFEFE5D5D5D01010100E1
S2144181500000010101000000181818B7B7B7FDFD6F
S214418160FDFEFEFEFFFFFFFFFFFFFFFFFFFFFFFFDE
S214418170FFFFFFFFFFFFFFFFFDFEFEFFFDFDFFFDD3
S214418180FFFFFEFFFFEEA6AFCB0B2ECF1233D01272
S21441819031CA1131EBA3AFFEFEFDFEFFFDFFFFFF2F
S2144181A0FFFFFFFFFFFFFFFFFFFFFFFFFFFFFF7B1D
S2144181B07B7B373737FDFDFDFFFFFFFEFEFE484860
S2144181C048595959EAEAEA515151787878D6D6D67B
S2144181D0D8D8D8A5A5A5181818D5D5D5FEFEFEFE23
S2144181E0FEFEFEFEFEFFFFFFDFDFDF44444471710B
S2144181F071A8A8A8A6A6A6BFBFBFF4F4F4FEFEFECB
S214418200E8E8E8565656A1A1A1FEFEFEFBFBFB7729
S2144182107777636363FDFDFDB5B5B52C2C2CA1A125
S214418220A1F9F9F9FEFEFEFEFEFEFDFDFD7171713E
S214418230444444FBFBFB595959505050FDFDFDFE4B
S214418240FEFE9797970A0A0AF9F9F98484845959E0
S21441825059FAFAFAFEFEFEFEFEFE797979282828BA
S214418260FEFEFEFEFEFEFEFEFEFFFFFFFEFEFEFFE4
S214418270FFFFFFFFFFFFFFFFFFFFFFFFFFFFFFFFC8
S214418280FFFFFFFFFFFFFFFFFFFFFFFFFFFFFFFFB8
S214418290FFFFFFFFFFFFFFFFFFFFFFFFFFFFFFFFA8
S2144182A0FFFFFFFFFFFFFFFFFFFFFFFFFFFFFFFF98
S2144182B0FFFFFFFFFFFFFFFFFFFFFFFFFFFFFFFF88
S2144182C0FFFFFFFFFFFFFFFFFFFFFFFFFFFFFFFF78
S2144182D0FFFFFFFFFFFFFFFFFFFFFFFFFFFFFFFF68
S2144182E0FFFFFFFFFFFFFFFFFFFFFFFFFFFFFFFF58
S2144182F0FFFFFFFFFFFFFFFFFFFFFFFFFFFFFFFF48
S214418300FFFFFFFFFFFFFFFFFFFFFFFFFFFFFFFF37
S214418310FFFFFFFFFFFFFFFFFFFFFFFFFFFFFFFF27
S214418320FFFFFFFFFFFFFFFFFFFFFFFFFFFFFFFF17
S214418330FFFFFFFFFFACACAC0000000000000000F8
S21441834000000000000000141414A9A9A9FFFFFFB3
S214418350FFFFFFFFFFFFFFFFFFFFFFFFFFFFFFFFE7
S214418360FFFFFFFFFFFEFEFEFFFFFFFFFFFFFFFFDA
S214418370FFEAEAEA0E0E0E000000010101000000CD
S2144183800101012D2D2DE1E1E1FEFEFEFFFFFFFF84
S214418390FFFFFFFFFFFFFFFFFFFFFFFFFFFFFFFFA7
S2144183A0FFFFFFFFFDFDFD989898000000000000CC
S2144183B00000000000000B0B0BB0B0B0FEFEFEFF4D
S2144183C0FFFFFFFFFFFFFFFFFDFDFDFFFFFFD3D3D5
S2144183D0D3323232010101000000000000050505DC
S2144183E0B2B2B2FEFEFEFDFDFDFFFFFFFEFEFEFF4A
S2144183F0FFFFFEFEFEFEFEFEFFFFFFFCFCFCFFFF56
S214418400FFEEEEEEC3C3C3D5D5D5FFFFFFFDFDFDA1
S214418410FEFEFEFFFFFFFEFEFEFEFEFEFCFCFC2215
S21441842022220000000000000000000000003F3F44
S2144184303FE2E2E2FEFEFEFFFFFFFFFFFFFFFFFF20
S214418440FFFFFFFFFFFFFFFFFFFFFFFFFFFFFFFEF7
S214418450FEFEF8F8F8727272030303000000000093
S214418460000101010000000B0B0BB8B8B8FDFDFD83
S214418470FEFEFEFFFFFFF4F4F468686802020200A5
S21441848000000000000000002B2B2BFCFCFCFFFF33
S214418490FFFDFDFDFEFEFEFEFEFEFFFFFFFFFFFFB2
S2144184A0FFFFFFFFFFFFFFFFFFFFFFFFFFFFFFF3A2
S2144184B0F3F3131313010101000000000000000054
S2144184C0003F3F3FDCDCDCFEFEFEFFFFFFFEFEFE24
S2144184D0FEFEFEFFFFFFFEFEFEA9A9A9141414002E
S2144184E000000000000000000000000000003F3FC8
S2144184F03FF5F5F5FEFEFEFFFFFFFFFFFFFFFFFF27
S214418500FEFEFEFEFEFED0D0D02424240000000253
S2144185100202040404696969F0F0F0FDFDFDFFFF05
S214418520FFFFFFFFFFFFFFFFFFFFFFFFFFFFFFFF15
S214418530FFFFFFFFFFFDFEFEFFFDFDFFFDFFFFFE10
S214418540FFFFEEA6AFCB0B2ECF1233D01231CA119E
S21441855031EBA3AFFEFEFDFEFFFDFEFEFEFEFEFE80
S214418560FFFFFFFFFFFFFEFEFEF8F8F86262625D66
S2144185705D5DFBFBFBFDFDFDFDFDFD494949575793
S21441858057E1E1E1484848000000010101000000D0
S214418590020202060606C5C5C5FEFEFEFEFEFEFD3D
S2144185A0FDFDFFFFFFDFDFDF444444B5B5B5FEFE0A
S2144185B0FEFDFDFDFEFEFEFCFCFCFDFDFDE9E9E9E0
S2144185C0555555A0A0A0FFFFFFFBFBFB75757566D3
S2144185D06666FCFCFCF4F4F48888880E0E0E0D0DDD
S2144185E00D8D8D8DF1F1F1FFFFFF707070424242AB
S2144185F0FBFBFB595959515151FFFFFFFEFEFE98B7
S2144186009898060606F8F8F8787878767676FBFB3A
S214418610FBFEFEFEFDFDFD9898980F0F0FFCFCFC3F
S214418620FFFFFFFFFFFFFFFFFFFFFFFFFFFFFFFF14
S214418630FFFFFFFFFFFFFFFFFFFFFFFFFFFFFFFF04
S214418640FFFFFFFFFFFFFFFFFFFFFFFFFFFFFFFFF4
S214418650FFFFFFFFFFFFFFFFFFFFFFFFFFFFFFFFE4
S214418660FFFFFFFFFFFFFFFFFFFFFFFFFFFFFFFFD4
S214418670FFFFFFFFFFFFFFFFFFFFFFFFFFFFFFFFC4
S214418680FFFFFFFFFFFFFFFFFFFFFFFFFFFFFFFFB4
S214418690FFFFFFFFFFFFFFFFFFFFFFFFFFFFFFFFA4
S2144186A0FFFFFFFFFFFFFFFFFFFFFFFFFFFFFFFF94
S2144186B0FFFFFFFFFFFFFFFFFFFFFFFFFFFFFFFF84
S2144186C0FFFFFFFFFFFFFFFFFFFFFFFFFFFFFFFF74
S2144186D0FFFFFFFFFFFFFFFFFFFFFFFFFFFFFFFF64
S2144186E0FFFFFFFFFFFFFFFFFFFFFFFFFFFFFFFF54
S2144186F0FFFFACACAC000000000000000000000032
S21441870000000000141414A9A9A9FFFFFFFFFFFFF2
S214418710FFFFFFFFFFFFFFFFFFFFFFFFFFFFFFFF23
S214418720FFFFFEFEFEFFFFFFFFFFFFFFFFFFEAEA40
S214418730EA0E0E0E000000000000000000000000DF
S214418740363636ECECECFEFEFEFEFEFEFFFFFFFF8D
S214418750FFFFFFFFFFFFFFFFFFFFFFFFFFFFFFFFE3
S214418760FFFFFFFF9D9D9D000000000000000000F0
S2144187700000000B0B0BB0B0B0FEFEFEFFFFFFFF8C
S214418780FFFFFEFEFEFEFEFEFEFEFEDCDCDC3B3BAD
S2144187903B0000000000000101010000001313131C
S2144187A09E9E9EE6E6E6FAFAFAFEFEFEFEFEFEFD18
S2144187B0FDFDFEFEFEFEFEFEFEFEFEFEFEFEFDFD97
S2144187C0FDFEFEFEFCFCFCFEFEFEFEFEFEFEFEFE8A
S2144187D0FFFFFFFEFEFEFEFEFEFCFCFC2222220008
S2144187E000000000000000000000003F3F3FE2E2C2
S2144187F0E2FEFEFEFFFFFFFFFFFFFFFFFFFFFFFF63
S214418800FFFFFFFFFFFFFFFFFFFFFFFFFCFCFCFE3C
S214418810FEFEB2B2B21717170000000000000000BB
S21441882000000000040404909090FEFEFEFFFFFF4F
S214418830FEFEFED8D8D839393900000000000000C5
S2144188400000000000616161FEFEFEFEFEFEFEFECF
S214418850FEFCFCFCFEFEFEFFFFFFFFFFFFFFFFFFEF
S214418860FFFFFFFFFFFFFFFFFFFFFFFFFEFEFE2DA7
S2144188702D2D0000000000000000000000001B1B22
S2144188801BC5C5C5FEFEFEFDFDFDFEFEFEFEFEFE53
S214418890FEFEFEFEFEFEA9A9A91414140000000067
S2144188A00000000000000000000000989898FEFEBE
S2144188B0FEFEFEFEFEFEFEFDFDFDFEFEFEFEFEFE95
S2144188C0FEFEFEFBFBFBD2D2D27C7C7C6161619DCD
S2144188D09D9DEDEDEDFEFEFEFEFEFEFFFFFFFFFF62
S2144188E0FFFFFFFFFFFFFFFFFFFFFFFFFFFFFFFF52
S2144188F0FFFFFDFEFEFFFDFDFFFDFFFFFEFFFFEE5E
S214418900A6AFCB0B2ECF1233D01231CA1131EBA307
S214418910AFFEFEFDFEFFFDFEFEFEFEFEFEFFFFFF7E
S214418920FEFEFEFEFEFEFBFBFB686868505050FEF6
S214418930FEFEFEFEFEFDFDFD454545595959E4E462
S214418940E4494949919191E3E3E3E4E4E4E4E4E46E
S214418950E4E4E4F9F9F9FEFEFEFDFDFDFEFEFEFE51
S214418960FEFEE0E0E0444444AFAFAFFEFEFEFEFE56
S214418970FEFDFDFDFEFEFEFEFEFEE9E9E95555550E
S214418980A0A0A0FDFDFDFBFBFB757575656565FE4D
S214418990FEFEFDFDFDFEFEFEDFDFDF9292922D2DF7
S2144189A02D727272EFEFEF707070434343FBFBFB27
S2144189B05959594E4E4EFEFEFEFDFDFD9393930BC7
S2144189C00B0BF9F9F97C7C7C6C6C6CFBFBFBFCFCBF
S2144189D0FCFEFEFE8D8D8D191919FCFCFCFEFEFE7B
S2144189E0FEFEFEFFFFFFFEFEFEFEFEFEFFFFFFFF5A
S2144189F0FFFFFFFFFFFFFFFFFFFFFFFFFFFFFFFF41
S214418A00FFFFFFFFFFFFFFFFFFFFFFFFFFFFFFFF30
S214418A10FFFFFFFFFFFFFFFFFFFFFFFFFFFFFFFF20
S214418A20FFFFFFFFFFFFFFFFFFFFFFFFFFFFFFFF10
S214418A30FFFFFFFFFFFFFFFFFFFFFFFFFFFFFFFF00
S214418A40FFFFFFFFFFFFFFFFFFFFFFFFFFFFFFFFF0
S214418A50FFFFFFFFFFFFFFFFFFFFFFFFFFFFFFFFE0
S214418A60FFFFFFFFFFFFFFFFFFFFFFFFFFFFFFFFD0
S214418A70FFFFFFFFFFFFFFFFFFFFFFFFFFFFFFFFC0
S214418A80FFFFFFFFFFFFFFFFFFFFFFFFFFFFFFFFB0
S214418A90FFFFFFFFFFFFFFFFFFFFFFFFFFFFFFFFA0
S214418AA0FFFFFFFFFFFFFFFFFFFFFFFFFFFFFFACE3
S214418AB0ACAC000000000000000000000000000018
S214418AC000141414A9A9A9FFFFFFFFFFFFFFFFFF32
S214418AD0FFFFFFFFFFFFFFFFFFFFFFFFFFFFFFFE61
S214418AE0FEFEFFFFFFFFFFFFFFFFFFEAEAEA0E0E73
S214418AF00E00000000000001010100000035353580
S214418B00EEEEEEFEFEFEFEFEFEFFFFFFFFFFFFFF68
S214418B10FFFFFFFFFFFFFFFFFFFFFFFEFEFEFEFE24
S214418B20FEA0A0A000000000000000000000000021
S214418B300B0B0BB0B0B0FEFEFEFFFFFFFFFFFFFECC
S214418B40FEFEFEFEFEFDFDFDF1F1F156565601011B
S214418B5001010101010101010101010101090909A7
S214418B60505050969696D0D0D0F2F2F2FEFEFEFECF
S214418B70FEFEFFFFFFFEFEFEFEFEFEFEFEFEFEFECC
S214418B80FEFEFEFEFEFEFEFDFDFDFEFEFEFFFFFFBF
S214418B90FEFEFEFEFEFEFCFCFC2222220000000041
S214418BA000000000000000003F3F3FE2E2E2FEFE20
S214418BB0FEFFFFFFFFFFFFFFFFFFFFFFFFFFFFFF80
S214418BC0FFFFFFFFFFFFFFFFFFFDFDFDFEFEFEE88F
S214418BD0E8E83333330000000000000000000000E6
S214418BE0000202026E6E6EFDFDFDFEFEFEFEFEFE04
S214418BF0B7B7B710101000000000000000000000DA
S214418C000000636363B7B7B7B8B8B8B6B6B6B7B718
S214418C10B7B7B7B7B7B7B7B7B7B7B7B7B7B7B7B79E
S214418C20B7B7B7B7B7B7B7B7B7B4B4B429292901F7
S214418C300101000000000000000000070707A9A985
S214418C40A9FCFCFCFEFEFEFEFEFEFEFEFEFEFEFE59
S214418C50FEFEFEA9A9A9141414000000000000009D
S214418C6000000000000E0E0EE4E4E4FEFEFEFDFDF4
S214418C70FDFEFEFEFFFFFFFEFEFEFDFDFDFDFDFDD2
S214418C80FEFEFEFEFEFEFDFDFDFEFEFEFEFEFEFEC1
S214418C90FEFEFDFDFDFEFEFEFEFEFEFFFFFFFFFFAC
S214418CA0FFFFFFFFFFFFFFFFFFFFFFFFFFFFFFFD90
S214418CB0FEFEFFFDFDFFFDFFFFFEFFFFEEA6AFCB75
S214418CC00B2ECF1233D01231CA1131EBA3AFFEFEB9
S214418CD0FDFEFFFDFEFEFEFEFEFEFFFFFFFEFEFE6C
S214418CE0FFFFFFFEFEFE8B8B8B262626F1F1F1FD64
S214418CF0FDFDF0F0F03939395C5C5CF2F2F261610D
S214418D00616B6B6BFCFCFCFEFEFEF5F5F5BABABA80
S214418D10F2F2F2FDFDFDFFFFFFFEFEFEFEFEFEDE71
S214418D20DEDE444444B4B4B4FEFEFEFEFEFEFDFD6B
S214418D30FDFEFEFEFDFDFDE9E9E9565656A0A0A062
S214418D40FDFDFDFBFBFB757575656565FCFCFCDD96
S214418D50DDDDDCDCDCFEFEFEFDFDFDAFAFAF4444F9
S214418D6044DFDFDF707070434343FAFAFA5A5A5AC7
S214418D704E4E4EFEFEFEFEFEFE959595090909F9FC
S214418D80F9F99393933E3E3EF7F7F7FDFDFDF8F86C
S214418D90F85C5C5C4F4F4FFCFCFCFEFEFEFEFEFEAC
S214418DA0FFFFFFFEFEFEFEFEFEFFFFFFFFFFFFFF93
S214418DB0FFFFFFFFFFFFFFFFFFFFFFFFFFFFFFFF7D
S214418DC0FFFFFFFFFFFFFFFFFFFFFFFFFFFFFFFF6D
S214418DD0FFFFFFFFFFFFFFFFFFFFFFFFFFFFFFFF5D
S214418DE0FFFFFFFFFFFFFFFFFFFFFFFFFFFFFFFF4D
S214418DF0FFFFFFFFFFFFFFFFFFFFFFFFFFFFFFFF3D
S214418E00FFFFFFFFFFFFFFFFFFFFFFFFFFFFFFFF2C
S214418E10FFFFFFFFFFFFFFFFFFFFFFFFFFFFFFFF1C
S214418E20FFFFFFFFFFFFFFFFFFFFFFFFFFFFFFFF0C
S214418E30FFFFFFFFFFFFFFFFFFFFFFFFFFFFFFFFFC
S214418E40FFFFFFFFFFFFFFFFFFFFFFFFFFFFFFFFEC
S214418E50FFFFFFFFFFFFFFFFFFFFFFFFFFFFFFFFDC
S214418E60FFFFFFFFFFFFFFFFFFFFFFFFACACAC00C4
S214418E700000000000000000000000000000141484
S214418E8014A9A9A9FFFFFFFFFFFFFFFFFFFFFFFF99
S214418E90FFFFFFFFFFFFFFFFFFFFFFFFFEFEFEFF9F
S214418EA0FFFFFFFFFFFFFFFFEAEAEA0E0E0E00009C
S214418EB000000000000000000000353535EEEEEE03
S214418EC0FFFFFFFFFFFFFFFFFFFFFFFFFFFFFFFF6C
S214418ED0FFFFFFFFFFFFFFFFFEFEFEFEFEFEA1A11E
S214418EE0A10000000000000000000000000B0B0B7A
S214418EF0B0B0B0FEFEFEFFFFFFFFFFFFFEFEFEFE30
S214418F00FEFEFDFDFDFCFCFCA1A1A10A0A0A000033
S214418F100000000001010100000000000001010105
S214418F200E0E0E2A2A2A4F4F4F909090D1D1D1F94A
S214418F30F9F9FEFEFEFEFEFEFEFEFEFEFEFEFEFE15
S214418F40FEFEFEFEFEFEFEFEFEFEFFFFFFFEFEFEF8
S214418F50FEFEFEFCFCFC2222220000000000000077
S214418F6000000000003F3F3FE2E2E2FEFEFEFFFF60
S214418F70FFFFFFFFFFFFFFFFFFFFFFFFFFFFFFFFBB
S214418F80FFFFFFFEFEFEFEFEFEFDFDFDFBFBFB5A68
S214418F905A5A0000000000000000000000000101D5
S214418FA001575757F9F9F9FEFEFEFBFBFB929292E9
S214418FB00101010000000000000000000000001058
S214418FC010101D1D1D1D1D1D1C1C1C1C1C1C1E1EA9
S214418FD01E1C1C1C1C1C1C1C1C1C1C1C1C1C1C1C89
S214418FE01C1C1C1C1C1C1D1D1D050505010101002A
S214418FF000000000000000000101018A8A8AFCFC92
S214419000FCFDFDFDFEFEFEFEFEFEFEFEFEFEFEFE3F
S214419010A9A9A914141400000000000000000000D3
S21441902000003B3B3BFDFDFDFDFDFDFEFEFEFEFE65
S214419030FEFEFEFEFDFDFDFEFEFEFEFEFEFEFEFE0D
S214419040FEFEFEFEFEFEFEFEFEFDFDFDFEFEFEFEFD
S214419050FEFEFCFCFCFEFEFEFFFFFFFFFFFFFFFFE8
S214419060FFFFFFFFFFFFFFFFFFFFFFFFFDFEFEFFCE
S214419070FDFDFFFDFFFFFEFFFFEEA6AFCB0B2ECFA4
S2144190801233D01231CA1131EBA3AFFEFEFDFEFF03
S214419090FDFEFEFEFEFEFEFFFFFFFEFEFEFEFEFEA8
S2144190A0FFFFFFD9D9D92828285F5F5FC2C2C275A2
S2144190B075750D0D0D5F5F5FFDFDFDAAAAAA2525FD
S2144190C025949494CDCDCD7D7D7D303030E3E3E362
S2144190D0FDFDFDFDFDFDFEFEFEFDFDFDDEDEDE448D
S2144190E0444465656591919193939392929291913F
S2144190F091B8B8B8E9E9E95353539D9D9DFEFEFEEC
S214419100FAFAFA757575626262FBFBFB9898984AA3
S2144191104A4AB5B5B5D4D4D4636363626262EEEEAF
S214419120EE6666663F3F3FFBFBFB5252524A4A4A57
S214419130FEFEFEFDFDFD929292050505F8F8F8D477
S214419140D4D4353535777777D3D3D39797972323A9
S21441915023BFBFBFFDFDFDFDFDFDFEFEFEFEFEFE87
S214419160FDFDFDFFFFFFFFFFFFFFFFFFFFFFFFFFCF
S214419170FFFFFFFFFFFFFFFFFFFFFFFFFFFFFFFFB9
S214419180FFFFFFFFFFFFFFFFFFFFFFFFFFFFFFFFA9
S214419190FFFFFFFFFFFFFFFFFFFFFFFFFFFFFFFF99
S2144191A0FFFFFFFFFFFFFFFFFFFFFFFFFFFFFFFF89
S2144191B0FFFFFFFFFFFFFFFFFFFFFFFFFFFFFFFF79
S2144191C0FFFFFFFFFFFFFFFFFFFFFFFFFFFFFFFF69
S2144191D0FFFFFFFFFFFFFFFFFFFFFFFFFFFFFFFF59
S2144191E0FFFFFFFFFFFFFFFFFFFFFFFFFFFFFFFF49
S2144191F0FFFFFFFFFFFFFFFFFFFFFFFFFFFFFFFF39
S214419200FFFFFFFFFFFFFFFFFFFFFFFFFFFFFFFF28
S214419210FFFFFFFFFFFFFFFFFFFFFFFFFFFFFFFF18
S214419220FFFFFFFFFFFFFFFFFFACACAC00000000FD
S2144192300000000000000000000000141414A9A95A
S214419240A9FFFFFFFFFFFFFFFFFFFFFFFFFFFFFF3E
S214419250FFFFFFFFFFFFFFFFFFFEFEFEFFFFFFFFDB
S214419260FFFFFFFFFFEAEAEA0E0E0E0000000000D5
S21441927000000000010101353535EDEDEDFEFEFE45
S214419280FEFEFEFFFFFFFFFFFFFFFFFFFFFFFFFFAB
S214419290FFFFFEFEFEFEFEFEFEFEFEA2A2A20000B6
S2144192A0000000000000000000000B0B0BB0B0B047
S2144192B0FEFEFEFFFFFFFFFFFFFEFEFEFDFDFDFE85
S2144192C0FEFEFDFDFDFAFAFA505050000000010185
S2144192D00101010102020200000002020201010135
S2144192E00000000000000101010707073B3B3B9FD0
S2144192F09F9FECECECFDFDFDFCFCFCFEFEFEFFFF43
S214419300FFFEFEFEFDFDFDFFFFFFFEFEFEFEFEFE36
S214419310FCFCFC22222200000000000000000000AD
S21441932000003F3F3FE2E2E2FEFEFEFFFFFFFFFF9F
S214419330FFFFFFFFFFFFFFFFFFFFFFFFFFFFFFFFF7
S214419340FEFEFEFFFFFFFEFEFEFEFEFE868686005A
S2144193500000000000000000000000020202474733
S21441936047F1F1F1FFFFFFFBFBFB6E6E6E00000065
S21441937000000000000000000002020200000000A1
S2144193800000000000010101000000000000000094
S2144193900000000000000000000000000000000087
S2144193A0000000000000020202010101000000006E
S2144193B00000000000000000727272FBFBFBFDFD26
S2144193C0FDFCFCFCFDFDFDFFFFFFFEFEFEA9A9A97D
S2144193D01414140000000000000000000000006E9D
S2144193E06E6EFDFDFDFEFEFEFCFCFCFEFEFEFCFC84
S2144193F0FCFEFEFEFEFEFEFDFDFDFDFDFDFEFEFE4F
S214419400FEFEFEFEFEFEFEFEFEFCFCFCFEFEFEFD3D
S214419410FDFDFEFEFEFFFFFFFFFFFFFFFFFFFFFF1D
S214419420FFFFFFFFFFFFFFFFFFFDFEFEFFFDFDFF0E
S214419430FDFFFFFEFFFFEEA6AFCB0B2ECF1233D0C4
S2144194401231CA1131EBA3AFFEFEFDFEFFFDFEFE5B
S214419450FEFEFEFEFFFFFFFEFEFEFEFEFEFFFFFFE0
S214419460FDFDFDCCCCCC2C2C2C0707075B5B5B644D
S21441947064647A7A7AFEFEFEFDFDFD9F9F9F111180
S214419480110606062E2E2EC3C3C3FEFEFEFEFEFEAC
S214419490FEFEFEFDFDFDFEFEFEE3E3E36D6D6D307B
S2144194A030302323231E1E1E1F1F1F1D1D1D7171BD
S2144194B071EDEDED7A7A7AB2B2B2FEFEFEF8F8F8C8
S2144194C0969696888888FEFEFEEAEAEA76767611D1
S2144194D01111060606474747D7D7D7FEFEFE969692
S2144194E0966E6E6EFCFCFC8282827B7B7BFAFAFA7D
S2144194F0FEFEFEACACAC484848F9F9F9FDFDFDC4AA
S214419500C4C42B2B2B0404041B1B1BA6A6A6FDFDC3
S214419510FDFEFEFEFDFDFDFDFDFDFEFEFEFEFEFE2C
S214419520FFFFFFFFFFFFFFFFFFFFFFFFFFFFFFFF05
S214419530FFFFFFFFFFFFFFFFFFFFFFFFFFFFFFFFF5
S214419540FFFFFFFFFFFFFFFFFFFFFFFFFFFFFFFFE5
S214419550FFFFFFFFFFFFFFFFFFFFFFFFFFFFFFFFD5
S214419560FFFFFFFFFFFFFFFFFFFFFFFFFFFFFFFFC5
S214419570FFFFFFFFFFFFFFFFFFFFFFFFFFFFFFFFB5
S214419580FFFFFFFFFFFFFFFFFFFFFFFFFFFFFFFFA5
S214419590FFFFFFFFFFFFFFFFFFFFFFFFFFFFFFFF95
S2144195A0FFFFFFFFFFFFFFFFFFFFFFFFFFFFFFFF85
S2144195B0FFFFFFFFFFFFFFFFFFFFFFFFFFFFFFFF75
S2144195C0FFFFFFFFFFFFFFFFFFFFFFFFFFFFFFFF65
S2144195D0FFFFFFFFFFFFFFFFFFFFFFFFFFFFFFFF55
S2144195E0FFFFFFFFFFFFACACAC0000000000000037
S2144195F00000000000000000141414A9A9A9FFFFF0
S214419600FFFFFFFFFFFFFFFFFFFFFFFFFFFFFFFF24
S214419610FFFFFFFFFFFFFEFEFEFFFFFFFFFFFFFF17
S214419620FFFFEAEAEA0E0E0E00000000000000000E
S21441963000020202343434EDEDEDFEFEFEFEFEFE87
S214419640FFFFFFFFFFFFFFFFFFFFFFFFFFFFFFFEE5
S214419650FEFEFEFEFEFEFEFEA1A1A10000000000F1
S214419660000000000000000B0B0BB0B0B0FEFEFE89
S214419670FFFFFFFFFFFFFEFEFEFDFDFDFEFEFEFEC1
S214419680FEFEFDFDFDEDEDED5C5C5C101010000096
S2144196900001010100000000000000000000000081
S2144196A00000000000000000000000000202022747
S2144196B02727838383D8D8D8FCFCFCFDFDFDFEFE1E
S2144196C0FEFFFFFFFFFFFFFEFEFEFEFEFEFCFCFC74
S2144196D02222220000000000000000000000003F9F
S2144196E03F3FE2E2E2FEFEFEFFFFFFFFFFFFFFFF1E
S2144196F0FFFFFFFFFFFFFFFFFFFFFFFFFFFFFFFF34
S214419700FEFEFEFEFEFEFEFEFEA4A4A40000000039
S2144197100000000000000000010101434343EEEE5B
S214419720EEFEFEFEF9F9F958585801010100000015
S2144197300000000000000000003030304747474737
S2144197404747454545464646474747454545454576
S2144197504545454545454545454545454545454573
S2144197604545454646464545454747474646464458
S21441977044444747479B9B9BFBFBFBFEFEFEFEFE8E
S214419780FEFDFDFDFEFEFEFEFEFEA9A9A914141473
S2144197900000000000000000000101018A8A8AFDE5
S2144197A0FDFDFEFEFEFEFEFEFEFEFEFEFEFEFDFD97
S2144197B0FDFFFFFFFEFEFEFEFEFEFEFEFEFEFEFE81
S2144197C0FDFDFDFEFEFEFEFEFEFEFEFEFEFEFEFD77
S2144197D0FDFDFFFFFFFFFFFFFFFFFFFFFFFFFFFF57
S2144197E0FFFFFFFFFFFFFDFEFEFFFDFDFFFDFFFF4D
S2144197F0FEFFFFEEA6AFCB0B2ECF1233D01231CAEF
S2144198001131EBA3AFFEFEFDFEFFFDFFFFFFFFFFA5
S214419810FFFEFEFEFEFEFEFFFFFFFFFFFFFEFEFE1B
S214419820FEFEFEFBFBFBEBEBEBF9F9F9FEFEFEFE63
S214419830FEFEFEFEFEFDFDFDFEFEFEF7F7F7E9E944
S214419840E9F7F7F7FEFEFEFEFEFEFDFDFDFCFCFC25
S214419850FEFEFEFFFFFFFEFEFEFDFDFDFCFCFCFEE8
S214419860FEFEFDFDFDFDFDFDFEFEFEFBFBFBFEFEE1
S214419870FEFDFDFDFDFDFDFCFCFCFEFEFEFCFCFCD4
S214419880FDFDFDFEFEFEFEFEFEFDFDFDEEEEEEE8FE
S214419890E8E8FDFDFDFDFDFDFDFDFDFAFAFAFEFEE3
S2144198A0FEFEFEFEFCFCFCFDFDFDFDFDFDFCFCFCA4
S2144198B0FEFEFEFAFAFAFEFEFEFEFEFEFEFEFEFC90
S2144198C0FCFCE9E9E9F4F4F4FCFCFCFCFCFCFDFDE1
S2144198D0FDFEFEFEFDFDFDFEFEFEFEFEFEFEFEFE66
S2144198E0FFFFFFFFFFFFFFFFFFFFFFFFFFFFFFFF42
S2144198F0FFFFFFFFFFFFFFFFFFFFFFFFFFFFFFFF32
S214419900FFFFFFFFFFFFFFFFFFFFFFFFFFFFFFFF21
S214419910FFFFFFFFFFFFFFFFFFFFFFFFFFFFFFFF11
S214419920FFFFFFFFFFFFFFFFFFFFFFFFFFFFFFFF01
S214419930FFFFFFFFFFFFFFFFFFFFFFFFFFFFFFFFF1
S214419940FFFFFFFFFFFFFFFFFFFFFFFFFFFFFFFFE1
S214419950FFFFFFFFFFFFFFFFFFFFFFFFFFFFFFFFD1
S214419960FFFFFFFFFFFFFFFFFFFFFFFFFFFFFFFFC1
S214419970FFFFFFFFFFFFFFFFFFFFFFFFFFFFFFFFB1
S214419980FFFFFFFFFFFFFFFFFFFFFFFFFFFFFFFFA1
S214419990FFFFFFFFFFFFFFFFFFFFFFFFFFFFFFFF91
S2144199A0FFFFFFACACAC0000000000000000000070
S2144199B00000000000141414A9A9A9FFFFFFFFFF2F
S2144199C0FFFFFFFFFFFFFFFFFFFFFFFFFFFFFFFF61
S2144199D0FFFFFFFEFEFEFFFFFFFFFFFFFFFFFFEA69
S2144199E0EAEA0E0E0E000000000000000000000033
S2144199F000343434EEEEEEFEFEFEFEFEFEFFFFFFCA
S214419A00FFFFFFFFFFFFFFFFFFFFFFFFFFFFFFFF20
S214419A10FFFFFEFEFEA1A1A1000000000000000025
S214419A20000000000B0B0BB0B0B0FEFEFEFFFFFFC8
S214419A30FFFFFFFEFEFEFEFEFEFEFEFEFDFDFDFD01
S214419A40FDFDFEFEFEEEEEEE9191913B3B3B0505A4
S214419A5005000000010101000000000000000000B8
S214419A6000000000000000000000000000000003AD
S214419A7003033A3A3AA6A6A6F6F6F6FDFDFDFEFE25
S214419A80FEFFFFFFFEFEFEFEFEFEFCFCFC22222247
S214419A90000000000000000000000000404040E2DE
S214419AA0E2E2FEFEFEFFFFFFFFFFFFFFFFFFFFFFBD
S214419AB0FFFFFFFFFFFFFFFFFFFFFEFEFEFEFEFE76
S214419AC0FEFEFEFEFEFEB6B6B60000000000000139
S214419AD00101000000000000444444EEEEEEFEFEAC
S214419AE0FEF8F8F84F4F4F0000000101010000005A
S214419AF00000000101019D9D9DF5F5F5F7F7F7F68C
S214419B00F6F6F5F5F5F5F5F5F6F6F6F6F6F6F6F6B5
S214419B10F6F6F6F6F6F6F6F6F6F6F6F6F6F6F6F69F
S214419B20F5F5F5F6F6F6F6F6F6F6F6F6F6F6F6F494
S214419B30F4F4FBFBFBFEFEFEFEFEFEFDFDFDFEFE1F
S214419B40FEFEFEFEFEFEFEA9A9A9141414000000A6
S214419B50000000000000010101949494FEFEFEFD09
S214419B60FDFDFEFEFEFEFEFEFEFEFEFFFFFFFFFFCC
S214419B70FFFEFEFEFFFFFFFEFEFEFEFEFEFEFEFEBB
S214419B80FEFEFEFEFEFEFEFEFEFEFEFEFFFFFFFFAB
S214419B90FFFFFFFFFFFFFFFFFFFFFFFFFFFFFFFF8F
S214419BA0FFFFFFFDFEFEFFFDFDFFFDFFFFFEFFFF8A
S214419BB0EEA6AFCB0B2ECF1233D01231CA1131EBFA
S214419BC0A3AFFEFEFDFEFFFDFFFFFFFFFFFFFEFE14
S214419BD0FEFEFEFEFFFFFFFFFFFFFEFEFEFEFEFE59
S214419BE0FDFDFDFEFEFEFEFEFEFDFDFDFEFEFEFE55
S214419BF0FEFEFEFEFEFFFFFFFDFDFDFEFEFEFFFF3D
S214419C00FFFDFDFDFEFEFEFEFEFEFDFDFDFEFEFE33
